:0200000460009A
:100000004643464200040156000000000303030378
:1000100000000000000000000000000000000000E0
:1000200000000000000000000000000000000000D0
:1000300000000000000000000000000000000000C0
:100040005900000000080700000000000000000048
:10005000000000040000000000000000000000009C
:100060000000000000000000000000000000000090
:100070000000000000000000100010000000000060
:10008000A087188B108F06B304A7000000000000A3
:100090000000000000000000000000000000000060
:1000A0000000000000000000000000000000000050
:1000B0000000000000000000000000000000000040
:1000C0000000000000000000000000000000000030
:1000D0000000000000000000000000000000000020
:1000E0000000000000000000000000000000000010
:1000F0000000000000000000000000000000000000
:1001000000000000000000000000000000000000EF
:1001100000000000000000000000000000000000DF
:1001200000000000000000000000000000000000CF
:1001300000000000000000000000000000000000BF
:1001400000000000000000000000000000000000AF
:10015000000000000000000000000000000000009F
:10016000000000000000000000000000000000008F
:10017000000000000000000000000000000000007F
:10018000000000000000000000000000000000006F
:10019000000000000000000000000000000000005F
:1001A000000000000000000000000000000000004F
:1001B000000000000000000000000000000000003F
:1001C0000002000000000400000100000000000028
:1001D000000004000000000000000000000000001B
:1001E000000000000000000000000000000000000F
:1001F00000000000000000000000000000000000FF
:1002000000000000000000000000000000000000EE
:1002100000000000000000000000000000000000DE
:10100000D10020410020006000000000648B0060DF
:1010100020100060001000600000000000000000D0
:10102000000000600000000400000000FFFFFFFF60
:1010300000000000000000000000000000000000B0
:1010400000000000000000000000000000000000A0
:101050000000000000000000000000000000000090
:101060000000000000000000000000000000000080
:1020000000FC0120192400603124006033240060AA
:10201000352400603724006039240060000000008F
:102020000000000000000000000000003B240060F1
:102030003D240060000000003F2400604124006057
:1020400043240060472400604B2400604F2400605C
:1020500053240060572400605B2400605F2400600C
:1020600063240060672400606B2400606F240060BC
:1020700073240060772400607B2400607F2400606C
:1020800083240060FF240060FF240060FF240060C0
:10209000872400608B2400608F24006093240060FC
:1020A000972400609B2400609F240060A3240060AC
:1020B000A7240060AB240060AF240060B32400605C
:1020C000B7240060BB240060BF240060C32400600C
:1020D000C7240060CB240060FF240060FF24006060
:1020E000FF240060FF240060FF240060FF240060E4
:1020F000FF240060FF240060FF240060FF240060D4
:10210000FF240060FF240060FF240060FF240060C3
:10211000FF240060FF240060FF240060FF240060B3
:10212000CF240060D3240060D7240060DB2400604B
:10213000DF240060FF240060FF240060FF240060B3
:10214000FF240060FF240060FF240060FF24006083
:10215000FF240060FF240060FF240060FF24006073
:10216000FF240060FF240060FF240060FF24006063
:10217000FF240060FF240060FF240060FF24006053
:10218000FF240060FF240060FF240060FF24006043
:10219000FF240060FF240060FF240060FF24006033
:1021A000FF240060FF240060E3240060E724006057
:1021B000FF240060FF240060FF240060FF24006013
:1021C000FF240060FF240060FF240060FF24006003
:1021D000FF240060FF240060FF240060FF240060F3
:1021E000FF240060FF240060FF240060FF240060E3
:1021F000EB240060FF240060EF240060F324006003
:10220000DD7C0060CD7C0060F7240060FB24006072
:10221000FF240060FF240060FF240060FF240060B2
:10222000FF240060FF240060FF240060FF240060A2
:10223000FF240060FF240060FF240060FF24006092
:10224000FF240060FF240060FF240060FF24006082
:10225000FF240060FF240060FF240060FF24006072
:10226000FF240060FF240060FF240060FF24006062
:10227000FF240060FF240060FF240060FF24006052
:10228000FF240060FF240060FF240060FF24006042
:10229000FF240060FF240060FF240060FF24006032
:1022A000FF240060FF240060FF240060FF24006022
:1022B000FF240060FF240060FF240060FF24006012
:1022C000FF240060FF240060FF240060FF24006002
:1022D000FF240060FF240060FF240060FF240060F2
:1022E000FF240060FF240060FF240060FF240060E2
:1022F000FF240060FF240060FF240060FF240060D2
:10230000FF240060FF240060FF240060FF240060C1
:10231000FF240060FF240060FF240060FF240060B1
:10232000FF240060FF240060FF240060FF240060A1
:10233000FF240060FF240060FF240060FF24006091
:10234000FF240060FF240060FF240060FF24006081
:10235000FF240060FF240060FF240060FF24006071
:10236000FF240060FF240060FF240060FF24006061
:10237000FF240060FF240060FF240060FF24006051
:10238000FF240060FF240060FF240060FF24006041
:10239000FF240060FF240060FF240060FF24006031
:1023A000FF240060FF240060FF240060FF24006021
:1023B000FF240060FF240060FF240060FF24006011
:1023C000FF240060FF240060FF240060FF24006001
:1023D000FF240060FF240060FF240060FF240060F1
:1023E000FF240060FF240060FF240060FF240060E1
:1023F000FF240060FF240060FF240060FFFFFFFF58
:10240000DFF80CD000F012F9004800470D8600609C
:1024100000FC01200047000072B63A483A490160CA
:102420000A6882F308883948804762B6384800470E
:10243000FEE7FEE7FEE7FEE7FEE7FEE7FEE7FEE774
:10244000FEE73448004734480047344800473448E2
:102450000047344800473448004734480047344870
:102460000047344800473448004734480047344860
:102470000047344800473448004734480047344850
:102480000047344800473448004734480047344840
:102490000047344800473448004734480047344830
:1024A0000047344800473448004734480047344820
:1024B0000047344800473448004734480047344810
:1024C0000047344800473448004734480047344800
:1024D00000473448004734480047344800473448F0
:1024E00000473448004734480047344800473448E0
:1024F00000473448004734480047344800473448D0
:102500000047000008ED00E000200060FD49006089
:1025100001240060FF240060FF240060FF240060AD
:10252000FF240060FF240060FF240060FF2400609F
:10253000FF240060FF240060FF240060FF2400608F
:10254000FF240060FF240060FF240060FF2400607F
:10255000FF240060FF240060D53F0060F13F006071
:102560000D4000602940006045400060614000600F
:102570007D40006099400060FF240060FF240060FF
:10258000FF240060FF240060FF240060FF2400603F
:10259000FF240060FF240060FF240060FF2400602F
:1025A000FF240060FF240060FF240060FF2400601F
:1025B000FF240060FF240060FF240060F100002081
:1025C000FF240060FF240060FF240060FF240060FF
:1025D000FF24006040EA01039B0703D009E008C91B
:1025E000121F08C0042AFAD203E011F8013B00F8D8
:1025F000013B521EF9D27047D2B201E000F8012B24
:10260000491EFBD270470022F6E710B513460A4672
:1026100004461946FFF7F0FF204610BD421C10F893
:10262000011B0029FBD1801A70470000064C074DA2
:1026300006E0E06840F0010394E807009847103492
:10264000AC42F6D3FFF7E0FE788B0060A88B006009
:1026500070B58C1810F8015B15F0070301D110F864
:10266000013B2A1106D110F8012B03E010F8016B91
:1026700001F8016B5B1EF9D12B0705D40023521E14
:102680000DD401F8013BFAE710F8013BCB1A921C7C
:1026900003E013F8015B01F8015B521EF9D5A1427A
:1026A000D8D3002070BD40F6852CC2F2000C6047E4
:1026B00040F6252CC2F2000C604740F6F12CC2F225
:1026C000000C604710B54FF40040FE49086000BFA1
:1026D000FD48006840F48030FC49C1F8C00208465B
:1026E000D0F8C00220F40030C1F8C002F848F9491F
:1026F000086000BF002001F01FF801F03FF8012042
:1027000001F054F9F448006820F0FF0040F07F0029
:10271000F14908600121F14801F010F90121F04868
:1027200001F00CF9EF48C06820F01F0040F01300E2
:10273000EC49C86000BFEB48006800F00040B0F111
:10274000004FF8D10021E84801F0D0F84FF488702C
:1027500000F0F8FD4FF4847000F0F4FD40F2162014
:1027600000F0F0FD4FF4067000F0ECFD40F20E209A
:1027700000F0E8FD0321DD4801F0B8F80121DC4854
:1027800001F0B4F80021DB4801F0B0F84FF48A7092
:1027900000F0D8FD4FF48B7000F0D4FD182000F04D
:1027A000D1FD1A2000F0CEFD4FF4867000F0CAFD76
:1027B0000121D14801F09AF840F2026000F0C2FD18
:1027C0000121CE4801F092F80021CD4801F0B6F881
:1027D00040F2046000F0B6FD0121CA4801F086F81D
:1027E0000021C94801F0AAF84FF4417000F0AAFD99
:1027F00007214FF2140001F079F80021C34801F0DD
:102800009DF80021C24801F099F840F2022000F042
:1028100099FD0121B948183001F068F80021BD4840
:1028200001F08CF84FF4807000F08CFD4FF4817053
:1028300000F088FD4FF4827000F084FD4FF4837047
:1028400000F080FD0421AB48FC3801F04FF8022174
:10285000B14801F073F8162000F074FD0221AF4872
:1028600001F044F80221AE4801F068F840F212503D
:1028700000F068FD0321AB4801F038F801219E48C3
:102880000C3001F033F80021A248E03001F056F896
:1028900040F2145000F056FD0321A248001D01F043
:1028A00025F801219448103001F020F800218B48D0
:1028B000001D01F043F840F2165000F043FD0321E3
:1028C000994801F013F80121984801F00FF8002110
:1028D0009348001D01F032F840F2062000F032FD6E
:1028E0004FF4027000F02EFD40F20A2000F02AFDA5
:1028F00000218F4800F0FAFF00218E4801F01EF8F9
:102900000E2000F01FFD122000F01CFD102000F032
:1029100019FD142000F016FD0121874800F0E6FFA4
:10292000022172480C3001F009F84FF4A36000F066
:1029300009FD1C2000F006FD0C2000F003FD4FF403
:102940008C7000F0FFFC40F2023000F0FBFC40F223
:10295000063000F0F7FC40F21A5000F0F3FC40F2B1
:102960000E6000F0EFFC00216348083000F0BEFF6D
:1029700000216748103000F0E1FF40F20A3000F01B
:10298000E1FC01216D4800F0B1FF03216648F03001
:1029900000F0ACFF05215B48EC3800F0CFFF40F2BF
:1029A0000E5000F0CFFC0121654800F09FFF072189
:1029B0005D48083000F09AFF0321624800F0BEFF36
:1029C00040F2025000F0BEFC01215C48083800F0E3
:1029D0008DFF07215C4800F089FF03214348E4385C
:1029E00000F0ACFF4FF4407000F0ACFC0121564801
:1029F000083800F07BFF07215148083800F076FFC7
:102A00000321524800F09AFF0021514800F096FF40
:102A1000504800F065FE504800F0DAFE1B2100200F
:102A200000F0B8FE1021012000F0B4FE18210220B1
:102A300000F0B0FE1021032000F0ACFE2348006B34
:102A400020F480202149086300F05EFC0122434904
:102A50001E4800F09BFF4248006820F400401B49DC
:102A6000C1F870010846D0F8700120F40000C1F8E8
:102A700070010846006F40F40050086700F05AFCEF
:102A80001248D0F8A00040F480301049C1F8A000EE
:102A90000846D0F8700120F04040C1F870010846A7
:102AA000D0F8A00040F400500849A031086000F0C0
:102AB00033FC01222B49054800F068FF2848903874
:102AC000006851E0B00F0020C0820D4000800D4032
:102AD00000366E01AC0F002000C00F40186C008063
:102AE000143900140000084014EA0004146800803F
:102AF00010E0004014FB00801CE0078024EB008005
:102B00001C30008024F000801C31008014270080DD
:102B1000142600803C6900801864008024790080BD
:102B2000186E008028E6008028F6008028F00780D4
:102B300038F307803832008020E2078038EC0080CC
:102B400030F900803074008030E90080207300800C
:102B50000C2000806C8A0060748A00600D00700098
:102B600070810D400D00E00020F00300401C56492C
:102B7000C1F8E0000846D0F8E00040F40050C1F889
:102B8000E0000846D0F8E00040F400104E49E03183
:102B9000086000F0C9FB01224C494B4800F0F6FEEA
:102BA0004948006A40F400504749086203214848F8
:102BB00000F0C4FE0021474800F0C0FE0021464856
:102BC00000F0BCFE0021454800F0B8FE3E48D0F8B9
:102BD000600120F01F003C49C1F860014048006ED0
:102BE00020F070003E4908660846006E20F00F0095
:102BF000401C08660846006E20F46000086608461F
:102C0000006E20F4F81040F4901008660846006E3C
:102C100020F4807008660846006E20F08000086688
:102C20000846006E20F080700866002211462D488C
:102C300001F002F9002203212A4801F0FDF80022E8
:102C40000621284801F0F8F800220821254801F063
:102C5000F3F800220A21234801F0EEF80020014693
:102C6000204B9B68204C03EA04024FF0806303EA88
:102C7000806313434FF47F0404EA01442343194C57
:102C8000A36000BF4FF4005000216FF30B0029B187
:102C900022465268024323465A6004E0114A5268B1
:102CA0008243104B5A6000BF0E48406920F08050AC
:102CB0000C4948610846406920F0005048610B48C3
:102CC0000B49086010BD000000800D400D00200081
:102CD0001872008014390014186C00801C260080C3
:102CE00000C00F4000C00A40FFFF00FB0046C323A6
:102CF000CC0F002010B56048006800F40030B0F53B
:102D0000003F2BD100BF00BF00BF00BF00BFBFF31B
:102D10004F8F00BF00BF00BF00BF00BF00BFBFF3A9
:102D20006F8F00BF00BF00BF5348006820F4003021
:102D30005149086000205149086000BF00BF00BF32
:102D4000BFF34F8F00BF00BF00BF00BF00BF00BF79
:102D5000BFF36F8F00BF00BF00BF00BF46480068D1
:102D600000F48030B0F5803F01D101F029FB00BFB5
:102D700000BF00BF00BF00BFBFF34F8F00BF00BF49
:102D800000BF00BF00BF00BFBFF36F8F00BF00BF19
:102D900000BF39481030006820F4803036491031C7
:102DA000086035488030006820F0010032498031E9
:102DB000086000BF32483049883108603148091D39
:102DC00008603148091F08602E48801C091D0860F2
:102DD0002E48091F08602E48091D08601320091F8E
:102DE00008602848801C091D08601420091F08601D
:102DF0002848091D08602848091F08602548091D42
:102E000008602648091F08602248801C091D0860C8
:102E10001D48801D091F08601E481030091D0860EC
:102E20001F48091F08601F48091D0860042000BFD3
:102E300000BF00BF00BFBFF34F8F00BF00BF00BF88
:102E400000BF00BF00BFBFF36F8F00BF00BF00BF58
:102E500040F00101084A80321160074910310968C9
:102E600041F48031044A1032116000BF01F0F8FAD9
:102E700001F092FB10BD000014ED00E050EF00E007
:102E8000100000C039001003110000801200006023
:102E90003300030621000303150000201600202044
:102EA0001800E0812900080370B51648C1B2164A1F
:102EB0008958C0F34C32C0F304239A401140C0F348
:102EC0000422D14061B9114800F0D0FA0621B0FBCC
:102ED000F1F50F4800F0AAFA401CB5FBF0F40FE042
:102EE00000BF0C48006800F0100008B10A4D01E076
:102EF0000A480568064800F099FA401CB5FBF0F452
:102F0000204670BD2426008000C00F400D00100038
:102F100024E0078070820D4000366E01AC0F002067
:102F200010B5FFF7C1FF0446234601224FF4E131FB
:102F3000104600F09BFD10BD7CB540F2024003211D
:102F4000040A00F01F02E24D05EB84031D6803260E
:102F50009640B54301FA02F635431D6000BF00BF3D
:102F60000020DC4903460246CDE900100221DA4880
:102F700000F055FF0020D749091D03460246CDE960
:102F800000100221D448001D00F049FF0120D14962
:102F9000E8310023D14ACDE900100146CE48E8309F
:102FA00000F03DFF0120CB49EC310023CB4A121F3A
:102FB000CDE900100146C848EC3000F030FF012098
:102FC000C449F0310023C54A083ACDE90010014652
:102FD000C148F03000F023FF0120BE49F431002346
:102FE000BE4A0C3ACDE900100146BB48F43000F06F
:102FF00016FF0120B949F03900231A46CDE9001027
:103000000146B448F83800F00AFF0120B349EC3912
:103010000023B24A203ACDE900100146AD48F43809
:1030200000F0FDFE0120AD49E83900231A46CDE944
:1030300000100146A748F03800F0F1FE0120A74932
:10304000E4390023A54A121DCDE900100146A1482C
:10305000EC3800F0E4FE0120A049E03900239F4A4B
:103060001C3ACDE9001001469A48E83800F0D7FE36
:1030700001209A49DC390023984A183ACDE900101A
:1030800001469448E43800F0CAFE01209349D8393B
:103090000023924A143ACDE9001001468D48E038E9
:1030A00000F0BDFE01208D49D43900238B4A103A2F
:1030B000CDE9001001468748DC3800F0B0FE41F24F
:1030C000B000844900231A46CDE90010022182484D
:1030D00000F092FE41F2B0007E49091D00231A461D
:1030E000CDE9001002217C48001D00F085FE41F270
:1030F000F1007849E8310023784ACDE90010012138
:103100007548E83000F078FE41F2F1007149EC3189
:103110000023724A121FCDE9001001216E48EC30E5
:1031200000F06AFE41F2F1006A49F03100236B4A77
:10313000083ACDE9001001216748F03000F05CFE4C
:1031400041F2F1006349F4310023644A0C3ACDE9BD
:10315000001001216048F43000F04EFE41F2F10011
:103160005E49F03900231A46CDE900100121594883
:10317000F83800F041FE5A485849EC390023574AC4
:10318000203ACDE9001001215248F43800F034FE15
:1031900041F2F1005149E83900231A46CDE9001007
:1031A00001214C48F03800F027FE41F2F1004B4974
:1031B000E4390023494A121DCDE900100121454898
:1031C000EC3800F019FE41F2F1004449E0390023E7
:1031D000424A1C3ACDE9001001213E48E83800F08F
:1031E0000BFE41F2F1003D49DC3900233B4A183A1D
:1031F000CDE9001001213748E43800F0FDFD41F22F
:10320000F1003649D8390023344A143ACDE9001088
:1032100001213048E03800F0EFFD41F2F1002F4984
:10322000D43900232D4A103ACDE900100121294854
:10323000DC3800F0E1FD002026490C390346024647
:10324000CDE90010052124480C3800F0E8FD41F2DA
:10325000B00020490C3900231A46CDE900100521A1
:103260001D480C3800F0C8FD00201A4908390346F3
:103270000246CDE9001005211748083800F0CFFDBF
:1032800041F2B0001349083900231A46CDE9001075
:1032900005211148083800F0AFFD00200D49091F35
:1032A00003460246CDE9001005210B48001F00F03F
:1032B000B6FD41F2B0000749091F00231A46CDE9C7
:1032C000001005210448001F00F096FD7CBD0000A1
:1032D00068C00F40DC821F40EC801F40C4841F4048
:1032E000F130010070B5040A00F01F02054D05EB36
:1032F00084031D6803269640B54301FA02F6354360
:103300001D6070BD68C00F404FF4805001490867D0
:103310007047000000800D404FF480500149086064
:1033200070470000E0800D400020014908627047AE
:1033300000800D404FF48050014908607047000044
:10334000A0800D4070B50021040A00F01F02064D58
:1033500005EB84031D6803269640B54301FA02F687
:1033600035431D6000BF70BD68C00F4008B5024600
:103370001348006840F00300114B803BC3F8800005
:103380001048D0F8400140F002000E4BC3F8400155
:103390000020009003E000BF0098401C00900A4B02
:1033A00000989842F7D30948006820F4F85041F299
:1033B00001731843064BC3F82001012008BD00002B
:1033C00080C00F4000002E40801A060020810D4072
:1033D00000800D4038B504460D460020009011488D
:1033E000006900F4005030B10E48006940F0400020
:1033F0000C49086102E0684600F04CFA0A48006B8C
:1034000020F00040084908630846006B20F0804027
:103410000863002008600846006B40F4C61008638B
:10342000012038BD00800D4000900D400146C8B21B
:10343000054A8058C1F34C32C1F304239A4010402E
:10344000C1F30422D040704700C00F400448006818
:1034500000F0100008B10348704703480068FBE71C
:1034600070820D4000366E01AC0F00202DE9F04156
:103470002DED028B84B00546934BD3E90102196808
:10348000DB6801AC0DC4009190492846C0F30B42A3
:103490008A5800F01F070123BB401A400AB10122DD
:1034A00000E000222AB9002004B0BDEC028BBDE888
:1034B000F081864FA846C8F30B403858C0F38130DE
:1034C00010B9FFF7C3FF00E0002004467F48C5F3B2
:1034D0000B414158C1F3004109B12046E4E77C4962
:1034E000681A8D4250D00CDC0D2D16D0A5F5801039
:1034F0000D38A8B3B0F5801F6FD0B0F5001F6DD1A7
:1035000012E0B0F5401F6AD0B0F5E00F68D0A0F52A
:10351000E00008380028F2D1C5E06C48006800F0EF
:103520007F0060434408CCE06848006D00EE100A5C
:10353000B8EE401B00EE104AB8EE400B21EE001B27
:103540006248006E00EE100AB8EE400B81EE008B70
:103550005E48006B00F0010018B11620444303E000
:1035600008E004EB84008400BCEEC80B10EE100AE7
:103570000444A6E05548006900F0020008B1162096
:1035800000E0142044439CE05048006F00F07F06A8
:103590004E488030006800EE100AB8EE401B00EE86
:1035A000104AB8EE400B21EE001B4848D0F89000BE
:1035B00000EE100AB8EE400B81EE008BBCEEC80B9B
:1035C00010EE100A04FB06044048006F00F4C0101F
:1035D00038B1B0F5002F08D105E066E06FE017E0E4
:1035E00059E0A40802E0640800E000BF00BF3948C9
:1035F000006839490840B0F5004F04D049420844FA
:1036000018B9A40802E0640800E000BF00BF58E059
:103610002E48A030006800F07F062C48D0F8B0009B
:1036200000EE100AB8EE401B00EE104AB8EE400B58
:1036300021EE001B2748B038006800EE100AB8EEF3
:10364000400B81EE008BBCEEC80B10EE100A04FBA1
:1036500006041E48D0F8A00000F4C01018B1B0F560
:10366000002F04D101E0A40802E0640800E000BFDC
:1036700000BF1848006800F04040B0F1404F03D050
:10368000B0F1804F04D101E0A40802E0640800E03A
:1036900000BF00BF15E00F489038006800F0030637
:1036A0005DF826400DE00D4C0BE00848006A00F084
:1036B000020008B1162000E01420444301E0002479
:1036C00000BF00BF2046EFE6C48A006000800D40C6
:1036D0000D00700070810D400080800040787D01F9
:1036E0001449096821F4404141F4803102794FF4D2
:1036F000404303EA823211430E4A116011460968C1
:1037000041F27F02914341F40051027802F07F02BE
:103710001143084A116000BF0649096801F00041E1
:103720000029F9D00349096821F48031014A116068
:103730007047000000800D404FF080410D4A11603D
:1037400000BF0D49096801F480310029F9D04FF418
:103750008031084A121F116000BF06490839096804
:1037600001F400410029F8D04FF48031014A116082
:103770007047000058810D4070820D40034800687A
:1037800040F001000249C1F87002704770820D409C
:1037900000800D4070B50A4601460B4C2468CE00EF
:1037A000BF25B54024EA0503CD008024AC401C436E
:1037B000064DC5F8004102F03F04CD00AC401C436B
:1037C000014D2C6070BD000000810D4000800D4057
:1037D0002049096B21F4404141F48031027B4FF4D0
:1037E000404303EA823211431A4A11631146096BBE
:1037F00041F20102914341F40051027802F00102CA
:103800001143144A1163416821F0404111658168F8
:1038100021F040411166418AC1F30E01027C4FF450
:10382000004303EAC2321143C2890B4B03EA02424E
:103830001143084A116400BF0649096B01F00041B9
:103840000029F9D00349096B21F48031014A116341
:103850007047000000800D400000FFFF70B50A4671
:1038600001460B4C2468CE00BF25B54024EA050371
:10387000CD008024AC401C43054DF03DC5F8F04020
:1038800002F03F04CD00AC401C43014D2C6070BDE4
:10389000F0800D401449096921F4404141F4803120
:1038A00042784FF4404303EA823211430E4A1161D9
:1038B0001146096921F0020141F4415102780223C5
:1038C00003EA42021143084A116100BF064909692F
:1038D00001F000410029F9D00349096921F4803140
:1038E000014A11617047000000800D4070B53F2310
:1038F00003EAA062C3B2104C1B59C0F34C34C0F3AE
:103900000425AC40A343C0F3042401FA04F4C0F33B
:103910004C35C0F30426B5402C402343C4B2064DB9
:103920006351202A07D000BF034B9C6C01239340B6
:103930001C40002CF8D170BD00C00F4070B53F2373
:1039400003EAA062C3B2104C1B59C0F34C34C0F35D
:103950000425AC40A343C0F3042401FA04F4C0F3EB
:103960004C35C0F30426B5402C402343C4B2064D69
:103970006351202A07D000BF034B9C6C0123934066
:103980001C40002CF8D170BD00C00F4010B532B102
:103990004FF48033C1F30B440444636005E04FF4FB
:1039A0008033C1F30B440444A36010BD18B9102147
:1039B000034A116003E01021014A121D1160704793
:1039C00074820D402DE9F04F07468C469146002049
:1039D0003946834601F801BBB9F1000F1ED0DCF86F
:1039E000004034B94FF0300B81F800B0401CBDE806
:1039F000F08F10E094FBF3F808FB1345002D05DA77
:103A00002A466FEA020B0BF1310500E030354446DF
:103A100001F8015B401C002CECD125E0DCF80060D3
:103A20002EB94FF0300B81F800B0401CDFE719E0F1
:103A3000B6FBF3FA0AFB13620A2A01D230320DE018
:103A4000A2F10A0BDDF824E0BEF1000F02D04FF026
:103A5000410E01E04FF0610E0BEB0E02564601F8ED
:103A6000012B401C002EE3D100BFC0E72DE9F0413F
:103A700088B005460E4614461F4643F221581E4B99
:103A80000FCB8DE80F00009701968DF80A508DF846
:103A90001840012C02D1CDF81CD00FE0022C03D12C
:103AA000404608B0BDE8F081032C01D14046F8E75C
:103AB000042C01D14046F4E74046F2E71C210F48B0
:103AC000FEF7A1FD0D4801460861086904A900F050
:103AD000DFFD804609490869143100F005FE804683
:103AE00006490869183100F0F0FD80460348006976
:103AF000034908600020D4E7688B0060801E002026
:103B0000C00F00202DE9F04105460C4616461F4621
:103B10004FF0000800BF10E02068401C802805D34B
:103B20002846216800F036F80020206020682E54D6
:103B30002068401C206008F10108B845ECDBBDE8B6
:103B4000F08100000FB430B5A1B000240025802121
:103B50006846FEF758FD0D48006820B9002021B0E6
:103B600030BC5DF814FB25A82090094B6A462099CB
:103B7000249800F02CFE04462146684600F00AF81E
:103B80000546002020902846E9E70000C00F0020ED
:103B9000053B006070B504460D4643F221562A46A7
:103BA0002146054800F0D7FD06460EB9284670BDEF
:103BB0004FF0FF30FBE70000941E0020014600207C
:103BC00006E0054A52F820208A4200D102E0401C5B
:103BD0000628F6D300BF7047D48A00602DE9F0476D
:103BE00004460D4616462046FFF7E8FF0746062F17
:103BF00021D2214830F91700B0F1FF3F1BD01E49F8
:103C000031F9170003214FEA102C00F01F02DFF8F2
:103C10006C8008EB8C03D3F80080894609FA02F91E
:103C200028EA090801FA02F948EA0908C3F80080FD
:103C300000BF00BF00BF61690120A84081436161EE
:103C4000307828B960680121A9408843606009E0A4
:103C500072782946204600F058F860680121A94092
:103C60000843606096F8028042462946204600F0EC
:103C700007F800BFBDE8F087EC8A006068C00F401D
:103C8000F0B503460C462146DD690126A640B54342
:103C9000DD61102C02D203F10C0002E003F11000F0
:103CA0001039062A2ED2DFE802F02D030A1520274C
:103CB00005684F000326BE40B543056023E0056854
:103CC0004F000326BE40B5434F000126BE4035439A
:103CD000056018E005684F000326BE40B5434F005D
:103CE0000226BE40354305600DE005684F000326FF
:103CF000BE403543056006E0DD690126A640354338
:103D0000DD6100E000BF00BFF0BD10B52AB9036857
:103D100001248C40A343036004E0036801248C4029
:103D20002343036010BD014609B90020704742F6E5
:103D3000AF70FBE7F0B585B005460C46684600F06D
:103D4000B9F960680090207A012803D102208DF82B
:103D5000040009E0207A022803D103208DF8040032
:103D600002E000208DF80400607A012802D18DF86D
:103D7000070002E000208DF80700A07A08B10120BA
:103D800000E000208DF81100E07A08B1012000E089
:103D900000208DF81000217B094B53F82100694663
:103DA000226800F0B1F9064626B13046FFF7BBFFA6
:103DB00005B0F0BD2F46207B38700020F8E70000EA
:103DC000408B00602DE9F04104460D46164627461B
:103DD0003978054A52F821003246294600F08EFA19
:103DE0000020BDE8F0810000408B006030B5DDE9C7
:103DF000034504B1256030BD30B5DDE9034504B1AC
:103E0000256030BDF0B5DDE9055401F00706102747
:103E100007EA04173E43066002B11360F0BDF0B537
:103E2000DDE9055401F00706102707EA04173E43B1
:103E3000066002B11360F0BD30B5134603290ADDF8
:103E4000446803258D4024EA050203F003048C40F6
:103E50001443446009E0446807258D4024EA0502C4
:103E600003F007048C401443446030BD0EB50020BD
:103E70000E4903460246CDE9001005210C48FFF724
:103E8000C1FF41F2B000094900231A46CDE90010F4
:103E900005210748FFF7AAFF06480068029002AA1A
:103EA0000A210548FFF79AFE0EBD0000D4821F408C
:103EB000E4801F40E087006000801B4010B50122B5
:103EC0000A210248FFF721FF10BD000000801B40BF
:103ED00010B500220A210248FFF717FF10BD0000AD
:103EE00000801B400EB500200E4903460246CDE976
:103EF000001005210C48FFF785FF41F2B000094989
:103F000000231A46CDE9001005210748FFF76EFF90
:103F100006480068029002AA0B210548FFF75EFEE2
:103F20000EBD0000D8821F40E8801F40E48700607B
:103F300000801B4010B501220B210248FFF7E5FE6F
:103F400010BD000000801B4010B500220B2102486C
:103F5000FFF7DBFE10BD000000801B400EB5002007
:103F60000E4903460246CDE9001005210C48FFF733
:103F700049FF41F2B000094900231A46CDE900107B
:103F800005210748FFF732FF06480068029002AAA1
:103F900009210548FFF722FE0EBD0000D0821F4018
:103FA000E0801F40DC87006000801B4010B50122CC
:103FB00009210248FFF7A9FE10BD000000801B4048
:103FC00010B5002209210248FFF79FFE10BD000036
:103FD00000801B4010B5034841680348034A12683B
:103FE000904710BD5C1E002000401840B80F002014
:103FF00010B5034881680348034A1268904710BD12
:104000005C1E002000801840B80F002010B5034847
:10401000C1680348034A1268904710BD5C1E002027
:1040200000C01840B80F002010B5034801690348CC
:10403000034A1268904710BD5C1E00200000194022
:10404000B80F002010B5034841690348034A1268BD
:10405000904710BD5C1E002000401940B80F0020A2
:1040600010B5034881690348034A1268904710BDA0
:104070005C1E002000801940B80F002010B50348D6
:10408000C1690348034A1268904710BD5C1E0020B6
:1040900000C01940B80F002010B50348016A03485A
:1040A000034A1268904710BD5C1E002000001A40B1
:1040B000B80F002010B5044614212046FEF7A3FADD
:1040C0004FF4E1302060002020716071A071E07138
:1040D00020726072A072E07260732073A073E0734C
:1040E0002074607410BD00000146002006E0054AFF
:1040F00052F820208A4200D102E0401C0928F6D361
:1041000000BF7047F88A00602DE9F04F85B0044683
:104110000D469146286802904FF0000A0020049056
:10412000042731E028687843B9FBF0F01FFA80F8E3
:10413000B8F1000F01D14FF0010807FB08F0B9FBFF
:10414000F0F0039029680398A0EB010B08F101003F
:104150007843B9FBF0F02968081A58450BD208F1EA
:1041600001007843B9FBF0F02968A1EB000B08F1DE
:1041700001001FFA80F80298834504D8CDF808B0F2
:10418000BA46CDF810807F1C202FCBD96421286837
:10419000B0FBF1F000EB40010298814204D240F202
:1041A000215005B0BDE8F08F2046FFF79DFF01903C
:1041B0005049019831F91000009003210098FFF751
:1041C00091F800BF00BFA06840F00200A060A068A6
:1041D00020F00200A06000BF2669BAF1030F04D9E5
:1041E000BAF1080F01D246F4003626F0F856AAF1CB
:1041F00001004FF0F85101EA006006436FF30C062E
:104200000498C0F30C0030432061206920F0005076
:104210002061A06940F2177120EA01062879E97B44
:104220004FF4E06202EA01210843A97B042202EA7A
:104230008101084306436879012807D1287910B124
:1042400026F4006606E046F4006603E0287908B12B
:1042500046F01006A661206920F40056E8794FF474
:10426000005101EA403030432061287A697A40EAFF
:104270000140E062A06A40F08800A062A06A40F4B9
:104280004040A0621C4E46F0004646F44046687B23
:10429000102101EA0010297B202202EA4111084383
:1042A000616A08436062A87A012803D1606A40F01D
:1042B00008006062E87A012803D1606A40F00100DA
:1042C0006062A879012802D146F0005601E026F08C
:1042D0000056606930436061A669287C012801D1DD
:1042E00046F40026687C012801D146F48026A661A8
:1042F000002056E72E8B006000001F4030B50C46B2
:10430000134609E000BF456905F40005002DFAD009
:104310002578C561641C5B1E002BF3D130BD000005
:1043200010B50023244C236000BF00BF00BFBFF3C3
:104330004F8F00BF00BF00BF1F4B703B1B6823F4B3
:1043400080331D4C703C236000BF00BF00BFBFF333
:104350004F8F00BF00BF00BF174B1B1F1868C0F373
:104360004E3100BFC0F3C90200BF43F6E07303EA59
:1043700041134FF0404404EA827423430F4C2360FE
:1043800000BF00BF131EA2F10102EED10B1EA1F16E
:104390000101E7D100BF00BF00BFBFF34F8F00BFD7
:1043A00000BF00BF00BF00BF00BFBFF36F8F00BFE3
:1043B00000BF00BF10BD000084ED00E074EF00E01E
:1043C00010B50023244C236000BF00BF00BFBFF323
:1043D0004F8F00BF00BF00BF1F4B703B1B6823F413
:1043E00080331D4C703C236000BF00BF00BFBFF393
:1043F0004F8F00BF00BF00BF174B1B1F1868C0F3D3
:104400004E3100BFC0F3C90200BF43F6E07303EAB8
:1044100041134FF0404404EA827423430F4C23605D
:1044200000BF00BF131EA2F10102EED10B1EA1F1CD
:104430000101E7D100BF00BF00BFBFF34F8F00BF36
:1044400000BF00BF00BF00BF00BFBFF36F8F00BF42
:1044500000BF00BF10BD000084ED00E074EF00E07D
:1044600010B50023234C236000BF00BF00BFBFF383
:104470004F8F00BF00BF00BF231F1868C0F34E312D
:1044800000BFC0F3C90200BF43F6E07303EA411363
:104490004FF0404404EA82742343174C236000BF6A
:1044A00000BF131EA2F10102EED10B1EA1F101010A
:1044B000E7D100BF00BF00BFBFF34F8F00BF00BFF9
:1044C00000BF0C4B703B1B6843F48033094C703CBD
:1044D000236000BF00BF00BFBFF34F8F00BF00BF0E
:1044E00000BF00BF00BF00BFBFF36F8F00BF00BFA2
:1044F00000BF10BD84ED00E060EF00E010B50023C8
:10450000234C236000BF00BF00BFBFF34F8F00BF2D
:1045100000BF00BF231F1868C0F34E3100BFC0F3B7
:10452000C90200BF43F6E07303EA41134FF0404471
:1045300004EA82742343174C236000BF00BF131E9C
:10454000A2F10102EED10B1EA1F10101E7D100BFE2
:1045500000BF00BFBFF34F8F00BF00BF00BF0C4BB9
:10456000703B1B6843F48033094C703C236000BFF0
:1045700000BF00BFBFF34F8F00BF00BF00BF00BF31
:1045800000BF00BFBFF36F8F00BF00BF00BF10BDF3
:1045900084ED00E060EF00E000BF00BF00BFBFF3AC
:1045A0004F8F00BF00BF00BF00BF00BF00BFBFF301
:1045B0006F8F00BF00BF00BF00201449086000BF1C
:1045C00000BF00BFBFF34F8F00BF00BF00BF00BFE1
:1045D00000BF00BFBFF36F8F00BF00BF00BF0C481C
:1045E000006840F400300A49086000BF00BF00BF07
:1045F000BFF34F8F00BF00BF00BF00BF00BF00BFB1
:10460000BFF36F8F00BF00BF00BF704750EF00E0E7
:1046100014ED00E000BF00BF00BFBFF34F8F00BF2D
:1046200000BF00BF00BF00BF00BFBFF36F8F00BF60
:1046300000BF00BF00201449086000BF00BF00BFDA
:10464000BFF34F8F00BF00BF00BF00BF00BF00BF60
:10465000BFF36F8F00BF00BF00BF0C48006840F47D
:1046600000300A49086000BF00BF00BFBFF34F8F92
:1046700000BF00BF00BF00BF00BF00BFBFF36F8F10
:1046800000BF00BF00BF704750EF00E014ED00E036
:104690002DE9F04104460D4643F2215726460020FD
:1046A00030607060B060F060287A3073287A01283A
:1046B00006D106F10800E96800F057F8074600E067
:1046C00000BF00BF3846BDE8F08110B50246134672
:1046D0000C46186810B143F2225010BD002008604B
:1046E0001C60236000BFF8E710B5024613460C4675
:1046F000002008605868401C58602360002010BDEE
:104700002DE9F04104460D4616461F4643F2215856
:1047100075B1207B012807D13A46314604F10800E3
:1047200000F048F8804602E043F2215800BF00BF85
:104730004046BDE8F0812DE9F04104460D4616469D
:104740002746D7F8008033462A4639464046FFF7C9
:10475000D7FFBDE8F08170B504460D4616463246D7
:1047600029462046FFF7E7FF70BD2DE9FF410646C9
:104770000C462546374668680190287A8DF808006F
:10478000687A8DF80900E87A8DF80A00287B8DF8A0
:104790000B0028680090A87A8DF80C00694638460E
:1047A000FFF7C8FA20B143F2215004B0BDE8F08110
:1047B0000020FAE72DE9F04104460D46164627464B
:1047C000324629463846FFF7FDFABDE8F0812DE96B
:1047D000FF4F91B01E464FF00009002700200690C1
:1047E00003900190119D01E1252C05D0E2B2012337
:1047F00006A91398B047F8E0012004904FF0000A92
:104800000020079010E0681C05460478302C08DB77
:10481000392C06DCA4F130000AEB8A0100EB410AD6
:1048200002E06D1E0120079007980028EBD00620BB
:104830000590681C054600782E281AD100200590A6
:10484000079012E0681C05460478302C0ADB392CEE
:1048500008DCA4F13000059901EB810100EB410077
:10486000059002E06D1E0120079007980028E9D00E
:1048700000E06D1E681C05460478642C11D0692C7C
:104880000FD0662C0DD0462C0BD0782C09D0582C8C
:1048900007D06F2C05D0622C03D0702C01D0752C62
:1048A00070D1642C01D0692C11D11298006802904B
:1048B0001298001D129004980A23012202A9009068
:1048C00008A8FFF77FF8074608A800EB0709582C4F
:1048D00001D0782C15D1782C01D1002004901298A9
:1048E000006801901298001D129004981023002275
:1048F00001A9009008A8FFF765F8074608A800EB93
:1049000007096F2C05D0622C03D0702C01D0752CB8
:1049100022D11298006801901298001D12906F2CFD
:1049200002D1082003900BE0622C02D102200390F8
:1049300006E0702C02D11020039001E00A200390C1
:1049400004980090002201A908A8039BFFF73AF8F9
:10495000074608A800EB0709AAEB0703202206A9CF
:104960001398B047B9F1000F3ED005E019F80129BE
:10497000012306A91398B04799F800000028F5D143
:1049800032E0FFE7632C0BD1129810F8041B01F002
:10499000FF0B12905A46012306A91398B04723E053
:1049A000732C1CD1129850F8048B1290B8F1000FA0
:1049B0001AD04046FDF732FE0746AAEB0703202235
:1049C00006A91398B04705E018F8012B012306A9A2
:1049D0001398B04798F800000028F5D104E0E2B23F
:1049E000012306A91398B04700BF6D1C2878041E48
:1049F0007FF4FAAE069815B0BDE8F08F10B52D48DB
:104A0000006840F470002B4908602B48008920F0B2
:104A10000100294908812948008920F0010027491F
:104A200008812548008800F0040028B12248008849
:104A300020F00400204908802048008800F004008D
:104A400028B11E48008820F004001C4908801C483A
:104A50001C4948604FF6FF7088600846006820F0E7
:104A6000800040F0200008604FF0E020006900F076
:104A7000010038B14FF0E020006920F001004FF054
:104A8000E02108610B487438006800F40030B0F58C
:104A9000003F01D0FFF7BEFD06487438006800F4FF
:104AA0008030B0F5803F01D0FFF728FD00F00CF812
:104AB00010BD000088ED00E000800B4000000D40BC
:104AC00020C528D900C00B4070470000F8B5054646
:104AD0000E46684603F00AF9002414E0C4EBC40053
:104AE0001A4901EB0010006860B1C4EBC40001EB8F
:104AF000001090F86D00A84204D1009803F000F96E
:104B00000120F8BD641C002CE8D0002417E0C4EBA1
:104B1000C4000E4901EB0010006878B9C4EBC40072
:104B200001EB001080F86D50C4EBC40001EB0010E5
:104B30003060009803F0E4F80020E2E7641C002CE9
:104B4000E5D0009803F0DCF80220DAE7F81E002038
:104B50002DE9F04780460F4614464FF001092546DF
:104B600026460C2F4FD008DC012F0DD0092F1AD06C
:104B70000A2F32D00B2F54D13EE00D2F4AD0152FE3
:104B800038D0162F4DD136E0002028490872C8725F
:104B90000931022001F02AF920B92448417A40461F
:104BA00002F04AFE3EE0307820B900201F4908722A
:104BB000C87211E0307801280CD11C490872307895
:104BC000C8721B494B8819491A4A4868032100F0EA
:104BD00046FC01E04FF0050924E01448007A40B19A
:104BE0002A88100A2978022802DA104A0C32115455
:104BF00000BF17E016E015E024B12146404602F060
:104C0000D1FB81460EE024B12146404602F0AAFBCA
:104C1000814607E024B12146404602F017FC814658
:104C200000E000BF00BF4846BDE8F087101000203C
:104C30004E0E002020100020024600210DE001EB66
:104C40000110084B53F8200030B901EB011003EBC1
:104C50008000106000207047491C0029EFD002201E
:104C6000F9E700009C1E00202DE9F04180460E4629
:104C7000154601272C4614B90320BDE8F081002118
:104C8000A177606848B16068006830B160683246FA
:104C9000012103682046984707463846EDE72DE98D
:104CA000F04180460E46154601272C4614B90320D4
:104CB000BDE8F08100212E200155606848B1606890
:104CC000006830B160683246022103682046984788
:104CD00007463846ECE770B5054601262C460CB968
:104CE000032070BD206903F01DF8206A03F01AF854
:104CF000206B03F017F8204600F006F80646204621
:104D000000F055FB3046ECE770B504460126A0687C
:104D100008B1E06808B9304670BD00250AE0A26815
:104D2000926805EB450312F81310206801F0B3FAFE
:104D300006466D1CA0680079A842F0D800250AE05C
:104D4000E268926805EB450312F81310206801F041
:104D5000A2FA06466D1CE0680079A842F0D800204F
:104D6000A060E0603046D7E72DE9F04186B0044608
:104D700000254FF001081CB9404606B0BDE8F0819F
:104D800094F8400030B194F840006168896849792E
:104D9000884201DD4046F0E760688068016894F869
:104DA0004000401E01EBC006002032E000EB400254
:104DB000716811F8221002292AD1002116E000EBB7
:104DC0004003726802EB8302526802EB0112127810
:104DD00094F842309A4208D100EB4003726802EB2B
:104DE0008302526802EB011508E0491C00EB400306
:104DF000726802EB8302127A8A42E0D800BF00EBAD
:104E00004002716801EB8201C97884F8411003E027
:104E1000401C31788142C9D800BF0DB94046ACE78B
:104E2000A560002744E000208DF8140007EB47013F
:104E3000A86800EB410000798DF8150007EB4701E9
:104E4000A86810F811008DF8120007EB4701A86858
:104E500000EB41004088ADF8100007EB4701A8685F
:104E600000EB410040788DF813009DF812000121FD
:104E7000B1EBD01F14D19DF81300032810D19DF879
:104E8000120000F00F013D20015500213E20015588
:104E9000491E616300213C200155A16350480190E7
:104EA000029401AA04A9206802F091FB80467F1CAD
:104EB0002879B842B7D800202AE000EB4002716898
:104EC00011F822100A2922D1002116E000EB40033C
:104ED000726802EB8302526802EB0112127894F8B6
:104EE00042309A4208D100EB4003726802EB830221
:104EF000526802EB011508E0491C00EB40037268A0
:104F000002EB8302127A8A42E0D800BF03E0401C21
:104F100031788142D1D800BFE56000275BE00020F6
:104F20008DF8140007EB4701A86800EB41000079F9
:104F30008DF8150007EB4701A86810F811008DF8EF
:104F4000120007EB4701A86800EB41004088ADF86C
:104F5000100007EB4701A86800EB410040788DF88E
:104F600013009DF812000121B1EBD01F12D19DF862
:104F7000130002280ED19DF8120000F00F01617796
:104F80000021A177491E616100212177A1611548A7
:104F9000019018E09DF81200C009A0B99DF8130017
:104FA000022810D19DF8120000F00F012D200155AC
:104FB00000212E200155491E616200212C2001553F
:104FC000A16209480190029401AA04A9206802F094
:104FD000FEFA80467F1C2879B842A0D84046CCE62D
:104FE00027540060694C00609F4C00602DE9F04F31
:104FF00089B00746894616464FF0010806B11FB929
:10500000032009B0BDE8F08F3C46B9F1070F77D215
:10501000DFE809F076FE040821418600002084F8CC
:105020004000C1E13546606800B9BDE1287894F8D8
:105030004010884200D1B7E12046FFF765FE804668
:10504000287884F84000002084F842002046FFF7CA
:105050008BFE8046A8E1606800B9A5E1B6F800A023
:105060000AF0FF00049094F84100B0EB2A2F00D022
:105070009AE194F842100498814200D194E12046CC
:10508000FFF742FE8046049884F842002046FFF76E
:105090006BFE804688E1606818B1A06808B1E068DE
:1050A00000B981E135464FF0000B12E0A06880683E
:1050B0000BEB4B0110F811002978884207D1012130
:1050C0003C2001552978206802F0DCFC80460BF179
:1050D000010BA06800795845E8D84FF0000B1AE0A2
:1050E000E06880680BEB4B0110F8110029788842CA
:1050F0000FD128780121B1EBD01F02D1217703E035
:1051000051E101212C2001552978206802F0BAFCD8
:1051100080460BF1010BE06800795845E0D843E187
:10512000606818B1A06808B1E06800B93CE1354694
:105130004FF0000B3BE0A06880680BEB4B0110F8D0
:1051400011002978884230D12978206802F00BFDBF
:10515000804628780121B1EBD01F26D13C20005D8C
:1051600018B300213C200155606BB0F1FF3F1CD00B
:1051700094F83D10D4E90D23206802F04CFB8046E2
:10518000B8F1000F0CD0606B0190A06B0290002072
:105190008DF80C003A4601A92068FFF765FD00BFB5
:1051A0004FF0FF3161630021A1630BF1010BA06897
:1051B00000795845BFD84FF0000B63E0E068806885
:1051C0000BEB4B0110F811002978884258D129784F
:1051D000206802F0C8FC804628780121B1EBD01F7E
:1051E00027D1207F00284BD0002121776069B0F1C2
:1051F000FF3F45D0617FD4E90523206802F00BFB17
:105200008046B8F1000F0ED060690190A06900E0FF
:105210003DE0029000208DF80C003A4601A920687C
:10522000FFF722FD00BF4FF0FF3161610021A16156
:1052300026E02C20005D18B300212C200155606A67
:10524000B0F1FF3F1CD094F82D10D4E90923206859
:1052500002F098FA8046B8F1000F0CD0606A019015
:10526000A06A029000208DF80C003A4601A920683F
:10527000FFF715FD00BF4FF0FF3161620021A16211
:105280000BF1010BE0680079584597D88CE0002EAF
:1052900071D0B346DBF80000007994F841108842E1
:1052A00000D081E0DBF80000007800F060002028EA
:1052B00077D10BF104000590001D0690DBF800008B
:1052C0008088ADF81C00DBF800004088ADF81E00B7
:1052D0009BF80C008DF82000DBF8000040780428D3
:1052E00031D007DC78B1012815D002281BD0032863
:1052F00053D120E0202836D021282CD022283BD0A2
:1053000023284AD140E0606805AA042103682046AA
:105310009847804644E0606805AA05210368204656
:10532000984780463CE0606805AA0621036820464D
:105330009847804634E0606805AA07210368204644
:10534000984780462CE0606805AA0821036820463B
:105350009847804624E0606805AA09210368204632
:10536000984780461CE0606805AA0A210368204629
:105370009847804614E015E0606805AA0B21036891
:105380002046984780460BE0606805AA0C21036818
:1053900020469847804603E003E04FF0050800BF31
:1053A00000BF00BF00E000BF00BF404629E6014645
:1053B00000200860486081F8400081F84200704792
:1053C000F8B507460D46164601246846FFF734FC3B
:1053D00004460CB12046F8BD3846009900F096FC12
:1053E00004460CB12046F6E70098006808B903208F
:1053F000F1E7009845600020009981F84000FF2007
:10540000009981F842000098103002F081FC009869
:10541000203002F07DFC0098303002F079FC0098DA
:1054200030602046D7E72DE9F04180460E4615460C
:1054300001272C4614B90320BDE8F08100213E204D
:105440000155606848B16068006830B160683246F4
:10545000032103682046984707463846ECE72DE9C4
:10546000F0470546894616461F464FF0010815B914
:105470000320BDE8F0872C462E20005D012801D1D5
:105480000220F6E701212E2001552C20005D18B1E5
:105490006662A7620020ECE73B4632464946206838
:1054A00002F070F98046B8F1000F02D000212E20E2
:1054B00001554046DDE72DE9F04706460F46904688
:1054C00099464FF0010A002416B90320BDE8F08781
:1054D0003546687FB84202D105F1100405E03D2051
:1054E000405DB84201D105F13004D4B1A07B012860
:1054F00001D10220EAE70120A073207B28B1C4F883
:105500000480C4F808900020E0E74B464246394644
:10551000286802F080F98246BAF1000F01D000201D
:10552000A0735046D2E700002DE9F84F06460F461B
:105530009046012000907C4C4546C2460D2F72D209
:10554000DFE807F0EC071E363B3C3D5B72737C895D
:10555000EB00DAF8040078B174494988DAF80400FD
:10556000B0FBF1F201FB120030B900231A46022110
:105570003046FFF7A0FF009001206D490860CEE0A3
:105580006C48007A012812D16A48807A01280ED12D
:105590006949DAF8040008600846006838B96348C9
:1055A0004388664A03213046FFF759FF0090B6E072
:1055B000002086F843000090B1E0B0E0AFE06889D9
:1055C00001280AD1287B012803D15D482968086099
:1055D00010E00020696808600CE06889022809D1A1
:1055E000287B012803D157482968086002E0002081
:1055F000696808600020009091E06889012806D160
:105600004F482968086002206968086008E06889D6
:10561000022805D14B4829680860022069680860A3
:10562000002000907BE079E079E047482968086035
:105630000720696808600020009070E0287B01283E
:1056400003D141482968086002E0002069680860C9
:105650000020009063E0A87A33498873A07B00F0B3
:10566000020020B1208A40F00200208204E0208A5B
:105670004FF6FD7108402082A07B00F0010020B1B0
:10568000208A40F00100208204E0208A4FF6FE715B
:1056900008402082A07B00F00100A072A1202070B1
:1056A000202060700020A070E070207160710220E6
:1056B000A0710020E071287A207104F10809207C93
:1056C00089F80000208A000A89F801004FF00A0BCF
:1056D00096F8430070B95B46224601213046FFF739
:1056E000EAFE0090009810B118A0FEF72BFA0120F6
:1056F00086F84300A07B00F0010030B10D48007A2D
:10570000012809D10B49887206E00A48007A01286D
:1057100002D100200749887201E000E000BF00BF0D
:105720000098BDE8F88F0000201200204E0E0020E7
:105730007C0F002010100020780F00202010002087
:10574000880F00208C0F0020800F00206B555342E3
:105750005F4465766963654364634576656E74533B
:105760006574436F6E74726F6C4C696E65537461CF
:105770007465206572726F7221000000F8B50446EE
:105780000F4615461E466A460621206801F014FEA3
:105790009DF80000012804D09DF8000008B1052004
:1057A000F8BD0120306004F10C00286004F10C0207
:1057B0001521206800F00CFAF2E72DE9FF470446B6
:1057C0000D46174698464FF0050A6888060A95F870
:1057D00002906A460621206801F0EEFD9DF8000067
:1057E00001280AD09DF8000038B19DF80000022879
:1057F00003D0504604B0BDE8F087E8880290012E3F
:1058000006D101AA0B21206800F0E2F9824617E0D8
:10581000022E08D18DF80C9001AA0C21206800F00E
:10582000D7F982460CE0032E0AD18DF80E90A88895
:10583000ADF80C0001AA0D21206800F0C9F98246DC
:10584000019838600298C8F800005046D2E72DE968
:10585000F84304460D4616461F464FF005086A46B3
:105860000621206801F0A8FD9DF8000010B1404617
:10587000BDE8F8830120386004F10C00306028791D
:105880000002A08104F10C021621206800F0A0F9AA
:105890008046A089A0814046EAE72DE9FC41044604
:1058A0000D4617461E464FF0050801AA062120683E
:1058B00001F082FD9DF80400012805D09DF8040048
:1058C00010B14046BDE8FC81287800F01F0078B98F
:1058D00004F10C020421206801F06EFD8046207B5B
:1058E00000F00300A081A089A0810220306026E0A2
:1058F000287800F01F00012806D14FF00008002092
:10590000A081022030601AE0287800F01F000228F1
:1059100015D128798DF800000020ADF802006A4604
:105920000521206801F048FD8046BDF8020000F026
:105930000300A081A089A0810220306000BF04F193
:105940000C0038604046BDE72DE9F84304460D469B
:105950001746984605266A460621206801F02CFD68
:105960009DF8000003280DD09DF80000012809D003
:105970009DF80000022805D09DF8000010B13046C7
:10598000BDE8F8839DF80000032808D0A8780090AF
:105990006A460721206802F01BF806460EE0002246
:1059A0000721206802F014F806463EB90120009055
:1059B0006A460621206802F00BF806463046DFE70B
:1059C0002DE9FC4105460C46174698460526002061
:1059D000009001AA0621286801F0EEFC9DF8040061
:1059E000012805D09DF8040010B13046BDE8FC81C7
:1059F0006078032801D101200090207800F01F007A
:105A000048B9608801282DD16A461421286800F021
:105A1000DFF8064626E0207800F01F00022821D19A
:105A20006088F8B9207900F00F0058B99DF800009F
:105A300020B12179286802F025F803E0217928684F
:105A400002F091F89DF8000030B1221D0521286870
:105A500000F0E0F8064605E0221D0621286800F067
:105A6000D9F806463046C1E7F8B504460D46164655
:105A70001F466A460621206801F09EFC9DF8000042
:105A8000012804D09DF8000008B10520F8BD0020D1
:105A900000906A460621206801F09AFF688830B9B4
:105AA000012000906A460621206801F091FFAA1C9F
:105AB0000321206800F0AEF8AA1C0921206800F03C
:105AC00087F8E3E7F8B504460D4616461F466A46D2
:105AD0000621206801F070FC9DF8000008B1052047
:105AE000F8BD2979688861F31F20A08104F10C02B8
:105AF0000421206800F08EF804F10C020A212068CD
:105B000000F066F8ECE72DE9F84304460D4616462A
:105B10001F464FF005086A460621206801F04CFC3C
:105B20009DF8000010B14046BDE8F883A888A08128
:105B300004F10C020821206801F03EFC804604F1CB
:105B40000C003060022038604046EDE7F8B50546AD
:105B50000E46684602F0CAF8002410E01A4800EB2E
:105B60000410006850B1184800EB0410807BA84274
:105B700004D1009802F0C4F80120F8BD641C002C88
:105B8000ECD0002419E0104800EB0410006898B92C
:105B90000D4800EB041085730C4800EBC4000A4963
:105BA00001EB04118860084800EB04103060009895
:105BB00002F0A6F80020E0E7641C002CE3D0009877
:105BC00002F09EF80220D8E7E01E0020F01E002020
:105BD000F8B506460C46174601256946304600F0E2
:105BE000E3F805460DB12846F8BD012C08D1304632
:105BF000009900F009FB02213046009A00F00AF8F3
:105C0000009840683A462146436830469847054622
:105C10002846E9E72DE9F84F8046894617460126D0
:105C2000B24617B90420BDE8F88F6946404600F037
:105C3000BBF806460EB10420F5E700242EE000254F
:105C400027E000984068006804EB440100EB810005
:105C500080680079154901EB0511097B884216D14E
:105C600000994968096804EB440201EB8201486825
:105C70000E4901EB05113A468B684946984706469E
:105C8000052E00D1CFE70EB94FF0000A03E0681CE3
:105C9000C5B2022DD5D300BF601CC4B200984068C5
:105CA000007AA042CBDC5046BDE70000488A006085
:105CB00038B505460024684602F018F81DE0124881
:105CC00000EB04100068B8B10F4800EB0410807BB3
:105CD000A84211D100200C4901EB041108600A49C7
:105CE00001EB04114860084901EB04118873009826
:105CF00002F006F8002038BD641C002CDFD00098AC
:105D000001F0FEFF0420F6E7E01E0020F8B505468E
:105D10000E460024684601F0E9FF15E00E4800EB4E
:105D20000410006878B10C4800EB0410807BA84296
:105D300009D1094800EB041000683060009801F0B8
:105D4000DFFF0020F8BD641C002CE7D0009801F0B4
:105D5000D7FF0420F6E70000E01E0020F8B5054656
:105D60000E460024684601F0C1FF14E00D4800EB28
:105D70000410006870B10B4800EB0410807BA8424F
:105D800008D1084800EB04103060009801F0B8FF1B
:105D90000020F8BD641C002CE8D0009801F0B0FF92
:105DA0000420F6E7E01E0020F8B505460E46002464
:105DB000684601F09BFF0FE00B4800EB0410006801
:105DC000A84208D1084800EB04103060009801F0A8
:105DD00097FF0020F8BD641C002CEDD0009801F066
:105DE0008FFF0420F6E70000E01E0020F8B506460D
:105DF0000C46012569463046FFF7B0FF05460DB158
:105E00002846F8BD009922460868022101F0D4FA1C
:105E100005462846F5E700002DE9F84381460D4682
:105E200017464FF0010817B10DB1686810B904208A
:105E3000BDE8F88369464846FFF788FE8046B8F11A
:105E4000000F01D04046F3E70098456024494846DA
:105E5000009A01F039FB8046B8F1000F08D0009994
:105E6000086800F005FA4846FFF722FF4046DFE7E2
:105E700000242BE0002625E000984068006804EB31
:105E8000440100EB810080680079164901EB06119E
:105E9000097B884214D100984068006804EB440CE8
:105EA00000EB8C00021D00984068006804EB440C75
:105EB00000EB8C010B4800EB06100368484698473E
:105EC000701CC6B2022ED7D3601CC4B200984068C2
:105ED000007AA042CEDC0098006838604046A7E710
:105EE000D15B0060488A006008B5084800680090EF
:105EF00007490020FDF76EFA05490020FDF736FA44
:105F00006A460449022001F09DFE08BD688A0060CF
:105F100000389C1C00366E012DE9F04105460E4606
:105F200017462C464FF0010814B90320BDE8F08154
:105F3000606838B1D4E900013A464B693146984768
:105F4000804601E04FF006084046EFE72DE9F047B4
:105F500088B082460D4617460020079006904FF005
:105F600005096868B0F1FF3F00D01FB9484608B086
:105F7000BDE8F087B8464746D8F8084005AA06218C
:105F8000504601F019FA287A002870D0686808286D
:105F900001D1286808B94846E9E72E687088608012
:105FA000B088A080F088E0807078607030782070D1
:105FB000207800F0600090B960780D280ED26078EB
:105FC0006F4951F82000002808D0607851F820C0AF
:105FD00006AB07AA21464046E047814678E0E088C4
:105FE000002845D0207800F08000002840D1E088CB
:105FF000B8B1207800F02000202812D100200290B3
:1060000001208DF810000194E088039001AA01217D
:106010005046FFF7FFFD81460398069002980790CF
:1060200019E0E088B8B1207800F04000402812D193
:106030000020029001208DF810000194E088039068
:1060400001AA13215046FFF7C3FD8146039806902D
:106050000298079000BFB9F1000F39D1E388002101
:106060005046079A01F08EFB814648467FE73BE0A9
:10607000207800F02000202812D10020029001207A
:106080008DF810000194E088039001AA0121504688
:10609000FFF7C0FD8146039806900298079017E02D
:1060A000207800F04000402812D10020029001200A
:1060B0008DF810000194E088039001AA1321504646
:1060C000FFF786FD8146039806900298079000BF6F
:1060D00006A807A900234A46CDE9001021465046EC
:1060E00000F050F8814649E09DF8140003280AD1D9
:1060F0006078234951F8206006AB07AA2146404644
:10610000B04781463AE06868C0B3E088B0B3207811
:1061100000F0800090BB207800F0200020280ED1F5
:106120002868029000208DF81000019468680390A0
:1061300001AA01215046FFF76DFD814613E020784A
:1061400000F0400040280ED12868029000208DF811
:10615000100001946868039001AA13215046FFF7CC
:1061600037FD814600BF06A807A901234A46CDE9AD
:1061700000102146504600F005F881464846F6E6F4
:10618000148A00602DE9F05F81460C4616461F46D2
:10619000DDE90AA54FF00108C346052E14D1207889
:1061A00000F0600040B1207800F0800020B9E08865
:1061B00010B10FB94FF0000B4FEACB70010E4846FB
:1061C00001F060FC80461CE0E1882868884201D923
:1061D000E08828602B6800214846DAF8002001F0AA
:1061E0001AFB8046B8F1000F0BD1207800F0800038
:1061F000802806D100231A461946484601F0C2FA03
:1062000080464046BDE8F09F70B586B006460D4614
:1062100016480190029501208DF8140000208DF899
:1062200013008DF8150080208DF812004020ADF885
:10623000100001AA04A9304601F0C9F9044614B1BE
:10624000204606B070BD00208DF8120001AA04A9F6
:10625000304601F0BCF904462CB18021304600F0F4
:106260001AF82046EDE70020EBE700004D5F0060E4
:1062700070B505462C460CB9032070BD606828B186
:10628000D4E900025168884700206060204601F090
:106290005BF80020F1E72DE9F341064634469DF80E
:1062A000040000F00F059DF80400C7094FF0010835
:1062B00014B90320BDE8FC8101AA03213046FFF791
:1062C0002BFE8046042D1ED20021680647EA10608E
:1062D00000EB400204F10C0040F82210680647EA87
:1062E000106000EB400204F10C0000EB8200416002
:1062F000680647EA106000EB400204F10C0000EB76
:106300008200017201E00420D4E74046D2E72DE983
:10631000FF4780460F46444607F00F0007F0800114
:1063200000EBD101012000FA01F93807C00E40EA64
:10633000D716B8F1000F03D1032004B0BDE8F087F1
:10634000684601F0D3FC00200190401E029004F149
:10635000140050F8260020F01F0508E0E86920F03E
:10636000004000F10040E861286820F01F05002D82
:10637000F4D104F1140050F8260020F01F0568E065
:10638000E869C00F00B966E0686800F08000B8B145
:1063900000BF6068D0F8B40140EA09006168C1F844
:1063A000B40100BF6068D0F8B40100EA0900002819
:1063B000F8D16068D0F8B80100EA09000028E8D1F7
:1063C000019820B9A98BA86861F30B00019004F132
:1063D000140050F82610203050F82600814208D1D1
:1063E000002104F1140040F82610203040F8261057
:1063F00008E004F1140050F82600016804F11400CC
:1064000040F826106868C0F3C03030B904F11400B9
:1064100050F8260020F01F0050B98DF80C700020B5
:106420008DF80D0001A9206801F098F90020019075
:106430000020686020692860256194F85400401CA1
:1064400040B284F8540004F1140050F8260020F003
:106450001F05002D94D100BF4DB90120A16801EBAB
:10646000861188600020A16801EB8611C860009841
:1064700001F046FC002060E72DE9FE4304460F468C
:10648000904608EB470500200090019004F11400AD
:1064900050F8250020F01F066BE0009830B9B06876
:1064A000B28B014662F30B01009100BF706800F0EF
:1064B000800018B14FF0FF30019009E0F069C0F39F
:1064C00012307168C1F30E41401A019908440190DD
:1064D00004F1140050F82510203050F825008142B6
:1064E00012D1002104F1140040F82510203040F8AA
:1064F00025100120A16801EB851188600020A168AA
:1065000001EB8511C86008E004F1140050F8250083
:10651000016804F1140040F825107068C0F3C03021
:1065200030B904F1140050F8250020F01F0078B9AC
:106530004FEAC87047EA10608DF8080000208DF817
:1065400009006946206801F009F9002000900190D7
:106550000020706020693060266194F85400401C6F
:1065600040B284F8540004F1140050F8250020F0E3
:106570001F06002E91D1BDE8FE832DE9F05F804615
:106580008946144645464FF0010BB8F1000F02D181
:106590000320BDE8F09FB9F1120F70D2DFE809F0D7
:1065A00009141F262E363E477782A3A3A3A3839800
:1065B000A1A26868D0F8400140F001006968C1F804
:1065C00040014FF0000B8FE06868D0F8400120F0E8
:1065D00001006968C1F840014FF0000B84E024B16C
:1065E0002146284600F00CF983467DE02CB1264672
:1065F0003178284600F0AEF8834675E02CB1264687
:106600003178284600F0CDF983466DE02CB126465E
:106610003178284600F014FA834665E034B1A2468A
:1066200001205446AAF800004FF0000B5CE03CB398
:106630002046037803F00F010378DA09042924D2F5
:1066400089B16B6803F5E2734F1E53F8273012B11E
:106650004FF4803700E001273B400BB1012300E0FD
:10666000002343800FE06B68D3F8C03112B14FF4C0
:10667000803700E001273B401BB1012302E032E0FC
:1066800004E0002343804FF0000B00BF2CE044B136
:1066900026463446307840066968C1F854014FF008
:1066A000000B21E020E000270AE047F080012846A7
:1066B00000F050F83946284600F04CF8781CC7B274
:1066C000042FF2D3284600F08DFC4FF0000B0BE0B6
:1066D00034B1264695F85800344630704FF0000B20
:1066E00002E001E000E000BF00BF584651E70000B3
:1066F00010B5024611460AB9032010BD00200DE076
:10670000C0EBC00303EB0013104C04EB83038B427C
:1067100002D100230E4C2354431CD8B20028EFD0E2
:1067200000204B68C3F848014868D0F8400120F0C9
:1067300001004B68C3F840014868D0F8400140F0C0
:1067400002004B68C3F840010020D6E7001E00207D
:10675000A80F00202DE9F04704460D4605F00F0074
:1067600005F0800100EBD101012000FA01F905F0EC
:106770000F06EF0947EA4608A06800EB8810806B17
:1067800020F00100A16801EB8811886329462046AA
:10679000FFF7BDFD6068D0F8B00100EA090028B934
:1067A0006068D0F8B80100EA090010B10220BDE825
:1067B000F0870020A16801EB8811086066B9606865
:1067C000D0F8C00117B14FF40C0100E08C218843D0
:1067D0006168C1F8C00111E0606800F5E270711EE7
:1067E00050F8210017B14FF40C0100E08C218843D0
:1067F000616801F5E271721E41F822000020D6E7BF
:106800002DE9F05F04460E46B07800F00F00B17835
:1068100001F0800100EBD101012000FA01FA30887B
:10682000C0F30A0BB07800F00F07B0784FEAD01928
:1068300049EA4705F07800F00308B1782046FFF7F1
:1068400066FD6068D0F8B00100EA0A0028B9606807
:10685000D0F8B80100EA0A0010B10220BDE8F09FAC
:10686000B8F1010F12D1BBF5806F01D94FF4806BE5
:106870003088C00A401CA16801EB8511096860F3EB
:106880009F71A06800EB8510016009E0A06800EB33
:106890008510006820F04040A16801EB8511086078
:1068A000A06800EB851000686BF31A40A16801EB4B
:1068B000851108603179A06800EB8510806B61F369
:1068C0004100A16801EB8511886367B9A06800EBFE
:1068D0008510006820F0005000F10050A16801EB25
:1068E000851108600EE0307908B9012100E000212F
:1068F000A06800EB8510006861F35D70A16801EB92
:1069000085110860F7B9A06800EB8510006820F4D5
:10691000004000F50040A16801EB85110860606847
:10692000D0F8C011B9F1000F04D04FF4400040EA94
:10693000884002E0C02040EA880001436068C0F857
:10694000C01121E0A06800EB8510006820F4004031
:10695000A16801EB85110860606800F5E270791E9E
:1069600050F82110B9F1000F04D04FF4400040EA74
:10697000884002E0C02040EA88000843616801F5D1
:10698000E2717A1E41F82200A06800EB8510806B4E
:1069900020F00100401CA16801EB851188630020F4
:1069A0005CE72DE9F04104460E4606F00F05F709B5
:1069B00047EA450831462046FFF7A9FCA06800EBEE
:1069C00088100068C0F3C030B8B145B96068D0F82D
:1069D000C00140F001106168C1F8C0012DE060689D
:1069E00000F5E270691E50F8210040F00112606865
:1069F00000F5E27040F821201FE065B96068D0F82A
:106A0000C00117B14FF4803100E0012108436168F3
:106A1000C1F8C00111E0606800F5E270691E50F82D
:106A2000210017B14FF4803100E001210843616873
:106A300001F5E2716A1E41F822000020BDE8F081F4
:106A40002DE9F04104460E4606F00F05F70965B939
:106A50006068D0F8C00117B14FF4803100E0012127
:106A600088436168C1F8C00123E0606800F5E27006
:106A7000691E50F8210017B14FF4803100E0012168
:106A80008843616801F5E2716A1E41F8220060687E
:106A900000F5E270691E50F8211017B14FF4800024
:106AA00000E040200143606800F5E2706A1E40F893
:106AB000221031462046FFF72AFC0020BDE8F08175
:106AC00030B50123002444EA4104E2B201248C40A1
:106AD0004568C5F8AC411EE04468D4F8404144F430
:106AE00000544568C5F84041846804EB8214A46AE8
:106AF000856805EB82152C63846804EB8214E56AD3
:106B0000846804EB821465634468D4F8404104F45B
:106B1000005404B10023002BDED14468D4F8404176
:106B200024F400544568C5F8404130BDFEB5054623
:106B30000E461746224803C8CDE90101022D02DBAB
:106B4000A81E022801D30620FEBD684601F01CF8ED
:106B500004461C489DF8001000EB4120E0609DF8C1
:106B60000000194901EBC020A06084F85750A81E0E
:106B700001A951F8200060606068D0F8240100F09D
:106B80001F0084F8550094F85500042801D2012014
:106B9000DAE726606068D0F8A80120F00300616899
:106BA000C1F8A8016068D0F8A80140F0020061684F
:106BB000C1F8A801204600F015FA3C600020C3E7A8
:106BC000A48A0060001C0020001800203EB5044686
:106BD0000020009001908DF809006068D0F88401D1
:106BE00000F48070C8B96068D0F8840100F40070C7
:106BF00018B1022084F8580002E0002084F8580000
:106C000094F8560048B110208DF8080069462068B5
:106C100000F0A4FD002084F856003EBD3EB50446B9
:106C200000256068D0F8AC516068C0F8AC5160686D
:106C3000D0F8BC516068C0F8BC5100BF4FF0FF10E5
:106C40006168C1F8B4016068D0F8B00100F0FF10CD
:106C50000028F3D16068D0F8840100F4807018B186
:106C6000012084F856000DE00020009010208DF8DF
:106C70000800002001908DF809006946206800F0A6
:106C80006DFD00BF3EBD70472DE9FF5F04466068A3
:106C9000D0F8ACB1BBF1000F32D000272EE00120BC
:106CA000B84000EA0B0038B37806000EA16801EB8B
:106CB000801030300090009800784FEAD01842469B
:106CC00039462046FFF7D8FB88F0010239462046B6
:106CD000FFF7D2FB8DF80C7000980190082002900D
:106CE00001208DF80D0039462046FFF7E9FE01A985
:106CF000206800F033FD00BF781CC7B2042FCED34C
:106D00006068D0F8BCB16068C0F8BCB1BBF1000FDE
:106D100071D04FF0000913E1012000FA09F000EAF8
:106D20000B00002868D0B9F10F0F05D9A9F11000A8
:106D3000C7B24FF0010802E04F464FF00008042FA1
:106D400000D3F9E008EB4700C6B2002001900290A2
:106D5000EFB9B8F1010F1AD1A06800EB861090F8D6
:106D60003800C0F3400090B1A06800EB86100068C6
:106D7000C0F3407058B9A06800EB8610006820F09E
:106D8000005000F10050A16801EB8611086004F189
:106D9000140050F8260020F01F05C8E000200090E5
:106DA00004F1140050F8260020F01F0515E0686873
:106DB00000F0800018B96868C0F3C03050B168684E
:106DC00000F0800028B96868C0F3C03008B1012025
:106DD000009004E0286820F01F05002DE7D100BFD7
:106DE000009808B905B1A5E004F1140050F8260098
:106DF00020F01F0596E0A7E09DE0686800F08000A5
:106E000000B192E0019820B9A98BA86861F30B004A
:106E10000190E869C0F312306968C1F30E41401A6D
:106E200002990844029004F1140050F82610203012
:106E300050F82600814212D1002104F1140040F8DC
:106E40002610203040F826100120A16801EB8611A1
:106E500088600020A16801EB8611C86008E004F199
:106E6000140050F82600016804F1140040F82610C0
:106E70006868C0F3C03030B904F1140050F826003F
:106E800020F01F0078B94FEAC87047EA10608DF80B
:106E90000C0000208DF80D0001A9206800F05EFCB8
:106EA0000020019002900020686020692860256120
:106EB00094F85400401C40B284F8540004F11400CB
:106EC00050F8260020F01F0565B3686800F08000C8
:106ED00040B3102000FB0871012000FA01FA60683D
:106EE000C0F8B0A16068D0F8B80100EA0A00C8B9DB
:106EF00000BF6068D0F8B00100EA0A000028F8D1AD
:106F00006068D0F8B80100EA0A0058B9A06800EB40
:106F1000861085600020A16801EB8611C86060685A
:106F2000C0F8B0A1002D7FF468AF00BF00BF002DF6
:106F30007FF434AF00BF00BF09F1010000F0FF098A
:106F4000B9F1200FFFF4E8AEBDE8FF9F2DE9F04155
:106F5000064637460EB9BDE8F0813D686868D0F84E
:106F600044416868D0F8480104406868C0F844416A
:106F700004F0400010B12846FFF750FE04F0010075
:106F800010B12846FFF780FE04F0040010B1284637
:106F9000FFF71CFE04F0800010B12846FFF773FED7
:106FA00000BFD8E72DE9F04105460C4616461F46BE
:106FB00004F00F013B463246284600F07BF8BDE85E
:106FC000F0812DE9F04105460C4616461F4604F0B7
:106FD0000F0040F080013B463246284600F06AF838
:106FE000BDE8F08110B5C16801610269012105E0C9
:106FF000C36803EB411313601268491C1029F7D3CF
:1070000000211160102180F854104168D1F840111E
:1070100021F47F014368C3F840114168D1F8401161
:107020004368C3F840114168D1F8A81141F0080144
:107030004368C3F8A8114168D1F8A81121F00401F0
:107040004368C3F8A811002122E00123846804EBFF
:107050008114A3604024836803EB81131B6864F3ED
:107060001A43846804EB81142360002400F11403A4
:1070700043F82140203343F82140836803EB811318
:107080009B6B23F00103846804EB8114A363491C08
:107090000829DAD3D0E90131C3F858110021436837
:1070A000C3F8541147214368C3F84811002180F800
:1070B000561010BD2DE9FF4F87B004460F46984685
:1070C0003807C00E40EAD71607F00F0007F080011E
:1070D00000EBD101012000FA01F9CDF814904FF036
:1070E000000B08F58040401E800B049000200390A8
:1070F00001200290002001901CB903200BB0BDE8D4
:10710000F08FA06800EB861090F8380000F00100C6
:1071100008B90120F2E794F8560008B10120EDE724
:10712000049808B901200490684600F0DFFD94F946
:1071300054100498814204D2009800F0E1FD02202E
:10714000DCE700BFB8F5804F02D94FF4804A00E079
:10715000C246A8EB0A0825692868206194F8540003
:10716000401E40B284F85400BBF1000F00D10695D8
:10717000012028600020686009985844A860A86829
:1071800000F58050010B0903E960E86800F58050C4
:107190002861286900F580506861686900F58050B1
:1071A000A86168686AF31E406860E8696AF31E3087
:1071B000E861A868E96960F30B01E961E86920F01A
:1071C0000040E861B8F1000F05D1686820F4004084
:1071D00000F500406860686820F0FF00803068605B
:1071E000D34404F1340050F8260048B104F13400CF
:1071F00050F82600056004F1340040F8265008E0FD
:1072000004F1140040F82650203040F826500120A8
:107210000390B8F1000F95D107F00F0070BB01206B
:10722000B0EBD71F2AD13A07D00EA26802EB80122A
:1072300002F13001A26802EB861292F83820C2F304
:107240004002D2B1BAF1000F17D0CA88524514D902
:10725000A26802EB86121268C2F30A42BAFBF2F38A
:1072600002FB13A24AB9A26802EB8612126822F04E
:107270000052A36803EB86131A6000BF039850BB4B
:107280006068D0F8B00100EA090020B1009800F071
:1072900037FD002032E713E06068D0F8400140F489
:1072A00080506168C1F840016068D0F8B80105906D
:1072B0006068D0F8400100F4805008B100200290CE
:1072C00002980028E8D16068D0F8400120F480508E
:1072D0006168C1F84001039818B9059800EA0900EF
:1072E00058BB0698A16801EB861188600020A16850
:1072F00001EB8611C8606068C0F8B09115E0019894
:10730000401C01900F490198884204D1009800F078
:10731000F7FC0120F2E66068D0F8BC0100EA090041
:1073200000B109E06068C0F8B0916068D0F8B801B9
:1073300000EA09000028E2D000BF009800F0E0FC5D
:107340000020DBE68096980038B50446684600F0D9
:10735000CDFC0020206084F86D00009800F0D0FC87
:10736000002038BD0246087A012805DA0348086083
:1073700043204860002070470520FCE7B80E00203D
:1073800002460620022A02D0032A05D100E000BFEF
:107390000020034B0B6000E000BF00BF70470000FF
:1073A000AC8A006002460348086012204860002052
:1073B00070470000A40E00202DE9F04106460F465C
:1073C00014464FF0010814B90420BDE8F081B81E3E
:1073D000072836D2DFE800F0040B202712192E0010
:1073E00022460F213046FEF797FD80462AE02246CE
:1073F00010213046FEF790FD804623E025464FF0F1
:10740000000896F86E0028701CE025464FF0000832
:1074100096F86C00287015E0224606213046FEF7EB
:107420007BFD80460EE0224607213046FEF774FDC4
:10743000804607E0224609213046FEF76DFD804672
:1074400000E000BF00BF4046BFE7000030B5044683
:10745000887A30B91B48006808601A48406848605C
:107460002EE00022032310E01648806802EB42055C
:1074700000EB850000890D89A84204D1887A032891
:1074800000DA8B7A03E0501CC2B2012AECDB00BFA9
:10749000032B01D1052030BD0A48806802EB42056C
:1074A00050F8250050F8230008600648806802EB79
:1074B000420500EB8500406850F82300486000BF9B
:1074C0000020E8E7680F00202DE9F84307468846CA
:1074D00016460020009016B90320BDE8F8836946DF
:1074E0003846FDF7F3FA05460DB12846F5E7009852
:1074F000C0F80880009880F86D700020009981F82D
:107500006C00009981F86F00002415E0002104EB65
:10751000440200980C3040F8221004EB440200981A
:107520000C3000EB8200416004EB440200980C3008
:1075300000EB82000172641C082CE7D30099091D3E
:107540003846FFF71DFF054625B10098FFF7FCFE02
:107550002846C2E70098406820B90098FFF7F4FE7B
:107560000620BAE700984068006898B10098406823
:10757000406878B100984068806858B100984068C9
:10758000C06838B100984068006918B10098406838
:10759000406920B90098FFF7D7FE07209DE70098C3
:1075A0003060009840680368009A11463846984752
:1075B000054635B10098FEF75BFE00203060284696
:1075C0008BE70220009981F86E00284685E72DE9B7
:1075D000F04781460C4616464F4617B90320BDE8D2
:1075E000F08704B10EB90420F9E7A07800F00F0588
:1075F000A0784FEAD018042D20D2680648EA10601F
:1076000000EB400207F10C00316840F822106806D8
:1076100048EA106000EB400207F10C0000EB82002A
:10762000716841600021680648EA106000EB400282
:1076300007F10C0000EB8200017201E00420CEE7AC
:10764000224602214846FEF767FCC8E738B515A177
:10765000096800919DF8000001460322002904DB1F
:1076600013071C0E104B5C5406E013071D0E0F4B46
:1076700001F00F04241F1D5500BF014611F1800FBA
:1076800000D10EE00A46002A09DB02F01F040123A4
:10769000A3405409A40004F1E024C4F8003100BF61
:1076A00000BF38BD7170000000E400E018ED00E09C
:1076B0002DE9FE4305460C46207A00F00F06207A9D
:1076C000C7094FF00108207A102805D12146284625
:1076D00000F067F880463DE0042E3AD2700647EA93
:1076E000106000EB400105F10C0050F8210080B360
:1076F0002068009060680190607A8DF80800607AD8
:1077000020B10021297585F820100AE000217006BB
:1077100047EA106000EB400205F10C0000EB82002C
:107720000172700647EA106000EB400105F10C00A1
:1077300000EB81004268700647EA106000EB4001F0
:1077400005F10C0050F821306946284698478046DC
:1077500000BF00BF00BF4046BDE8FE832DE9F041F9
:1077600004460D4626462F4605B114B90320BDE850
:10777000F081B06808B90120F9E739463046FFF7D3
:1077800097FFF4E72DE9F04105460C4616461F46E3
:1077900004F00F013B463246284600F083F9BDE86D
:1077A000F08170B504460D46012084F86F00002278
:1077B0000E212046FEF7B0FB022084F86E00002068
:1077C00084F86C0000BF13E0002200EB400304F1DA
:1077D0000C0141F8232000EB400301EB83014A60D8
:1077E00000EB400304F10C0101EB83010A72401C21
:1077F0000828E9D3002201212046A36898470020E9
:1078000084F86F0070BD10B5044600221146204672
:10781000FEF782FB10BD2DE9F04105460C461646E9
:107820001F4604F00F0040F080013B4632462846D8
:1078300000F038F9BDE8F081F0B504460A46614928
:1078400001F1420361E0487805285CD1022A2DD17C
