:0200000460009A
:10000000464346420004015600000000000303007E
:1000100001010000010400000002000000000000D7
:1000200000000000000000000000000000000000D0
:1000300000000000000000000000000000000000C0
:1000400000000000010407000000000000000000A4
:10005000000000020000000000000000000000009E
:100060000000000000000000000000000000000090
:100070000000000000000000000000000000000080
:10008000EB04180A063204260000000000000000FD
:10009000050404240000000000000000000000002F
:1000A0000000000000000000000000000000000050
:1000B0000604000000000000000000000000000036
:1000C0000000000000000000000000000000000030
:1000D00020040408000000000000000000000000F0
:1000E0000000000000000000000000000000000010
:1000F0000000000000000000000000000000000000
:1001000000000000000000000000000000000000EF
:100110003204180804220000000000000000000063
:1001200000000000000000000000000000000000CF
:10013000C7040000000000000000000000000000F4
:1001400000000000000000000000000000000000AF
:10015000000000000000000000000000000000009F
:10016000000000000000000000000000000000008F
:10017000000000000000000000000000000000007F
:10018000000000000000000000000000000000006F
:10019000000000000000000000000000000000005F
:1001A000000000000000000000000000000000004F
:1001B000000000000000000000000000000000003F
:1001C000000100000010000000000000000000001E
:1001D000000000000000000000000000000000001F
:1001E000000000000000000000000000000000000F
:1001F00000000000000000000000000000000000FF
:0200000460009A
:10100000D100204100200060000000001484000096
:1010100020100060001000600000000000000000D0
:10102000000000600000800000000000FFFFFFFFE4
:0200000460009A
:1020000000000220152400602D2400602F240060B1
:10201000312400603324006035240060000000009B
:1020200000000000000000000000000037240060F5
:1020300039240060000000003B2400603D24006063
:102040003F24006043240060472400604B2400606C
:102050004F24006053240060572400605B2400601C
:102060005F24006063240060672400606B240060CC
:102070006F24006073240060772400607B2400607C
:102080007F2400600F2500600F2500600F25006091
:1020900083240060872400608B2400608F2400600C
:1020A00093240060972400609B2400609F240060BC
:1020B000A3240060A7240060AB240060AF2400606C
:1020C000B3240060B7240060BB240060BF2400601C
:1020D000C3240060C72400600F2500600F25006046
:1020E0000F2500600F2500600F2500600F250060A0
:1020F0000F2500600F2500600F2500600F25006090
:102100000F2500600F2500600F2500600F2500607F
:102110000F2500600F2500600F2500600F2500606F
:10212000CB240060CF240060D3240060D72400605B
:10213000DB2400600F2500600F2500600F25006084
:102140000F2500600F2500600F2500600F2500603F
:102150000F2500600F2500600F2500600F2500602F
:102160000F2500600F2500600F2500600F2500601F
:102170000F2500600F2500600F2500600F2500600F
:102180000F2500600F2500600F2500600F250060FF
:102190000F2500600F2500600F2500600F250060EF
:1021A0000F2500600F250060DF240060E32400603D
:1021B0000F2500600F2500600F2500600F250060CF
:1021C0000F2500600F2500600F2500600F250060BF
:1021D0000F2500600F2500600F2500600F250060AF
:1021E0000F2500600F2500600F250060E7240060C8
:1021F000EB2400600F250060EF240060F3240060F2
:102200007D7300006D730000F7240060FB24006004
:102210000F2500600F2500600F2500600F2500606E
:102220000F2500600F2500600F2500600F2500605E
:102230000F2500600F2500600F2500600F2500604E
:102240000F2500600F2500600F2500600F2500603E
:102250000F2500600F2500600F2500600F2500602E
:102260000F2500600F2500600F2500600F2500601E
:102270000F2500600F2500600F2500600F2500600E
:102280000F2500600F2500600F2500600F250060FE
:102290000F2500600F2500600F2500600F250060EE
:1022A000FF24006003250060072500600F25006003
:1022B0000B2500600F2500600F2500600F250060D2
:1022C0000F2500600F2500600F2500600F250060BE
:1022D0000F2500600F2500600F2500600F250060AE
:1022E0000F2500600F2500600F2500600F2500609E
:1022F0000F2500600F2500600F2500600F2500608E
:102300000F2500600F2500600F2500600F2500607D
:102310000F2500600F2500600F2500600F2500606D
:102320000F2500600F2500600F2500600F2500605D
:102330000F2500600F2500600F2500600F2500604D
:102340000F2500600F2500600F2500600F2500603D
:102350000F2500600F2500600F2500600F2500602D
:102360000F2500600F2500600F2500600F2500601D
:102370000F2500600F2500600F2500600F2500600D
:102380000F2500600F2500600F2500600F250060FD
:102390000F2500600F2500600F2500600F250060ED
:1023A0000F2500600F2500600F2500600F250060DD
:1023B0000F2500600F2500600F2500600F250060CD
:1023C0000F2500600F2500600F2500600F250060BD
:1023D0000F2500600F2500600F2500600F250060AD
:1023E0000F2500600F2500600F2500600F2500609D
:1023F0000F2500600F2500600F250060FFFFFFFF25
:10240000DFF80CD000F0F8F800480047317D0000FC
:102410000000022072B63F483F4901600A6882F31B
:1024200008883E48804762B63D480047FEE7FEE721
:10243000FEE7FEE7FEE7FEE7FEE7FEE7FEE73948D8
:10244000004739480047394800473948004739486C
:10245000004739480047394800473948004739485C
:10246000004739480047394800473948004739484C
:10247000004739480047394800473948004739483C
:10248000004739480047394800473948004739482C
:10249000004739480047394800473948004739481C
:1024A000004739480047394800473948004739480C
:1024B00000473948004739480047394800473948FC
:1024C00000473948004739480047394800473948EC
:1024D00000473948004739480047394800473948DC
:1024E00000473948004739480047394800473948CC
:1024F00000473948004739480047394800473948BC
:1025000000473948004739480047394800473948AB
:102510000047000008ED00E0002000603527006063
:10252000012400600F2500600F2500600F2500606A
:102530000F2500600F2500600F2500600F2500604B
:102540000F2500600F2500600F2500600F2500603B
:102550000F2500600F2500600F2500600F2500602B
:102560000F2500600F250060BD310000D93100004B
:10257000F5310000113200002D3200004932000018
:1025800065320000813200000F2500600F250060D9
:102590000F2500600F2500600F2500600F250060EB
:1025A0000F2500600F2500600F2500600F250060DB
:1025B0000F2500600F2500600F2500600F250060CB
:1025C0000F2500600F2500600F2500600F250060BB
:1025D0003D1D00000F2500600F2500600F250060E5
:1025E0000F2500600F2500600F2500600F2500609B
:1025F0000F2500600F250060064C074D06E0E068DF
:1026000040F0010394E8070098471034AC42F6D339
:10261000FFF7FAFE202800605028006010B5002364
:10262000234C236000BF00BF00BFBFF34F8F00BF2C
:1026300000BF00BF231F1868C0F34E3100BFC0F3B6
:10264000C90200BF43F6E07303EA41134FF0404470
:1026500004EA82742343174C236000BF00BF131E9B
:10266000A2F10102EED10B1EA1F10101E7D100BFE1
:1026700000BF00BFBFF34F8F00BF00BF00BF0C4BB8
:10268000703B1B6843F48033094C703C236000BFEF
:1026900000BF00BFBFF34F8F00BF00BF00BF00BF30
:1026A00000BF00BFBFF36F8F00BF00BF00BF10BDF2
:1026B00084ED00E060EF00E000BF00BF00BFBFF3AB
:1026C0004F8F00BF00BF00BF00BF00BF00BFBFF300
:1026D0006F8F00BF00BF00BF00201449086000BF1B
:1026E00000BF00BFBFF34F8F00BF00BF00BF00BFE0
:1026F00000BF00BFBFF36F8F00BF00BF00BF0C481B
:10270000006840F400300A49086000BF00BF00BF05
:10271000BFF34F8F00BF00BF00BF00BF00BF00BFAF
:10272000BFF36F8F00BF00BF00BF704750EF00E0E6
:1027300014ED00E010B52D48006840F470002B49FE
:1027400008602B48008920F00100294908812948A8
:10275000008920F00100274908812548008800F001
:10276000040028B12248008820F004002049088095
:102770002048008800F0040028B11E48008820F09E
:1027800004001C4908801C481C4948604FF6FF7033
:1027900088600846006820F0800040F02000086053
:1027A0004FF0E020006900F0010038B14FF0E02068
:1027B000006920F001004FF0E02108610B487438F7
:1027C000006800F40030B0F5003F01D0FFF774FF5F
:1027D00006487438006800F48030B0F5803F01D0BE
:1027E000FFF71CFF00F00CF810BD000088ED00E0C2
:1027F00000800B4000000D4020C528D900C00B40D0
:10280000704702E008C8121F08C1002AFAD17047B9
:102810007047002001E001C1121F002AFBD1704760
:102820005028006000040000E481000002280060DD
:1028300034AA0060000000200402000058040000D8
:102840004CAB006004020020700D000012280060F4
:10285000004740EA01039B0703D009E008C9121FA3
:1028600008C0042AFAD203E011F8013B00F8013B4A
:10287000521EF9D27047D2B201E000F8012B491E76
:10288000FBD270470022F6E710B513460A4604460D
:102890001946FFF7F0FF204610BD421C10F8011B3F
:1028A0000029FBD1801A704770B58C1810F8015BB5
:1028B00015F0070301D110F8013B2A1106D110F8D9
:1028C000012B03E010F8016B01F8016B5B1EF9D1DD
:1028D0002B0705D40023521E0DD401F8013BFAE763
:1028E00010F8013BCB1A921C03E013F8015B01F8CE
:1028F000015B521EF9D5A142D8D3002070BD000063
:1029000010B54FF40040FE49086000BFFD48006864
:1029100040F48030FC49C1F8C0020846D0F8C0023B
:1029200020F40030C1F8C002F848F949086000BF3F
:10293000002000F0CBFF01F019F8012001F03CFA73
:10294000F448006820F0FF0040F07F00F149086083
:102950000121F14801F0BEF90121F04801F0BAF976
:10296000EF48C06820F01F0040F01300EC49C86039
:1029700000BFEB48006800F00040B0F1004FF8D114
:102980000021E84801F0E2F84FF4887000F0A4FD5F
:102990004FF4847000F0A0FD40F2162000F09CFD82
:1029A0004FF4067000F098FD0321DF4801F0CEF8E7
:1029B0000121DE4801F0CAF80021DD4801F0C6F827
:1029C0004FF48A7000F088FD4FF48B7000F084FDA6
:1029D000182000F081FD1A2000F07EFD4FF4867073
:1029E00000F07AFD0121D34801F0B0F840F2026016
:1029F00000F072FD0121D04801F0A8F80021CF4875
:102A000001F068F940F2046000F066FD0121CC4855
:102A100001F09CF80021CB4801F05CF94FF44170C3
:102A200000F05AFD07214FF2140001F08FF8002149
:102A3000C54801F04FF90021C44801F04BF94FF4AB
:102A4000807000F049FD4FF4817000F045FD4FF4B7
:102A5000827000F041FD4FF4837000F03DFD0421D1
:102A6000B348FC3801F072F80221B94801F032F99C
:102A7000162000F031FD0221B64801F067F802216E
:102A8000B54801F027F940F2125000F025FD03216E
:102A9000B24801F05BF80121A6480C3001F056F86D
:102AA0000021AF4801F016F940F2145000F014FD77
:102AB0000321AA48001D01F049F801219D4810306A
:102AC00001F044F800219448001D01F003F940F2A0
:102AD000165000F001FD0321A24801F037F8012152
:102AE000A14801F033F800219B48001D01F0F2F8E5
:102AF00040F2062000F0F0FC4FF4027000F0ECFC15
:102B000040F20A2000F0E8FC0021984801F01EF88D
:102B10000021974801F0DEF80E2000F0DDFC1220C5
:102B200000F0DAFC40F2067000F0D6FC102000F055
:102B3000D3FC142000F0D0FC4FF4E16000F0CCFC9A
:102B400001218C4801F002F8022177480C3001F095
:102B5000C1F84FF4A36000F0BFFC1C2000F0BCFCE7
:102B60000C2000F0B9FC4FF48C7000F0B5FC40F282
:102B7000023000F0B1FC40F2063000F0ADFC40F253
:102B80001A5000F0A9FC40F20E6000F0A5FC0021F4
:102B90006848083000F0DAFF00216C48103001F07E
:102BA00099F840F20E5000F097FC0121724800F0B5
:102BB000CDFF07216B48083000F0C8FF03216F48A4
:102BC00001F088F840F2025000F086FC01216C48C8
:102BD00000F0BCFF07216B4800F0B8FF032152480A
:102BE000E43801F077F84FF4407000F075FC0121F3
:102BF0006448083800F0AAFF07215F48083800F051
:102C0000A5FF0321604801F065F800215F4801F04D
:102C100061F85F4800F02EFE5E4800F0D1FE1B21F7
:102C2000002000F0AFFE1021012000F0ABFE1821C3
:102C3000022000F0A7FE1021032000F0A3FE00F008
:102C40002DFC01225449304801F0A6F85348006891
:102C500020F400402C49C1F870010846D0F87001FA
:102C600020F40000C1F870010846006F40F40050E5
:102C7000086700F029FC2448D0F8A00040F4803018
:102C80002149C1F8A0000846D0F8700120F040406A
:102C9000C1F870010846D0F8A00040F400501A496D
:102CA000A031086000F002FC01223D49164801F005
:102CB00073F83A489038006820F00300401C12492D
:102CC000C1F8E0000846D0F8E00040F40050C1F838
:102CD000E0000846D0F8E00020F00C00C1F8E00069
:102CE0000846D0F8E00040F48010C1F8E000084643
:102CF000D0F8E00040F4001028499039086051E015
:102D0000E8010020C0820D4000800D4000366E01B9
:102D1000E401002000C00F40186C0080143900143A
:102D20000000084014EA00041468008010E000402D
:102D300014FB00801CE0078024EB00801C30008026
:102D400024F000801C3100801427008014260080AD
:102D50001864008024790080186E008028E60080C6
:102D60001C6A008028F6008028F0078038F307806E
:102D70003832008020E2078030F900803074008013
:102D800030EC008030E90080207300800C2000804F
:102D9000F4820000FC8200000D00700070810D4084
:102DA0000D00E00000F08AFB01224849484800F08D
:102DB000F3FF4748006A40F4005045490862032188
:102DC000444800F087FF0021434800F083FF0021C2
:102DD000424800F07FFF0021414800F07BFF3C4863
:102DE000D0F8600120F01F003949C1F860013D486A
:102DF000006E20F070003B4908660846006E20F027
:102E00000F00401C08660846006E20F4600008664B
:102E10000846006E20F4F81040F49010086608464A
:102E2000006E20F4807008660846006E20F0800076
:102E300008660846006E20F0807008660022114681
:102E4000294802F015FB00220321274802F010FB5D
:102E500000220621244802F00BFB00220821224810
:102E600002F006FB00220A211F4802F001FB0020AD
:102E700001461D4B9B681D4C03EA04024FF0806322
:102E800003EA806313434FF47F0404EA01442343BD
:102E9000154CA36000BF00224FF40051204602F001
:102EA000A3FA00224FF48041204602F09DFA20460A
:102EB000406920F08050214648610846406920F072
:102EC000005048610A480B49086010BD0D00200001
:102ED00000800D401872008014390014186C0080B6
:102EE0001C26008000C00F4000C00A40FFFF00FB0E
:102EF0000046C3230002002010B56348006800F4B8
:102F00000030B0F5003F2BD100BF00BF00BF00BFB5
:102F100000BFBFF34F8F00BF00BF00BF00BF00BFA7
:102F200000BFBFF36F8F00BF00BF00BF56480068EF
:102F300020F400305449086000205449086000BF64
:102F400000BF00BFBFF34F8F00BF00BF00BF00BF77
:102F500000BF00BFBFF36F8F00BF00BF00BF00BF47
:102F60004948006800F48030B0F5803F01D102F09C
:102F7000BFFE00BF00BF00BF00BF00BFBFF34F8F49
:102F800000BF00BF00BF00BF00BF00BFBFF36F8F17
:102F900000BF00BF00BF3C481030006820F4803004
:102FA00039491031086038488030006820F001004D
:102FB00035498031086000BF3548334988310860A1
:102FC0003448091D08603448091F08603148801CD6
:102FD000091D08603148091F08603148091D086053
:102FE0001320091F08602B48801C091D086014204D
:102FF000091F08602B48091D08602B48091F08603D
:103000002848091D08602948091F08602548001D37
:10301000091D08602648091F08602248801C091DF8
:1030200008601D48C01D091F08601E481030091D9A
:1030300008602048091F08601F48091D0860042017
:1030400000BF00BF00BF00BFBFF34F8F00BF00BF76
:1030500000BF00BF00BF00BFBFF36F8F00BF00BF46
:1030600000BF40F00101084A80321160064910316A
:10307000096841F48031044A1032116000BF02F047
:1030800087FE02F0D3FE10BD14ED00E050EF00E02B
:10309000100000C039001003110000801200006011
:1030A0002D00030621000303150000201600202038
:1030B000170028201900E0812900080370B5164880
:1030C000C1B2164A8958C0F34C32C0F304239A4067
:1030D0001140C0F30422D14061B9114800F084FAD4
:1030E0000621B0FBF1F50F4800F05EFA401CB5FB7D
:1030F000F0F40FE000BF0C48006800F0100008B1C9
:103100000A4D01E00A480568064800F04DFA401CE7
:10311000B5FBF0F4204670BD2426008000C00F40AF
:103120000D00100024E0078070820D4000366E0113
:10313000E401002010B5FFF7C1FF04462346012239
:103140004FF4E131104600F097FE10BD1CB540F27F
:1031500002440321204600F091F800BF00202349DB
:1031600003460246CDE900100221214802F073F91E
:1031700000201E49091D03460246CDE90010022128
:103180001B48001D02F067F941F2B0001749002307
:103190001A46CDE900100221154802F03CF941F22F
:1031A000B0001249091D00231A46CDE90010022182
:1031B0000F48001D02F02FF900200C490C3903467E
:1031C0000246CDE90010052109480C3802F043F908
:1031D00041F2B00005490C3900231A46CDE9001030
:1031E000052103480C3802F016F91CBDDC821F4093
:1031F000EC801F402DE9F04104460E46270A04F0FA
:103200001F08072F00D805E040F2254208A117A0AB
:1032100006F004FB184800EB87052868032101FA33
:1032200008F1884306FA08F108432860BDE8F081F8
:103230002E2E5C2E2E5C2E2E5C746F6F6C735C7366
:10324000646B5C646576696365735C4D494D585287
:1032500054313036325C647269766572735C6673C1
:103260006C5F636C6F636B2E68000000696E646551
:1032700078203C3D2037000068C00F402DE9F04128
:1032800004460E46270A04F01F08072F00D805E061
:1032900040F2254208A117A006F0C0FA184800EB3A
:1032A00087052868032101FA08F1884306FA08F126
:1032B00008432860BDE8F0812E2E5C2E2E5C2E2E59
:1032C0005C746F6F6C735C73646B5C64657669636C
:1032D00065735C4D494D585254313036325C6472DE
:1032E00069766572735C66736C5F636C6F636B2E7B
:1032F00068000000696E646578203C3D203700005E
:1033000068C00F402DE9F04104460E46270A04F03C
:103310001F08072F00D805E040F2254208A117A09A
:1033200006F07CFA184800EB87052868032101FAAB
:1033300008F1884306FA08F108432860BDE8F081E7
:103340002E2E5C2E2E5C2E2E5C746F6F6C735C7355
:10335000646B5C646576696365735C4D494D585276
:1033600054313036325C647269766572735C6673B0
:103370006C5F636C6F636B2E68000000696E646540
:1033800078203C3D2037000068C00F402DE9F04117
:1033900004460E46270A04F01F08072F00D805E050
:1033A00040F2254208A117A006F038FA184800EBB1
:1033B00087052868032101FA08F1884306FA08F115
:1033C00008432860BDE8F0812E2E5C2E2E5C2E2E48
:1033D0005C746F6F6C735C73646B5C64657669635B
:1033E00065735C4D494D585254313036325C6472CD
:1033F00069766572735C66736C5F636C6F636B2E6A
:1034000068000000696E646578203C3D203700004C
:1034100068C00F402DE9F04104460E46270A04F02B
:103420001F08072F00D805E040F2254208A117A089
:1034300006F0F4F9184800EB87052868032101FA23
:1034400008F1884306FA08F108432860BDE8F081D6
:103450002E2E5C2E2E5C2E2E5C746F6F6C735C7344
:10346000646B5C646576696365735C4D494D585265
:1034700054313036325C647269766572735C66739F
:103480006C5F636C6F636B2E68000000696E64652F
:1034900078203C3D2037000068C00F404FF480503A
:1034A000014908677047000000800D404FF48050CC
:1034B0000149086070470000E0800D40002001498C
:1034C0000862704700800D404FF480500149086049
:1034D00070470000A0800D4010B504460021204632
:1034E000FFF788FE10BD000008B5024613480068CB
:1034F00040F00300114B803BC3F880001048D0F827
:10350000400140F002000E4BC3F840010020009043
:1035100003E000BF0098401C00900A4B00989842BE
:10352000F7D30948006820F4F85041F201731843BA
:10353000064BC3F82001012008BD000080C00F40E9
:1035400000002E40801A060020810D4000800D40B2
:1035500038B504460D46002000901148006900F47B
:10356000005030B10E48006940F040000C4908613D
:1035700002E0684600F086FA0A48006B20F000403E
:10358000084908630846006B20F08040086300206B
:1035900008600846006B40F4C6100863012038BD7F
:1035A00000800D4000900D400146C8B2054A805889
:1035B000C1F34C32C1F304239A401040C1F30422FA
:1035C000D040704700C00F400448006800F0100071
:1035D00008B10348704703480068FBE770820D405C
:1035E00000366E01E40100202DE9F0412DED028B43
:1035F00084B00546994BD3E901021968DB6801AC38
:103600000DC4009196492846C0F30B428A5800F039
:103610001F070123BB401A400AB1012200E000222B
:103620002AB9002004B0BDEC028BBDE8F0818C4FBC
:10363000A846C8F30B403858C0F3813010B9FFF7E3
:10364000C3FF00E0002004468548C5F30B41415804
:10365000C1F3004109B12046E4E78249681A8D426E
:1036600052D00CDC0D2D18D0A5F580100D38B8B354
:10367000B0F5801F71D0B0F5001F6FD114E0B0F528
:10368000401F6CD0B0F5E00F6AD0A0F5E000C01F7D
:10369000002878D00128F0D1CEE07148006800F011
:1036A0007F0060434408D5E06D48006D00EE100ACD
:1036B000B8EE401B00EE104AB8EE400B21EE001BA6
:1036C0006748006E00EE100AB8EE400B81EE008BEA
:1036D0006348006B00F0010018B11620444303E07A
:1036E00008E004EB84008400BCEEC80B10EE100A66
:1036F0000444AFE05A48006900F0020008B1162007
:1037000000E014204443A5E05548006F00F07F0618
:1037100053488030006800EE100AB8EE401B00EEFF
:10372000104AB8EE400B21EE001B4D48D0F8900037
:1037300000EE100AB8EE400B81EE008BBCEEC80B19
:1037400010EE100A04FB06044548006F00F4C01098
:1037500038B1B0F5002F08D105E06FE078E018E04F
:103760005AE0A40802E0640800E000BF00BF3E4841
:1037700000683E490840B0F5004F05D04942084472
:1037800020B9A40803E04FE0640800E000BF00BFD8
:1037900060E03348A030006800F07F063048D0F881
:1037A000B00000EE100AB8EE401B00EE104AB8EE72
:1037B000400B21EE001B2C48B038006800EE100AC8
:1037C000B8EE400B81EE008BBCEEC80B10EE100A79
:1037D00004FB06042248D0F8A00000F4C01018B181
:1037E000B0F5002F04D101E0A40802E0640800E075
:1037F00000BF00BF1C48006800F04040B0F1404FDF
:1038000003D0B0F1804F04D101E0A40802E06408C5
:1038100000E000BF00BF1DE013489038006800F0D2
:1038200003065DF8264015E00F4890380068C0F3A5
:1038300081065DF826400DE00D4C0BE00848006A5B
:1038400000F0020008B1162000E01420444301E01B
:10385000002400BF00BF2046E4E600004C830000C7
:1038600000800D400D00700070810D4000808000D0
:1038700040787D011449096821F4404141F48031C8
:1038800002794FF4404303EA823211430E4A116039
:103890001146096841F27F02914341F400510278D8
:1038A00002F07F021143084A116000BF064909680F
:1038B00001F000410029F9D00349096821F4803161
:1038C000014A11607047000000800D4010B50446A9
:1038D00004B904E09A2210A11EA005F09FFF4FF04A
:1038E00080402049086000BF1F48006800F4803015
:1038F0000028F9D04FF480301A49091F086000BF32
:1039000018480838006800F400400028F8D04FF448
:1039100080301449086010BD2E2E5C2E2E5C2E2E99
:103920005C746F6F6C735C73646B5C646576696305
:1039300065735C4D494D585254313036325C647277
:1039400069766572735C66736C5F636C6F636B2E14
:1039500063000000216279706173735874616C4F69
:103960007363000058810D4070820D400348006869
:1039700040F001000249C1F87002704770820D40AA
:1039800000800D4070B50A4601460B4C2468CE00FD
:10399000BF25B54024EA0503CD008024AC401C437C
:1039A000064DC5F8004102F03F04CD00AC401C4379
:1039B000014D2C6070BD000000810D4000800D4065
:1039C0002049096B21F4404141F48031027B4FF4DE
:1039D000404303EA823211431A4A11631146096BCC
:1039E00041F20102914341F40051027802F00102D8
:1039F0001143144A1163416821F040411165816807
:103A000021F040411166418AC1F30E01027C4FF45E
:103A1000004303EAC2321143C2890B4B03EA02425C
:103A20001143084A116400BF0649096B01F00041C7
:103A30000029F9D00349096B21F48031014A11634F
:103A40007047000000800D400000FFFF70B50A467F
:103A500001460B4C2468CE00BF25B54024EA05037F
:103A6000CD008024AC401C43054DF03DC5F8F0402E
:103A700002F03F04CD00AC401C43014D2C6070BDF2
:103A8000F0800D401449096921F4404141F480312E
:103A900042784FF4404303EA823211430E4A1161E7
:103AA0001146096921F0020141F4415102780223D3
:103AB00003EA42021143084A116100BF064909693D
:103AC00001F000410029F9D00349096921F480314E
:103AD000014A11617047000000800D4070B5044636
:103AE0000E463F2000EAA465E0B216494158C4F3EF
:103AF0004C30C4F30422904021EA0000C4F30422B5
:103B000006FA02F1C4F34C32C4F304239A40114084
:103B10000843E1B20B4A8850202D00D806E040F25D
:103B20000342094901F13C0005F078FE202D07D041
:103B300000BF0448806C0121A94008400028F8D14A
:103B400070BD000000C00F402818000070B504468A
:103B50000E463F2000EAA465E0B215494158C4F37F
:103B60004C30C4F30422904021EA0000C4F3042244
:103B700006FA02F1C4F34C32C4F304239A40114014
:103B80000843E1B20A4A8850202D00D805E040F2EF
:103B9000034208A116A005F041FE202D07D000BF6A
:103BA0000348806C0121A94008400028F8D170BD6D
:103BB00000C00F402E2E5C2E2E5C2E2E5C746F6F7C
:103BC0006C735C73646B5C646576696365735C4D90
:103BD000494D585254313036325C647269766572A0
:103BE000735C66736C5F636C6F636B2E68000000C0
:103BF000627573795368696674203C3D2043434D78
:103C00005F4E4F5F425553595F5741495400000082
:103C100070B504460E463F2000EAA465E0B215499F
:103C20004158C4F34C30C4F30422904021EA000010
:103C3000C4F3042206FA02F1C4F34C32C4F30423A1
:103C40009A4011400843E1B20A4A8850202D00D81A
:103C500005E040F2DE3208A116A005F0DFFD202DC0
:103C600007D000BF0348806C0121A940084000280C
:103C7000F8D170BD00C00F402E2E5C2E2E5C2E2E73
:103C80005C746F6F6C735C73646B5C6465766963A2
:103C900065735C4D494D585254313036325C647214
:103CA00069766572735C66736C5F636C6F636B2EB1
:103CB00068000000627573795368696674203C3D42
:103CC0002043434D5F4E4F5F425553595F57414923
:103CD0005400000070B504460E463F2000EAA4657B
:103CE000E0B215494158C4F34C30C4F3042290406B
:103CF00021EA0000C4F3042206FA02F1C4F34C32B4
:103D0000C4F304239A4011400843E1B20A4A8850A0
:103D1000202D00D805E040F2DE3208A116A005F003
:103D20007DFD202D07D000BF0348806C0121A940F4
:103D300008400028F8D170BD00C00F402E2E5C2E28
:103D40002E5C2E2E5C746F6F6C735C73646B5C64A2
:103D50006576696365735C4D494D58525431303610
:103D6000325C647269766572735C66736C5F636CF7
:103D70006F636B2E68000000627573795368696623
:103D800074203C3D2043434D5F4E4F5F4255535995
:103D90005F5741495400000010B532B14FF48033F1
:103DA000C1F30B440444636005E04FF48033C1F376
:103DB0000B440444A36010BD18B91021034A1160DC
:103DC00003E01021014A121D1160704774820D40FA
:103DD0002DE9F04F07468C46914600203946834630
:103DE00001F801BBB9F1000F1ED0DCF8004034B976
:103DF0004FF0300B81F800B0401CBDE8F08F10E0B0
:103E000094FBF3F808FB1345002D05DA2A466FEA08
:103E1000020B0BF1310500E03035444601F8015B3F
:103E2000401C002CECD125E0DCF800602EB94FF0EE
:103E3000300B81F800B0401CDFE719E0B6FBF3FA65
:103E40000AFB13620A2A01D230320DE0A2F10A0BFA
:103E5000DDF824E0BEF1000F02D04FF0410E01E08A
:103E60004FF0610E0BEB0E02564601F8012B401C81
:103E7000002EE3D100BFC0E72DE9F04188B006462F
:103E80000F461446984643F221552B4B0FCB8DE835
:103E90000F00CDF8008001978DF80A608DF818406A
:103EA000012C02D1CDF81CD00FE0022C03D1284602
:103EB00008B0BDE8F081032C01D12846F8E7042CB6
:103EC00001D12846F4E72846F2E71C211B48FEF7FB
:103ED000D9FC1A4801460861086904A901F0E4FF09
:103EE000054605B905E04FF43372154915A005F0F4
:103EF00095FC12490869143102F080F8054605B9AD
:103F000005E040F2D6220E490EA005F087FC0B49D1
:103F10000869183102F022F8054605B905E040F2BB
:103F2000E122074907A005F079FC044800690F4920
:103F300008600020BCE70000188400008C0E002000
:103F4000908500006B5374617475735F536572697B
:103F5000616C4D616E616765725F53756363657314
:103F600073203D3D2073746174757300F40100206B
:103F70002DE9F04105460C4616461F464FF0000855
:103F800000BF10E02068401C802805D32846216827
:103F900000F036F80020206020682E542068401C75
:103FA000206008F10108B845ECDBBDE8F0810000B5
:103FB0000FB430B5A1B00024002580216846FEF77B
:103FC00061FC0D48006820B9002021B030BC5DF8CC
:103FD00014FB25A82090094B6A462099249802F0EA
:103FE0009DF904462146684600F00AF8054600207F
:103FF00020902846E9E70000F4010020211B000082
:1040000070B504460D4643F2215604B105E040F276
:10401000D1120C490CA005F001FC05B105E04FF4EC
:10402000E97208490BA005F0F9FB2A4621460C4825
:1040300002F0B0F806460EB9284670BD4FF0FF30CA
:10404000FBE70000908500004E554C4C20213D20A0
:10405000636800003020213D2073697A650000000C
:10406000A00E002070B505460C46002640F60A005A
:104070000440002C28D004F4006010B141F65936F9
:1040800011E004F0080010B141F65A360BE004F0DC
:10409000020010B141F65B3604E0D5220BA11AA054
:1040A00005F0BCFB00BF00BF68692043686100BF2A
:1040B000D5F8BC0040F00100C5F8BC00D5F8B80048
:1040C00040F00100C5F8B800304670BD2E2E5C2EC1
:1040D0002E5C2E2E5C746F6F6C735C73646B5C640F
:1040E0006576696365735C4D494D5852543130367D
:1040F000325C647269766572735C66736C5F666C61
:1041000065787370692E630066616C7365000000EA
:10411000F0B5044601252768C7F3011636B1012E14
:1041200005D0022E04D0032E0AD103E000BF00BF49
:10413000012506E00F790FB1012500E0002500E020
:1041400000BF00BF15B14FF480701BE0DFF838C02E
:104150000F68674501D3792014E08F7C4FF47A7C97
:1041600017FB0CF34B27B3FBF7F2C2EB021707EB7D
:1041700087079F4200D2521C4FF4FC4707EA4227B0
:1041800047F48070F0BD000000E1F50510B503486C
:104190000168034800F081FB10BD00005C0E0020A8
:1041A00000802A400146D1F8E00000F0020030B162
:1041B000D1F8E00000F0010008B1012070470020B4
:1041C000FCE710B5044634212046FEF75BFB0020D7
:1041D00020706070A0700120E0700020207160717C
:1041E000A0714FF6FF702081FF20A0720820E072BE
:1041F00020730020A0730021E173FF2121744FF68A
:10420000FF71618220212175182104F11600FEF74B
:1042100039FB002011E0012200EB400304F11601FC
:1042200001EB43010A71120200EB400304F1160195
:1042300001EB43014A80411CC8B20428EBDB00219A
:1042400084F82E1084F82F1084F8301084F8311080
:1042500084F8321010BD000070B50546002406E059
:10426000094850F82400A84200D102E0641C032C45
:10427000F6D300BF032C00D204E0832203A112A0D6
:1042800005F0CCFA204670BD5C8300002E2E5C2E1B
:104290002E5C2E2E5C746F6F6C735C73646B5C644D
:1042A0006576696365735C4D494D585254313036BB
:1042B000325C647269766572735C66736C5F666C9F
:1042C00065787370692E6300696E7374616E6365DF
:1042D000203C2041525241595F53495A4528735F4F
:1042E000666C6578737069426173657329000000BC
:1042F0002DE9F04105460C46002600272846FFF729
:10430000ABFF754931F9108003214046FEF7FAFFF3
:1043100000BF286820F002002860284600F012FA4A
:104320002078302101EA0010E1784FF4805202EA4F
:1043300001310843A17A4FF47F0202EA01410843A8
:10434000217C120202EA0161084361784FF4804245
:1043500002EA813108432179D21002EAC1210843DF
:10436000A178920002EA41310843A17B802202EA4F
:10437000C1110843E17B402202EA81110843861CF7
:104380002E60618A2089000461F30F0006466E608A
:10439000AE6852480640207D4FF07F4101EA006040
:1043A0006179520302EAC1410843A179121102EA7C
:1043B000C131084394F82E10121102EAC1210843BA
:1043C0000643AE60EE6826F0780694F82F00402190
:1043D00001EA801094F83010202202EA41110843CB
:1043E00094F83110102202EA0111084394F83210B7
:1043F000082202EAC10108430643EE6000BF3AE02A
:1044000005F1200050F827603548064007EB4702C9
:1044100004F1160101EB42010979C20502EAC172F9
:1044200007EB470304F1160111F813104FF0407326
:1044300003EA0161114307EB470304F1160202EBA3
:10444000430252784FF4702303EA0242114307EB10
:10445000470304F1160202EB43025088C21700EB37
:104460005272C2F3C70211430E4305F1200040F817
:104470002760781CC7B2042FC2DB55F8B80F20F0B4
:104480003C002860207BC11700EB5171C910491E08
:104490003C2202EA81012A6811432960686820F001
:1044A0003C006860E07AC11700EB5171C910491EE9
:1044B0003C2202EA81016A6811436960B83D002725
:1044C00006E0002105F1600040F82710781CC7B213
:1044D000042FF6DBBDE8F0816E830000FF77F70064
:1044E00000FFF07C2DE9F04704460F461546D4F84E
:1044F000B800C0F3830000F101084FF00009002666
:1045000057E04FEAC800A84212D80AE051462046B8
:10451000FFF7A8FD8146B9F1000F02D04846BDE87B
:10452000F087D4F814A00AF020000028EED010E0A4
:1045300009E061692046FFF795FD8146B9F1000F5A
:1045400001D04846EBE7D4F8F000C0B2B5EBC00F9D
:10455000EFD861692046FFF785FD8146B9F1000F6C
:1045600001D04846DBE74FEAC800A8420FD8002632
:1045700005E004F5807050F8260001C7761C4FEA6C
:104580004800B042F5D8082000FB18550DE0002681
:1045900005E004F5807050F8260001C7761C012064
:1045A00000EB9500B042F4D80025606940F020008F
:1045B0006061002DA5D14846B1E700002DE9F04724
:1045C00004460D4617460026B1464FEA670800BF6D
:1045D0002046FFF7E7FD0028FAD004F16000A96843
:1045E00040F82710E889544901EA0040297B4FF43C
:1045F000004202EAC1310843297C4FF4787202EA92
:1046000041110843697C01F01F010843E97C4FF424
:10461000F04202EAC1210843297D4FF4806202EA98
:104620008121084304F1700141F8270004F1800062
:1046300050F8276041480640687E4FF0E04101EAAB
:104640000070698B3E4A02EA014108430643A87D97
:1046500060B1687D4FF4706101EA0020A97D491EB8
:104660004FF4604202EA413108430643287E48B1D4
:10467000E87D00F00F00297E491EE02202EA411188
:104680000843064304F1800040F82760294620468D
:10469000FFF73EFD064604F1C00040F82860287F81
:1046A00030B1D4F8940020F00100C4F8940005E083
:1046B000D4F8940040F00100C4F89400B8F1000F61
:1046C0000DD154F8940F20F0040020602068297F59
:1046D000042202EA8101084344F894090CE054F8EA
:1046E000940F20F0080020602068297F082202EA49
:1046F000C101084344F89409206820F002002060BA
:10470000B8F1000F01D1032001E04FF440308146A1
:1047100006F0010068B100BFD4F8E80000EA090023
:104720004845F9D1642002E000BF411EC8B200280C
:10473000FADCBDE8F08700000000FFFF1F100080DA
:104740000000FF0F016841F00101016000BF016836
:1047500001F001010029FAD17047000070B504464C
:104760000D4605B105E040F2793206A114A005F02E
:1047700055F840F66B0021698143216100BF00209C
:10478000286070BD2E2E5C2E2E5C2E2E5C746F6FFA
:104790006C735C73646B5C646576696365735C4DB4
:1047A000494D585254313036325C647269766572C4
:1047B000735C66736C5F666C65787370692E6300FA
:1047C00068616E646C6500002DE9F04105460C4699
:1047D00000260027217905F1800050F8210040F0E3
:1047E0000041227905F1800040F82210403555F84B
:1047F0002C0C40F01E0045F82C0C20682866E86F51
:1048000040F00100E867A86F40F00100A867403D54
:104810006079022805D06079032802D060790128E8
:1048200001D1A08986B2A0794FF4702101EA00403D
:10483000E179491E4FF0E06202EA01610843064354
:1048400045F8A46FE86840F00100E860A43D607995
:10485000032802D06079012806D12846D4E9021243
:1048600000F02AF9074608E06079022805D12846B9
:10487000D4E90212FFF736FE074600BF2846FFF7CD
:1048800091FC0028FAD0607920B969692846FFF7C1
:10489000E9FB07463846BDE8F0812DE9F05F0546A3
:1048A0000C4600266F69D5F810B007EA0B0008B96E
:1048B000BDE8F09F39462846FFF7D4FB8046B8F1A3
:1048C000000F0ED0206960B121462846FFF746FF51
:1048D000206928B1424621462846D4E904C3E0476E
:1048E000E6E707F02000D8B32068022838D1D5F8D1
:1048F000B800C0F3830000F1010A4FEACA01A068C2
:10490000884215D3002609E005F5807050F826107E
:104910006268101D60601160701CC6B24FEA4A00E8
:10492000B042F1DC0821A06801FB1A00A06013E08E
:10493000002609E005F5807050F826106268101D09
:1049400060601160701CC6B20121A06801EB90008C
:10495000B042EFD80020A060686940F02000686194
:1049600007F0010078B1686940F0010068612146F4
:104970002846FFF7F3FE206928B100222146284689
:10498000D4E904C3E04707F04000E8B320680128F9
:104990003AD1A068C0B3D5F8BC00C0F3830000F1E1
:1049A00001094FEAC901A068884215D3002609E031
:1049B0006168081D6060096805F5C07040F8261040
:1049C000701CC6B24FEA4900B042F1DC0821A06871
:1049D00001FB1900A06013E0002609E06168081DD2
:1049E0006060096805F5C07040F82610701CC6B2FA
:1049F0000121A06801EB9000B042EFD80020A06038
:104A0000686940F04000686100BF51E72DE9F04758
:104A100004460D4617469946402D00D205E040F267
:104A2000E31212A120A004F0F9FE4FF0000800BF2D
:104A30002046FFF7B7FB0028FAD01E48A0610220ED
:104A4000E06104F5007000EB85064FF0000805E01A
:104A500001CF01C608F1010000F0FF08C845F7D3F7
:104A60001448A0610120E061BDE8F0872E2E5C2E85
:104A70002E5C2E2E5C746F6F6C735C73646B5C6465
:104A80006576696365735C4D494D585254313036D3
:104A9000325C647269766572735C66736C5F666CB7
:104AA00065787370692E6300696E646578203C20B8
:104AB00036345500F05AF05A2DE9F04704460E46B8
:104AC0001746D4F8BC00C0F3830000F101084FF092
:104AD000000A002537E000BFD4F8149009F0400028
:104AE0000028F9D049462046FFF7BCFA8246BAF1C1
:104AF000000F02D05046BDE8F0874FEAC800B84228
:104B00000FD8002505E002CE04F5C07040F825104E
:104B10006D1C4FEA4800A842F5D8082000FB187722
:104B20000DE0002505E002CE04F5C07040F8251028
:104B30006D1C012000EB9700A842F4D800276069A3
:104B400040F040006061002FC5D15046D3E72DE909
:104B5000FF4F81B0884691461E460027BA46BB46A5
:104B6000002000900025344608F0FF0000900098D7
:104B7000C0F58075AE4201DD701B00E0304684B2A6
:104B80002046E11704EB11614FEA212AE11704EBFB
:104B900011610912A4EB01211FFA81FB7DB1AE4224
:104BA0000DDD2B464A464146019800F061F9074663
:104BB0001FB1384605B0BDE8F08FA844A944BAF14A
:104BC000000F09D15B464A464146019800F050F972
:104BD00007462FB33846EDE70EE04FF480734A46A0
:104BE0004146019800F044F907460FB13846E1E725
:104BF00008F5807809F58079BAF10000AAF1010181
:104C00001FFA81FAE9D1BBF1000F09D05B464A4691
:104C10004146019800F02CF907460FB13846C9E724
:104C20003846C7E738B505466946284600F04CF9CE
:104C300004460CB1204638BD9DF8000040F040000D
:104C400000906946284600F09DF904462046F2E7A8
:104C50007FB506460D46304600F07EF9044614B195
:104C6000204604B070BD009500208DF804008DF83A
:104C7000050001208DF8070005208DF80600694623
:104C80003046FFF7A1FD04460CB12046E9E7304667
:104C900000F039F904462046E3E770B586B00546D2
:104CA0000C46002001908DF8080002208DF80900C4
:104CB00001208DF80B0009208DF80A0005A803904B
:104CC0000320049001A92846FFF77EFD06460598BB
:104CD00000F47F400599C9B240EA01400599C1F34B
:104CE000074108432060304606B070BD1CB5012066
:104CF000254900231A46CDE900100146234800F05B
:104D00009DFB01202049091D00231F4AEC32CDE9FB
:104D1000001001461D48001D00F090FB01201A49BB
:104D200008310023184ACC32CDE90010014617485B
:104D3000083000F083FB012013490C310023124A94
:104D4000D032CDE90010014610480C3000F076FB5F
:104D500001200D49103100230B4AD432CDE9001057
:104D600001460A48103000F069FB01200649143161
:104D70000023054AD832CDE900100146034814301B
:104D800000F05CFB1CBD0000DC831F40EC811F4079
:104D90001CB541F2F100284900231A46CDE9001064
:104DA0000121264800F031FB41F2F1002249091DA2
:104DB0000023214AEC32CDE9001001211F48001DDB
:104DC00000F023FB41F2F1001B49083100231A4A8D
:104DD000CC32CDE9001001211848083000F015FB55
:104DE00041F2F10014490C310023134AD032CDE9CD
:104DF0000010012111480C3000F007FB41F2F100D6
:104E00000D49103100230C4AD432CDE900100121A4
:104E10000A48103000F0F9FA41F2F1000649143165
:104E20000023054AD832CDE900100121034814308F
:104E300000F0EBFA1CBD0000DC831F40EC811F403A
:104E400008B5FFF753FFFFF7A3FF00F07BFE6946AD
:104E50000648FFF722FF009800F47F00B0F51D0F11
:104E600002D10248FFF7DEFE08BD000000802A40A4
:104E70002DE9FF4180460D4616461F46404600F08C
:104E80006BF804461CB1204604B0BDE8F0810095E3
:104E900000208DF8040003208DF8050001208DF816
:104EA000070007208DF806000296039769464046E2
:104EB000FFF78AFC04460CB12046E5E7404600F0C7
:104EC00022F804462046DFE770B586B005460C465A
:104ED000002001908DF8080002208DF809000120C3
:104EE0008DF80B000B208DF80A0005A80390012017
:104EF000049001A92846FFF767FC06460598207034
:104F0000304606B070BD70B586B0054600200190F1
:104F10008DF8080002208DF8090001208DF80B00A3
:104F20000B208DF80A0005A803900120049000BF13
:104F300001A92846FFF748FC044614B1204606B0F4
:104F400070BD059800F0010008B1012600E00026C0
:104F5000002EEDD12046F2E77FB5044600200090F8
:104F60008DF804008DF8050001208DF8070004205D
:104F70008DF8060069462046FFF726FC05462846C0
:104F800004B070BD7FB506460D463046FFF7E4FF1E
:104F9000044614B1204604B070BD002000908DF886
:104FA000040003208DF8050001208DF807000A2079
:104FB0008DF8060002950120039069463046FFF700
:104FC00003FC04460CB12046E5E73046FFF79BFFA3
:104FD00004462046DFE7000070B50546002406E0E1
:104FE000094850F82400A84200D102E0641C0A2CB1
:104FF000F6D300BF0A2C00D204E0392203A112A08C
:1050000004F00CFC204670BD748300002E2E5C2E34
:105010002E5C2E2E5C746F6F6C735C73646B5C64BF
:105020006576696365735C4D494D5852543130362D
:10503000325C647269766572735C66736C5F67700C
:10504000696F2E6300000000696E7374616E6365A2
:10505000203C2041525241595F53495A4528735FC1
:105060006770696F42617365732900002DE9F04133
:1050700004460D4616462046FFF7AEFF0746062FAC
:105080000ED2184830F91700B0F1FF3F08D015488C
:1050900030F9178003214046FEF778F900BF00BFC2
:1050A00060690121A94088436061307828B960684F
:1050B0000121A9408843606009E0727829462046B2
:1050C00000F058F861680120A8400143616096F83B
:1050D000028042462946204600F006F800BFBDE89F
:1050E000F08100009C830000F0B503460C46214689
:1050F000DD690126A640B543DD61102C02D203F123
:105100000C0002E003F110001039062A2ED2DFE86D
:1051100002F02D030A15202705684F000326BE4024
:10512000B543056023E005684F000326BE40B54344
:105130004F000126BE403543056018E005684F006A
:105140000326BE40B5434F000226BE4035430560EE
:105150000DE005684F000326BE403543056006E0BC
:10516000DD690126A6403543DD6100E000BF00BFD8
:10517000F0BD000070B504460D461646202D00D245
:1051800004E0712208A117A004F048FB2EB92068A2
:105190000121A9408843206004E021680120A84043
:1051A0000143216070BD00002E2E5C2E2E5C2E2E41
:1051B0005C746F6F6C735C73646B5C64657669635D
:1051C00065735C4D494D585254313036325C6472CF
:1051D00069766572735C66736C5F6770696F2E6366
:1051E0000000000070696E203C2033320000000097
:1051F000014609B90020704742F6AF70FBE7000096
:10520000F0B585B005460C4605B104E0E42230A1B6
:105210003CA004F003FB04B104E0E5222CA13BA078
:1052200004F0FCFA207B092800D204E0E62228A141
:10523000384804F0F3FA207B374951F8200000B1D8
:1052400004E0E72222A135A004F0E8FA684600F065
:105250004DFA60680090207A012803D102208DF871
:10526000040009E0207A022803D103208DF804000D
:1052700002E000208DF80400607A012802D18DF848
:10528000070002E000208DF80700A07A08B1012095
:1052900000E000208DF81100E07A08B1012000E064
:1052A00000208DF81000217B1B4B53F8210069462C
:1052B000226800F0AFFA064626B13046FFF798FFA5
:1052C00005B0F0BD2F46207B38700020F8E70000C5
:1052D0002E2E5C2E2E5C2E2E5C746F6F6C735C73A6
:1052E000646B5C636F6D706F6E656E74735C75611B
:1052F00072745C6C70756172745F61646170746506
:10530000722E630068616E646C650000636F6E6688
:105310006967000044850000F0830000735F4C70F3
:105320007561727441646170746572426173655B2A
:10533000636F6E6669672D3E696E7374616E636537
:105340005D0000002DE9F04104460D46164604B10B
:1053500005E040F2551210A11CA004F05FFA05B15F
:1053600005E04FF4AB720CA11AA004F057FA06B195
:1053700005E040F2571208A118A004F04FFA2746A2
:105380003978184A52F821003246294600F096FB37
:105390000020BDE8F08100002E2E5C2E2E5C2E2E0B
:1053A0005C746F6F6C735C73646B5C636F6D706F58
:1053B0006E656E74735C756172745C6C707561722D
:1053C000745F616461707465722E630068616E64FD
:1053D0006C65000064617461000000006C656E67BC
:1053E00074680000F08300006FF30B011AB143688A
:1053F0000B43436002E043688B434360704730B522
:10540000DDE9034504B1256030BD30B5DDE9034574
:1054100004B1256030BD30B5DDE9034504B1256038
:1054200030BDF0B5DDE9055401F00F06102707EA9D
:1054300004173E43066002B11360F0BDF0B5DDE92C
:10544000055401F00F06102707EA04173E430660D3
:1054500002B11360F0BDF0B5DDE9055401F00F06AF
:10546000102707EA04173E43066002B11360F0BD3F
:1054700030B5134603290ADD446803258D4024EA2C
:10548000050203F003048C401443446009E04468BF
:1054900007258D4024EA050203F007048C401443DD
:1054A000446030BD0EB500200E4903460246CDE9EA
:1054B000001005210C48FFF7B4FF41F2B000094984
:1054C00000231A46CDE9001005210748FFF797FF92
:1054D00006480068029002AA0A210548FFF7C6FDA7
:1054E0000EBD0000D4821F40E4801F40007F0000FA
:1054F00000801B4010B501220A210248FFF73AFE46
:1055000010BD000000801B4010B500220A21024897
:10551000FFF730FE10BD000000801B400EB50020DC
:105520000E4903460246CDE9001005210C48FFF75D
:1055300078FF41F2B000094900231A46CDE9001076
:1055400005210748FFF75BFF06480068029002AAA2
:105550000B210548FFF78AFD0EBD0000D8821F40D1
:10556000E8801F40047F000000801B4010B501222E
:105570000B210248FFF7FEFD10BD000000801B401C
:1055800010B500220B210248FFF7F4FD10BD00000A
:1055900000801B400EB500200E4903460246CDE9AF
:1055A000001005210C48FFF73CFF41F2B00009490B
:1055B00000231A46CDE9001005210748FFF71FFF19
:1055C00006480068029002AA09210548FFF74EFD2F
:1055D0000EBD0000D0821F40E0801F40FC7E000016
:1055E00000801B4010B5012209210248FFF7C2FDCF
:1055F00010BD000000801B4010B5002209210248A8
:10560000FFF7B8FD10BD000000801B4010B5034837
:1056100041680348034A1268904710BD680E002095
:1056200000401840EC01002010B503488168034891
:10563000034A1268904710BD680E00200080184091
:10564000EC01002010B50348C1680348034A126802
:10565000904710BD680E002000C01840EC010020EB
:1056600010B5034801690348034A1268904710BD0A
:10567000680E002000001940EC01002010B503481E
:1056800041690348034A1268904710BD680E002024
:1056900000401940EC01002010B50348816903481F
:1056A000034A1268904710BD680E00200080194020
:1056B000EC01002010B50348C1690348034A126891
:1056C000904710BD680E002000C01940EC0100207A
:1056D00010B50348016A0348034A1268904710BD99
:1056E000680E002000001A40EC01002010B50446AE
:1056F00004B105E04FF402720DA11CA004F08EF875
:1057000014212046FDF7BEF84FF4E1302060002060
:1057100020716071A071E07120726072A072E072FD
:1057200060732073A073E0732074607410BD000078
:105730002E2E5C2E2E5C2E2E5C746F6F6C735C7341
:10574000646B5C646576696365735C4D494D585262
:1057500054313036325C647269766572735C66739C
:105760006C5F6C70756172742E6300004E554C4C0A
:1057700020213D20636F6E666967000070B50546A5
:10578000002406E0094850F82400A84200D102E0B5
:10579000641C092CF6D300BF092C00D204E07A2245
:1057A00003A112A004F03AF8204670BDA8830000BF
:1057B0002E2E5C2E2E5C2E2E5C746F6F6C735C73C1
:1057C000646B5C646576696365735C4D494D5852E2
:1057D00054313036325C647269766572735C66731C
:1057E0006C5F6C70756172742E630000696E737407
:1057F000616E6365203C2041525241595F53495AC2
:105800004528735F6C7075617274426173657329AA
:10581000000000002DE9F04F85B004460D4691468A
:1058200005B104E0F12287A195A003F0F7FF2868F5
:10583000002800D904E0F22282A195A003F0EEFF37
:10584000287A042800DC04E0F4227EA1974803F0C3
:10585000E5FF687A042800DC04E0F52279A1944889
:1058600003F0DCFF286802904FF0000A002004904B
:10587000042731E028687843B9FBF0F01FFA80F87C
:10588000B8F1000F01D14FF0010807FB08F0B9FB98
:10589000F0F0039029680398A0EB010B08F10100D8
:1058A0007843B9FBF0F02968081A58450BD208F183
:1058B00001007843B9FBF0F02968A1EB000B08F177
:1058C00001001FFA80F80298834504D8CDF808B08B
:1058D000BA46CDF810807F1C202FCBD964212868D0
:1058E000B0FBF1F000EB40010298814204D240F29B
:1058F000215005B0BDE8F08F2046FFF73FFF019033
:105900006C49019831F91000009003210098FDF7CF
:1059100081FD00BF00BFA06840F00200A060A06849
:1059200020F00200A06000BF2669BAF1030F04D97D
:10593000BAF1080F01D246F4003626F0F856AAF163
:1059400001004FF0F85101EA006006436FF30C06C6
:105950000498C0F30C0030432061206920F000500F
:105960002061A06940F2177120EA01062879E97BDD
:105970004FF4E06202EA01210843A97B042202EA13
:105980008101084306436879012807D1287910B1BD
:1059900026F4006606E046F4006603E0287908B1C4
:1059A00046F01006A661206920F40056E8794FF40D
:1059B000005101EA403030432061287A697A40EA98
:1059C0000140E062A06A40F08800A062A06A40F452
:1059D0004040A062384E46F0004646F44046687BA0
:1059E000102101EA0010297B202202EA411108431C
:1059F000616A08436062A87A012803D1606A40F0B6
:105A000008006062E87A012803D1606A40F0010072
:105A10006062A879012802D146F0005601E026F024
:105A20000056606930436061A669287C012801D175
:105A300046F40026687C012801D146F48026A66140
:105A4000002056E72E2E5C2E2E5C2E2E5C746F6F7F
:105A50006C735C73646B5C646576696365735C4DE1
:105A6000494D585254313036325C647269766572F1
:105A7000735C66736C5F6C70756172742E6300008A
:105A80004E554C4C20213D20636F6E6669670000C7
:105A90003055203C20636F6E6669672D3E626175EC
:105AA00064526174655F427073000000FC84000002
:105AB000B4840000DE83000000001F402DE9F041A7
:105AC00004460D46904605B105E040F241320AA178
:105AD00018A003F0A3FE2E46474609E000BF606908
:105AE00000F400000028FAD03078E061761C7F1EB8
:105AF000002FF3D1BDE8F0812E2E5C2E2E5C2E2ED1
:105B00005C746F6F6C735C73646B5C646576696303
:105B100065735C4D494D585254313036325C647275
:105B200069766572735C66736C5F6C7075617274B4
:105B30002E6300004E554C4C20213D206461746161
:105B40000000000000B58FB00020019001A8FDF713
:105B500099FF18210020FDF779FF03210F48FEF778
:105B600057F802210E48FDF7B9FF00F071F802A8BE
:105B7000FEF727FB01218DF8381002A90948FEF72E
:105B8000B7FB002208490748FEF718FD5A23074AC9
:105B900000210448FEF73AFF0FB000BD1C7D0080D5
:105BA0001CF7008000802A4024000020087F0000AD
:105BB00010B50023244C236000BF00BF00BFBFF31B
:105BC0004F8F00BF00BF00BF1F4B703B1B6823F40B
:105BD00080331D4C703C236000BF00BF00BFBFF38B
:105BE0004F8F00BF00BF00BF174B1B1F1868C0F3CB
:105BF0004E3100BFC0F3C90200BF43F6E07303EAB1
:105C000041134FF0404404EA827423430F4C236055
:105C100000BF00BF131EA2F10102EED10B1EA1F1C5
:105C20000101E7D100BF00BF00BFBFF34F8F00BF2E
:105C300000BF00BF00BF00BF00BFBFF36F8F00BF3A
:105C400000BF00BF10BD000084ED00E074EF00E075
:105C500010B50023244C236000BF00BF00BFBFF37A
:105C60004F8F00BF00BF00BF1F4B703B1B6823F46A
:105C700080331D4C703C236000BF00BF00BFBFF3EA
:105C80004F8F00BF00BF00BF174B1B1F1868C0F32A
:105C90004E3100BFC0F3C90200BF43F6E07303EA10
:105CA00041134FF0404404EA827423430F4C2360B5
:105CB00000BF00BF131EA2F10102EED10B1EA1F125
:105CC0000101E7D100BF00BF00BFBFF34F8F00BF8E
:105CD00000BF00BF00BF00BF00BFBFF36F8F00BF9A
:105CE00000BF00BF10BD000084ED00E074EF00E0D5
:105CF00010B50023244C236000BF00BF00BFBFF3DA
:105D00004F8F00BF00BF00BF1F4B703B1B6823F4C9
:105D100080331D4C703C236000BF00BF00BFBFF349
:105D20004F8F00BF00BF00BF174B1B1F1868C0F389
:105D30004E3100BFC0F3C90200BF43F6E07303EA6F
:105D400041134FF0404404EA827423430F4C236014
:105D500000BF00BF131EA2F10102EED10B1EA1F184
:105D60000101E7D100BF00BF00BFBFF34F8F00BFED
:105D700000BF00BF00BF00BF00BFBFF36F8F00BFF9
:105D800000BF00BF10BD000084ED00E074EF00E034
:105D900010B50023234C236000BF00BF00BFBFF33A
:105DA0004F8F00BF00BF00BF231F1868C0F34E31E4
:105DB00000BFC0F3C90200BF43F6E07303EA41131A
:105DC0004FF0404404EA82742343174C236000BF21
:105DD00000BF131EA2F10102EED10B1EA1F10101C1
:105DE000E7D100BF00BF00BFBFF34F8F00BF00BFB0
:105DF00000BF0C4B703B1B6843F48033094C703C74
:105E0000236000BF00BF00BFBFF34F8F00BF00BFC4
:105E100000BF00BF00BF00BFBFF36F8F00BF00BF58
:105E200000BF10BD84ED00E060EF00E000BF00BFE8
:105E300000BFBFF34F8F00BF00BF00BF00BF00BF58
:105E400000BFBFF36F8F00BF00BF00BF0020144929
:105E5000086000BF00BF00BFBFF34F8F00BF00BF8F
:105E600000BF00BF00BF00BFBFF36F8F00BF00BF08
:105E700000BF0C48006840F400300A49086000BFC9
:105E800000BF00BFBFF34F8F00BF00BF00BF00BF08
:105E900000BF00BFBFF36F8F00BF00BF00BF7047E0
:105EA00050EF00E014ED00E02DE9F04104460D460E
:105EB00043F2215705B105E040F2293211A121A09A
:105EC00003F0ACFC04B105E040F22E320DA11FA09E
:105ED00003F0A4FC2646002030607060B060F060E3
:105EE000287A3073287A012806D106F10800E9687B
:105EF00000F05AF9074600E000BF00BF3846BDE891
:105F0000F08100002E2E5C2E2E5C2E2E5C746F6FA6
:105F10006C735C73646B5C636F6D706F6E656E74D5
:105F2000735C73657269616C5F6D616E61676572E8
:105F30005C73657269616C5F6D616E616765722E1D
:105F400063000000636F6E666967000073657269C5
:105F5000616C48616E646C65000000002DE9F041E1
:105F600004460D4604B105E040F20C420CA11CA011
:105F700003F054FC05B105E040F20D4208A11CA05D
:105F800003F04CFC26462F46306818B143F22250ED
:105F9000BDE8F0810020286037603E6000BFF7E771
:105FA0002E2E5C2E2E5C2E2E5C746F6F6C735C73C9
:105FB000646B5C636F6D706F6E656E74735C73653C
:105FC0007269616C5F6D616E616765725C73657249
:105FD00069616C5F6D616E616765722E63000000C0
:105FE00073657269616C48616E646C6500000000E5
:105FF0007265616448616E646C6500002DE9F04172
:1060000004460D4604B105E040F2DB320BA11BA0B3
:1060100003F004FC05B105E04FF4777207A11BA063
:1060200003F0FCFB26462F46002028607068401CC9
:1060300070603E600020BDE8F08100002E2E5C2ED6
:106040002E5C2E2E5C746F6F6C735C73646B5C6380
:106050006F6D706F6E656E74735C73657269616C81
:106060005F6D616E616765725C73657269616C5FBB
:106070006D616E616765722E630000007365726901
:10608000616C48616E646C65000000007772697431
:106090006548616E646C65002DE9F04104460D466B
:1060A00016461F4643F2215875B1207B012807D1BF
:1060B0003A46314604F1080000F0DAF8804602E082
:1060C00043F2215800BF00BF4046BDE8F081000008
:1060D0002DE9F04104460D46164604B105E040F2B4
:1060E000063213A122A003F099FB05B105E040F2AE
:1060F00007320FA121A003F091FB06B105E04FF498
:1061000042720BA11FA003F089FBA046D8F80070D3
:1061100007B105E040F20D3205A11CA003F07EFBA3
:1061200033462A4641463846FFF7B6FFBDE8F081C0
:106130002E2E5C2E2E5C2E2E5C746F6F6C735C7337
:10614000646B5C636F6D706F6E656E74735C7365AA
:106150007269616C5F6D616E616765725C736572B7
:1061600069616C5F6D616E616765722E630000002E
:10617000777269746548616E646C65006275666605
:10618000657200006C656E677468000068616E641B
:106190006C65000070B504460D4616463246294629
:1061A0002046FFF795FF70BD2DE9FF4106460C46DE
:1061B00004B104E08B2216A125A003F02FFB06B149
:1061C00004E08C2212A126A003F028FB25463746C6
:1061D00068680190287A8DF80800687A8DF80900BF
:1061E000E87A8DF80A00287B8DF80B00286800906B
:1061F000A87A8DF80C0069463846FFF701F820B1FF
:1062000043F2215004B0BDE8F0810020FAE700001D
:106210002E2E5C2E2E5C2E2E5C746F6F6C735C7356
:10622000646B5C636F6D706F6E656E74735C7365C9
:106230007269616C5F6D616E616765725C736572D6
:1062400069616C5F706F72745F756172742E630048
:1062500073657269616C436F6E6669670000000068
:1062600073657269616C48616E646C650000000062
:106270002DE9F04104460D46164604B105E040F212
:106280000B120EA11DA003F0C9FA05B105E04FF4F1
:1062900086720AA11DA003F0C1FA06B105E040F222
:1062A0000D1206A11BA003F0B9FA27463246294673
:1062B0003846FFF747F8BDE8F08100002E2E5C2E2F
:1062C0002E5C2E2E5C746F6F6C735C73646B5C63FE
:1062D0006F6D706F6E656E74735C73657269616CFF
:1062E0005F6D616E616765725C73657269616C5F39
:1062F000706F72745F756172742E6300736572697A
:10630000616C48616E646C650000000062756666D1
:10631000657200006C656E67746800002DE9FF4FC0
:1063200091B01E464FF00009002700200690039010
:106330000190119D01E1252C05D0E2B2012306A9AF
:106340001398B047F8E0012004904FF0000A0020B5
:10635000079010E0681C05460478302C08DB392CC7
:1063600006DCA4F130000AEB8A0100EB410A02E0EE
:106370006D1E0120079007980028EBD0062005909D
:10638000681C054600782E281AD100200590079039
:1063900012E0681C05460478302C0ADB392C08DC36
:1063A000A4F13000059901EB810100EB410005905B
:1063B00002E06D1E0120079007980028E9D000E058
:1063C0006D1E681C05460478642C11D0692C0FD012
:1063D000662C0DD0462C0BD0782C09D0582C07D029
:1063E0006F2C05D0622C03D0702C01D0752C70D18D
:1063F000642C01D0692C11D1129800680290129877
:10640000001D129004980A23012202A9009008A8F6
:10641000FDF7DEFC074608A800EB0709582C01D061
:10642000782C15D1782C01D10020049012980068A6
:1064300001901298001D129004981023002201A9C7
:10644000009008A8FDF7C4FC074608A800EB070960
:106450006F2C05D0622C03D0702C01D0752C22D16A
:106460001298006801901298001D12906F2C02D1B2
:10647000082003900BE0622C02D10220039006E07A
:10648000702C02D11020039001E00A2003900498A0
:106490000090002201A908A8039BFDF799FC07467C
:1064A00008A800EB0709AAEB0703202206A9139806
:1064B000B047B9F1000F3ED005E019F801290123DA
:1064C00006A91398B04799F800000028F5D132E0EA
:1064D000FFE7632C0BD1129810F8041B01F0FF0B9F
:1064E00012905A46012306A91398B04723E0732C53
:1064F0001CD1129850F8048B1290B8F1000F1AD0EA
:106500004046FCF7CAF90746AAEB0703202206A972
:106510001398B04705E018F8012B012306A913983A
:10652000B04798F800000028F5D104E0E2B201235A
:1065300006A91398B04700BF6D1C2878041E7FF48D
:10654000FAAE069815B0BDE8F08F0000F8B5054624
:106550000E46684603F042F9002414E0C4EBC40080
:106560001A4901EB0010006860B1C4EBC40001EBF4
:10657000001090F86D00A84204D1009803F038F99B
:106580000120F8BD641C002CE8D0002417E0C4EB07
:10659000C4000E4901EB0010006878B9C4EBC400D8
:1065A00001EB001080F86D50C4EBC40001EB00104B
:1065B0003060009803F01CF90020E2E7641C002C16
:1065C000E5D0009803F014F90220DAE7040F002068
:1065D0002DE9F04780460F4614464FF00109254645
:1065E00026460C2F4FD008DC012F0DD0092F1AD0D2
:1065F0000A2F32D00B2F54D13EE00D2F4AD0152F49
:1066000038D0162F4DD136E0002028490872C872C4
:106610000931022001F062F920B92448417A40464C
:1066200002F082FE3EE0307820B900201F49087257
:10663000C87211E0307801280CD11C4908723078FA
:10664000C8721B494B8819491A4A4868032100F04F
:106650007FFC01E04FF0050924E01448007A40B1C6
:106660002A88100A2978022802DA104A0C321154BA
:1066700000BF17E016E015E024B12146404602F0C5
:1066800009FC81460EE024B12146404602F0E2FBBF
:10669000814607E024B12146404602F04FFC814686
:1066A00000E000BF00BF4846BDE8F087440200207C
:1066B0008600002054020020024600210DE001EB7C
:1066C0000110084B53F8200030B901EB011003EB27
:1066D0008000106000207047491C0029EFD0022084
:1066E000F9E70000A80E00202DE9F04180460E4693
:1066F000154601272C4614B90320BDE8F08100217E
:10670000A177606848B16068006830B1606832465F
:10671000012103682046984707463846EDE72DE9F2
:10672000F04180460E46154601272C4614B9032039
:10673000BDE8F08100212E200155606848B16068F5
:10674000006830B1606832460221036820469847ED
:1067500007463846ECE7000070B5054601262C4692
:106760000CB9032070BD206903F054F810B10DA0DE
:10677000FDF71EFC206A03F04DF810B109A0FDF7EB
:1067800017FC206B03F046F810B106A0FDF710FCD3
:10679000204600F013F80646204600F069FB30461C
:1067A000E0E700006D757465782064657374726F3E
:1067B00079206572726F72210000000070B5044686
:1067C0000126A06808B1E06808B9304670BD002510
:1067D0000AE0A268926805EB450312F813102068DE
:1067E00001F0D1FA06466D1CA0680079A842F0D8E5
:1067F00000250AE0E268926805EB450312F81310E1
:10680000206801F0C0FA06466D1CE0680079A842D5
:10681000F0D80020A060E0603046D7E72DE9F041D5
:1068200086B0044600254FF001081CB9404606B06A
:10683000BDE8F08194F8400030B194F84000616800
:1068400089684979884201DD4046F0E760688068E0
:10685000016894F84000401E01EBC006002032E0C1
:1068600000EB4002716811F8221002292AD10021A0
:1068700016E000EB4003726802EB8302526802EB01
:106880000112127894F842309A4208D100EB40038A
:10689000726802EB8302526802EB011508E0491CA2
:1068A00000EB4003726802EB8302127A8A42E0D85E
:1068B00000BF00EB4002716801EB8201C97884F8E7
:1068C000411003E0401C31788142C9D800BF0DB9A6
:1068D0004046ACE7A560002744E000208DF8140096
:1068E00007EB4701A86800EB410000798DF815001F
:1068F00007EB4701A86810F811008DF8120007EBAC
:106900004701A86800EB41004088ADF8100007EB94
:106910004701A86800EB410040788DF813009DF80E
:1069200012000121B1EBD01F14D19DF813000328F0
:1069300010D19DF8120000F00F013D2001550021FB
:106940003E200155491E616300213C200155A16391
:1069500050480190029401AA04A9206802F0AFFBFC
:1069600080467F1C2879B842B7D800202AE000EB87
:106970004002716811F822100A2922D1002116E084
:1069800000EB4003726802EB8302526802EB0112D3
:10699000127894F842309A4208D100EB40037268B2
:1069A00002EB8302526802EB011508E0491C00EB80
:1069B0004003726802EB8302127A8A42E0D800BF79
:1069C00003E0401C31788142D1D800BFE560002748
:1069D0005BE000208DF8140007EB4701A86800EB8E
:1069E000410000798DF8150007EB4701A86810F801
:1069F00011008DF8120007EB4701A86800EB410079
:106A00004088ADF8100007EB4701A86800EB410093
:106A100040788DF813009DF812000121B1EBD01FD2
:106A200012D19DF8130002280ED19DF8120000F03B
:106A30000F0161770021A177491E61610021217753
:106A4000A1611548019018E09DF81200C009A0B995
:106A50009DF81300022810D19DF8120000F00F01DC
:106A60002D20015500212E200155491E6162002173
:106A70002C200155A16209480190029401AA04A9A1
:106A8000206802F01CFB80467F1C2879B842A0D801
:106A90004046CCE6C94A000099420000CF420000BF
:106AA0002DE9F04F89B0804689461646012716B178
:106AB000B8F1000F03D1032009B0BDE8F08F4446C0
:106AC000B9F1070F6FD2DFE809F06EFD0408254920
:106AD0008E00002084F84000C2E13546606800B9AD
:106AE000BEE1287894F84010884200D1B8E12046F1
:106AF000FFF764FE0746287884F84000002084F8F9
:106B000042002046FFF78AFE074617B1D648FDF738
:106B10004FFAA5E1606800B9A2E1B6F800A00AF05A
:106B2000FF00049094F84100B0EB2A2F00D097E1C9
:106B300094F842100498814200D191E12046FFF779
:106B40003DFE0746049884F842002046FFF766FEA3
:106B5000074617B1C548FDF72BFA81E1606818B107
:106B6000A06808B1E06800B97AE135464FF0000B43
:106B700012E0A06880680BEB4B0110F81100297837
:106B8000884207D101213C2001552978206802F074
:106B9000F1FC07460BF1010BA06800795845E8D8D5
:106BA0004FF0000B1AE05AE1E06880680BEB4B01F4
:106BB00010F81100297888420ED128780121B1EB14
:106BC000D01F01D1217702E001212C200155297825
:106BD000206802F0CFFC07460BF1010BE06800795A
:106BE0005845E1D83CE1606818B1A06808B1E06898
:106BF00000B935E135464FF0000B39E0A0688068F8
:106C00000BEB4B0110F81100297888422ED129781E
:106C1000206802F020FD074628780121B1EBD01F43
:106C200024D13C20005D08B300213C200155606B5D
:106C3000B0F1FF3F1AD094F83D10D4E90D2320683D
:106C400002F061FB074667B1606B0190A06B029098
:106C500000208DF80C00424601A92068FFF744FD92
:106C600000BF4FF0FF3161630021A1630BF1010B05
:106C7000A06800795845C1D84FF0000B5FE0E0688C
:106C800080680BEB4B0110F811002978884254D131
:106C90002978206802F0DFFC074628780121B1EB53
:106CA000D01F25D1207F002847D00021217760699F
:106CB000B0F1FF3F41D0617FD4E90523206802F0A5
:106CC00022FB00E040E0074667B160690190A069DF
:106CD000029000208DF80C00424601A92068FFF7C1
:106CE00003FD00BF4FF0FF3161610021A16124E08D
:106CF0002C20005D08B300212C200155606AB0F102
:106D0000FF3F1AD094F82D10D4E90923206802F02F
:106D1000B1FA074667B1606A0190A06A029000204C
:106D20008DF80C00424601A92068FFF7F8FC00BF6F
:106D30004FF0FF3161620021A1620BF1010BE068AD
:106D4000007958459BD88BE0002E71D0B346DBF814
:106D50000000007994F84110884200D080E0DBF810
:106D60000000007800F06000202876D10BF10400CC
:106D70000590001D0690DBF800008088ADF81C002F
:106D8000DBF800004088ADF81E009BF80C008DF881
:106D90002000DBF800004078042831D007DC78B10F
:106DA000012815D002281BD0032853D120E0202829
:106DB00036D021282CD022283BD023284AD140E0AD
:106DC000606805AA0421036820469847074643E007
:106DD000606805AA052103682046984707463BE0FE
:106DE000606805AA0621036820469847074633E0F5
:106DF000606805AA072103682046984707462BE0EC
:106E0000606805AA0821036820469847074623E0E2
:106E1000606805AA092103682046984707461BE0D9
:106E2000606805AA0A21036820469847074613E0D0
:106E300014E0606805AA0B210368204698470746BE
:106E40000AE0606805AA0C210368204698470746B7
:106E500002E002E0052700BF00BF00BF00E000BF66
:106E600000BF384628E600006C840000288400003B
:106E7000014600200860486081F8400081F8420027
:106E800070470000F8B507460D46164601246846CF
:106E9000FFF712FC04460CB12046F8BD38460099B5
:106EA00000F0ACFC04460CB12046F6E70098006800
:106EB00008B90320F1E7009845600020009981F8A7
:106EC0004000FF20009981F842000098103002F045
:106ED00097FC10B10BA0FDF76BF80098203002F082
:106EE0008FFC10B107A0FDF763F80098303002F076
:106EF00087FC10B103A0FDF75BF8009830602046D6
:106F0000CBE700006D757465782063726561746508
:106F1000206572726F7221002DE9F04180460E46A5
:106F2000154601272C4614B90320BDE8F081002145
:106F30003E200155606848B16068006830B1606803
:106F40003246032103682046984707463846ECE757
:106F50002DE9F0470546894616461F464FF00108C1
:106F600015B90320BDE8F0872C462E20005D0128CE
:106F700001D10220F6E701212E2001552C20005DD1
:106F800018B16662A7620020ECE73B4632464946EC
:106F9000206802F06FF98046B8F1000F02D000219E
:106FA0002E2001554046DDE72DE9F04706460F4605
:106FB000904699464FF0010A002416B90320BDE817
:106FC000F0873546687FB84202D105F1100405E02C
:106FD0003D20405DB84201D105F13004D4B1A07B21
:106FE000012801D10220EAE70120A073207B28B10B
:106FF000C4F80480C4F808900020E0E74B464246FD
:107000003946286802F07FF98246BAF1000F01D0B4
:107010000020A0735046D2E72DE9F84F06460F46F0
:107020009046012000907C4C4546C2460D2F72D2FE
:10703000DFE807F0EC071E363B3C3D5B72737C8952
:10704000EB00DAF8040078B174494988DAF80400F2
:10705000B0FBF1F201FB120030B900231A46022105
:107060003046FFF7A1FF009001206D490860CEE097
:107070006C48007A012812D16A48807A01280ED122
:107080006949DAF8040008600846006838B96348BE
:107090004388664A03213046FFF75AFF0090B6E066
:1070A000002086F843000090B1E0B0E0AFE06889CE
:1070B00001280AD1287B012803D15D48296808608E
:1070C00010E00020696808600CE06889022809D196
:1070D000287B012803D157482968086002E0002076
:1070E000696808600020009091E06889012806D155
:1070F0004F482968086002206968086008E06889CC
:10710000022805D14B482968086002206968086098
:10711000002000907BE079E079E04748296808602A
:107120000720696808600020009070E0287B012833
:1071300003D141482968086002E0002069680860BE
:107140000020009063E0A87A33498873A07B00F0A8
:10715000020020B1208A40F00200208204E0208A50
:107160004FF6FD7108402082A07B00F0010020B1A5
:10717000208A40F00100208204E0208A4FF6FE7150
:1071800008402082A07B00F00100A072A1202070A6
:10719000202060700020A070E070207160710220DB
:1071A000A0710020E071287A207104F10809207C88
:1071B00089F80000208A000A89F801004FF00A0BC4
:1071C00096F8430070B95B46224601213046FFF72E
:1071D000EBFE0090009810B118A0FCF7E9FE01202A
:1071E00086F84300A07B00F0010030B10D48007A22
:1071F000012809D10B49887206E00A48007A012863
:1072000002D100200749887201E000E000BF00BF02
:107210000098BDE8F88F000054040020860000208C
:10722000B401002044020020B001002054020020DC
:10723000C0010020C4010020B80100206B5553425A
:107240005F4465766963654364634576656E745330
:107250006574436F6E74726F6C4C696E65537461C4
:107260007465206572726F7221000000F8B50446E3
:107270000F4615461E466A460621206801F014FE98
:107280009DF80000012804D09DF8000008B10520F9
:10729000F8BD0120306004F10C00286004F10C02FC
:1072A0001521206800F00CFAF2E72DE9FF470446AB
:1072B0000D46174698464FF0050A6888060A95F865
:1072C00002906A460621206801F0EEFD9DF800005C
:1072D00001280AD09DF8000038B19DF8000002286E
:1072E00003D0504604B0BDE8F087E8880290012E34
:1072F00006D101AA0B21206800F0E2F9824617E0CE
:10730000022E08D18DF80C9001AA0C21206800F003
:10731000D7F982460CE0032E0AD18DF80E90A8888A
:10732000ADF80C0001AA0D21206800F0C9F98246D1
:10733000019838600298C8F800005046D2E72DE95D
:10734000F84304460D4616461F464FF005086A46A8
:107350000621206801F0A8FD9DF8000010B140460C
:10736000BDE8F8830120386004F10C003060287912
:107370000002A08104F10C021621206800F0A0F99F
:107380008046A089A0814046EAE72DE9FC410446F9
:107390000D4617461E464FF0050801AA0621206833
:1073A00001F082FD9DF80400012805D09DF804003D
:1073B00010B14046BDE8FC81287800F01F0078B984
:1073C00004F10C020421206801F06EFD8046207B50
:1073D00000F00300A081A089A0810220306026E097
:1073E000287800F01F00012806D14FF00008002087
:1073F000A081022030601AE0287800F01F000228E7
:1074000015D128798DF800000020ADF802006A46F9
:107410000521206801F048FD8046BDF8020000F01B
:107420000300A081A089A0810220306000BF04F188
:107430000C0038604046BDE72DE9F84304460D4690
:107440001746984605266A460621206801F02CFD5D
:107450009DF8000003280DD09DF80000012809D0F8
:107460009DF80000022805D09DF8000010B13046BC
:10747000BDE8F8839DF80000032808D0A8780090A4
:107480006A460721206802F01BF806460EE000223B
:107490000721206802F014F806463EB9012000904A
:1074A0006A460621206802F00BF806463046DFE700
:1074B0002DE9FC4105460C46174698460526002056
:1074C000009001AA0621286801F0EEFC9DF8040056
:1074D000012805D09DF8040010B13046BDE8FC81BC
:1074E0006078032801D101200090207800F01F006F
:1074F00048B9608801282DD16A461421286800F017
:10750000DFF8064626E0207800F01F00022821D18F
:107510006088F8B9207900F00F0058B99DF8000094
:1075200020B12179286802F025F803E02179286844
:1075300002F091F89DF8000030B1221D0521286865
:1075400000F0E0F8064605E0221D0621286800F05C
:10755000D9F806463046C1E7F8B504460D4616464A
:107560001F466A460621206801F09EFC9DF8000037
:10757000012804D09DF8000008B10520F8BD0020C6
:1075800000906A460621206801F09AFF688830B9A9
:10759000012000906A460621206801F091FFAA1C94
:1075A0000321206800F0AEF8AA1C0921206800F031
:1075B00087F8E3E7F8B504460D4616461F466A46C7
:1075C0000621206801F070FC9DF8000008B105203C
:1075D000F8BD2979688861F31F20A08104F10C02AD
:1075E0000421206800F08EF804F10C020A212068C2
:1075F00000F066F8ECE72DE9F84304460D46164620
:107600001F464FF005086A460621206801F04CFC31
:107610009DF8000010B14046BDE8F883A888A0811D
:1076200004F10C020821206801F03EFC804604F1C0
:107630000C003060022038604046EDE7F8B50546A2
:107640000E46684602F0CAF8002410E01A4800EB23
:107650000410006850B1184800EB0410807BA84269
:1076600004D1009802F0C4F80120F8BD641C002C7D
:10767000ECD0002419E0104800EB0410006898B921
:107680000D4800EB041085730C4800EBC4000A4958
:1076900001EB04118860084800EB0410306000988A
:1076A00002F0A6F80020E0E7641C002CE3D000986C
:1076B00002F09EF80220D8E7EC0E0020FC0E00201D
:1076C000F8B506460C46174601256946304600F0D7
:1076D000E3F805460DB12846F8BD012C08D1304627
:1076E000009900F009FB02213046009A00F00AF8E8
:1076F000009840683A462146436830469847054618
:107700002846E9E72DE9F84F8046894617460126C5
:10771000B24617B90420BDE8F88F6946404600F02C
:10772000BBF806460EB10420F5E700242EE0002544
:1077300027E000984068006804EB440100EB8100FA
:1077400080680079154901EB0511097B884216D143
:1077500000994968096804EB440201EB820148681A
:107760000E4901EB05113A468B6849469847064693
:10777000052E00D1CFE70EB94FF0000A03E0681CD8
:10778000C5B2022DD5D300BF601CC4B200984068BA
:10779000007AA042CBDC5046BDE70000D08200005A
:1077A00038B505460024684602F018F81DE0124876
:1077B00000EB04100068B8B10F4800EB0410807BA8
:1077C000A84211D100200C4901EB041108600A49BC
:1077D00001EB04114860084901EB0411887300981B
:1077E00002F006F8002038BD641C002CDFD00098A1
:1077F00001F0FEFF0420F6E7EC0E0020F8B5054688
:107800000E460024684601F0E9FF15E00E4800EB43
:107810000410006878B10C4800EB0410807BA8428B
:1078200009D1094800EB041000683060009801F0AD
:10783000DFFF0020F8BD641C002CE7D0009801F0A9
:10784000D7FF0420F6E70000EC0E0020F8B505464F
:107850000E460024684601F0C1FF14E00D4800EB1D
:107860000410006870B10B4800EB0410807BA84244
:1078700008D1084800EB04103060009801F0B8FF10
:107880000020F8BD641C002CE8D0009801F0B0FF87
:107890000420F6E7EC0E0020F8B505460E4600245D
