:0200000460009A
:10000000464346420004015600000000000303007E
:100010000101000001040000400000000000000099
:1000200000000000000000000000000000000000D0
:1000300000000000000000000000000000000000C0
:1000400000000000010406000000000000000000A5
:100050000000800000000000000000000000000020
:100060000000000000000000000000000000000090
:100070000000000000000000100010000000000060
:10008000EB04180A063204260000000000000000FD
:10009000050404240000000000000000000000002F
:1000A0000000000000000000000000000000000050
:1000B0000604000000000000000000000000000036
:1000C000010401200000000000000000000000000A
:1000D0000000000000000000000000000000000020
:1000E0000000000000000000000000000000000010
:1000F0000000000000000000000000000000000000
:1001000000000000000000000000000000000000EF
:1001100000000000000000000000000000000000DF
:1001200000000000000000000000000000000000CF
:1001300000000000000000000000000000000000BF
:1001400000000000000000000000000000000000AF
:10015000000000000000000000000000000000009F
:10016000000000000000000000000000000000008F
:10017000000000000000000000000000000000007F
:10018000000000000000000000000000000000006F
:10019000000000000000000000000000000000005F
:1001A000000000000000000000000000000000004F
:1001B000000000000000000000000000000000003F
:1001C000000100000010000000000000000000001E
:1001D000000000000000000000000000000000001F
:1001E000000000000000000000000000000000000F
:1001F00000000000000000000000000000000000FF
:0200000460009A
:10100000D10020410020006000000000301000608E
:1010100020100060001000600000000000000000D0
:1010200000000060FFFF7F1F00000000FFFFFFFFC8
:10103000D2043041CC03AC04400FC068FFFFFFFF77
:10104000400FC06CFFFFFFFF400FC070FFFFFFFFAE
:10105000400FC074FFFFFFFF400FC078FFFFFFFF8E
:10106000400FC07CFFFFFFFF400FC080FFFFFFFF6E
:10107000400D803000002001400D8100001D000067
:10108000400FC01400010D40401F801400000000FC
:10109000401F801800000000401F801C000000005E
:1010A000401F802000000000401F8024000000003E
:1010B000401F802800000000401F802C000000001E
:1010C000401F803000000000401F803400000000FE
:1010D000401F803800000000401F803C00000000DE
:1010E000401F804000000000401F804400000000BE
:1010F000401F804800000000401F804C000000009E
:10110000401F805000000000401F8054000000007D
:10111000401F805800000000401F805C000000005D
:10112000401F806000000000401F8064000000003D
:10113000401F806800000000401F806C000000001D
:10114000401F807000000000401F807400000000FD
:10115000401F807800000000401F807C00000000DD
:10116000401F808000000000401F808400000000BD
:10117000401F808800000000401F808C000000009D
:10118000401F809000000000401F8094000000007D
:10119000401F809800000000401F809C000000005D
:1011A000401F80A000000000401F80A4000000003D
:1011B000401F80A800000000401F80AC000000001D
:1011C000401F80B000000010401F80B400000000ED
:1011D000401F80B800000000401F8204000110F989
:1011E000401F8208000110F9401F820C000110F915
:1011F000401F8210000110F9401F8214000110F9F5
:10120000401F8218000110F9401F821C000110F9D4
:10121000401F8220000110F9401F8224000110F9B4
:10122000401F8228000110F9401F822C000110F994
:10123000401F8230000110F9401F8234000110F974
:10124000401F8238000110F9401F823C000110F954
:10125000401F8240000110F9401F8244000110F934
:10126000401F8248000110F9401F824C000110F914
:10127000401F8250000110F9401F8254000110F9F4
:10128000401F8258000110F9401F825C000110F9D4
:10129000401F8260000110F9401F8264000110F9B4
:1012A000401F8268000110F9401F826C000110F994
:1012B000401F8270000110F9401F8274000110F974
:1012C000401F8278000110F9401F827C000110F954
:1012D000401F8280000110F9401F8284000110F934
:1012E000401F8288000110F9401F828C000110F914
:1012F000401F8290000110F9401F8294000110F9F4
:10130000401F8298000110F9401F829C000110F9D3
:10131000401F82A0000110F9401F82A4000110F9B3
:10132000401F82A8000110F9402F000010000004A7
:10133000402F000800030524402F000C060305245D
:10134000402F00108000001B402F00148200001B63
:10135000402F00188400001B402F001C8600001B3B
:10136000402F002090000021402F0024A0000019F1
:10137000402F0028A8000017402F002CA900001BB8
:10138000402F003000000021402F0004000079A809
:10139000402F004000000F31402F004400652922FB
:1013A000402F004800010920402F004C50210A081E
:1013B000402F008000000021402F00840088888892
:1013C000402F009400000002402F00980000000011
:1013D000402F009080000000402F009CA55A000F75
:1013E000CF000C1C402F003C00000001CC00140476
:1013F000402F009080000000402F009CA55A000C58
:10140000CF000C1C402F003C00000001CC00140455
:10141000402F009080000000402F009CA55A000C37
:10142000CF000C1C402F003C00000001CC001C042D
:10143000402F00A000000033402F009080000000EB
:10144000402F009CA55A000ACF000C1C402F003CE6
:1014500000000001CC000C04402F004C50210A0970
:0200000460009A
:1020000000000220192400603124006033240060A5
:10201000352400603724006039240060000000008F
:102020000000000000000000000000003B240060F1
:102030003D240060000000003F24006045AB0060CC
:1020400043240060472400604B2400604F2400605C
:1020500053240060572400605B2400605F2400600C
:1020600063240060672400606B2400606F240060BC
:1020700073240060772400607B2400607F2400606C
:1020800083240060FF240060FF240060FF240060C0
:10209000D16B00608B2400608F240060932400606B
:1020A000972400609B2400609F240060A3240060AC
:1020B000A7240060AB240060AF240060B32400605C
:1020C000B7240060BB240060BF240060C32400600C
:1020D000C7240060CB240060FF240060FF24006060
:1020E000FF240060FF240060FF240060FF240060E4
:1020F000FF240060FF240060FF240060FF240060D4
:10210000FF240060FF240060FF240060FF240060C3
:10211000FF240060FF240060FF240060FF240060B3
:10212000CF240060D3240060D7240060DB2400604B
:10213000DF240060FF240060FF240060FF240060B3
:10214000FF240060FF240060FF240060FF24006083
:10215000FF240060FF240060FF240060FF24006073
:10216000FF240060FF240060FF240060FF24006063
:10217000FF240060FF240060FF240060FF24006053
:10218000FF240060FF240060FF240060FF24006043
:10219000FF240060FF240060FF240060FF24006033
:1021A0000D4F0060FF240060E3240060E72400601E
:1021B000FF240060FF240060FF240060FF24006013
:1021C000FF240060FF240060FF240060FF24006003
:1021D000FF240060FF240060FF240060FF240060F3
:1021E000FF240060FF240060FF240060FF240060E3
:1021F000EB240060FF240060EF240060F324006003
:102200003101016021010160F7240060FB240060BE
:10221000FF240060FF240060FF240060FF240060B2
:10222000FF240060FF240060FF240060FF240060A2
:10223000FF240060FF240060FF240060FF24006092
:10224000FF240060FF240060FF240060FF24006082
:10225000FF240060FF240060FF240060FF24006072
:10226000FF240060FF240060FF240060FF24006062
:10227000FF240060FF240060FF240060FF24006052
:10228000FF240060FF240060FF240060FF24006042
:10229000FF240060FF240060FF240060FF24006032
:1022A000FF240060FF240060FF240060FF24006022
:1022B000FF240060FF240060FF240060FF24006012
:1022C000FF240060FF240060FF240060FF24006002
:1022D000FF240060FF240060FF240060FF240060F2
:1022E000FF240060FF240060FF240060FF240060E2
:1022F000FF240060FF240060FF240060FF240060D2
:10230000FF240060FF240060FF240060FF240060C1
:10231000FF240060FF240060FF240060FF240060B1
:10232000FF240060FF240060FF240060FF240060A1
:10233000FF240060FF240060FF240060FF24006091
:10234000FF240060FF240060FF240060FF24006081
:10235000FF240060FF240060FF240060FF24006071
:10236000FF240060FF240060FF240060FF24006061
:10237000FF240060FF240060FF240060FF24006051
:10238000FF240060FF240060FF240060FF24006041
:10239000FF240060FF240060FF240060FF24006031
:1023A000FF240060FF240060FF240060FF24006021
:1023B000FF240060FF240060FF240060FF24006011
:1023C000FF240060FF240060FF240060FF24006001
:1023D000FF240060FF240060FF240060FF240060F1
:1023E000FF240060FF240060FF240060FF240060E1
:1023F000FF240060FF240060FF240060FFFFFFFF58
:10240000DFF80CD000F086F9004800474D1C016051
:102410000000022040BA704772B63A483A4901605B
:102420000A6882F308883948804762B6384800470E
:10243000FEE7FEE7FEE7FEE7FEE7FEE7FEE7FEE774
:10244000FEE73448004734480047344800473448E2
:102450000047344800473448004734480047344870
:102460000047344800473448004734480047344860
:102470000047344800473448004734480047344850
:102480000047344800473448004734480047344840
:102490000047344800473448004734480047344830
:1024A0000047344800473448004734480047344820
:1024B0000047344800473448004734480047344810
:1024C0000047344800473448004734480047344800
:1024D00000473448004734480047344800473448F0
:1024E00000473448004734480047344800473448E0
:1024F00000473448004734480047344800473448D0
:102500000047000008ED00E00020006085AC00609E
:1025100001240060FF240060FF240060FF240060AD
:10252000FF240060FF240060FF240060FF2400609F
:10253000FF240060FF240060FF240060FF2400608F
:10254000FF240060FF240060FF240060FF2400607F
:10255000FF240060FF240060B56B0060E16B006049
:10256000FD6B0060196C0060356C0060516C0060A0
:102570006D6C0060896C006065630060756300606D
:1025800085630060FF240060FF240060FF2400607A
:10259000FF240060FF240060FF240060FF2400602F
:1025A000FF240060FF240060FF240060FF2400601F
:1025B000FF240060FF240060FF240060FF2400600F
:1025C0001104016031040160FF240060FF240060F9
:1025D000FF2400602DE9F05F0546002092469B46EF
:1025E00088460646814640241BE028464146474629
:1025F000224600F07EF853465A46C01A914110D345
:1026000011461846224600F065F82D1A67EB0108BE
:102610004F4622460120002100F05CF817EB00092C
:102620004E41201EA4F10104DFDC484631462A4613
:102630004346BDE8F09F40EA01039B0703D009E051
:1026400008C9121F08C0042AFAD203E011F8013B9E
:1026500000F8013B521EF9D27047D2B201E000F8F7
:10266000012B491EFBD270470022F6E710B5134636
:102670000A4604461946FFF7F0FF204610BD421CEB
:1026800010F8011B0029FBD1801A704710B50022F9
:1026900000E0521C835C8C5CA34201D1002BF8D17A
:1026A000D8B2E1B2401A10BD30B50B460146002049
:1026B0002022012409E021FA02F59D4205D303FA04
:1026C00002F5491B04FA02F52844151EA2F1010285
:1026D000F1DC30BD202A04DB203A00FA02F10020B0
:1026E00070479140C2F1200320FA03F31943904050
:1026F0007047202A04DB203A21FA02F000217047BB
:1027000021FA02F3D040C2F1200291400843194659
:1027100070470000064C074D06E0E06840F00103FA
:1027200094E8070098471034AC42F6D3FFF76CFEEC
:10273000D4240160F42401602DE9F041044600270F
:10274000B846606C00F4005028B14FF00108002139
:10275000204600F07DF80220E064A06C40F080008C
:10276000A06406E000BFE06C00F0020008B10127A1
:1027700004E0A06C00F080000028F3D100BF002529
:10278000082D00D205E04FF4A47215A122A00EF08E
:10279000B9FF206A0121A9400840E84000B901279B
:1027A00000BFE06C00F0020000B1012726460025C2
:1027B000082D00D205E04FF4987209A11DA00EF07B
:1027C000A1FF06F1240050F82500B8F1010F03D154
:1027D0000121204600F03CF83846BDE8F0810000B9
:1027E0002E2E5C2E2E5C2E2E5C2E2E5C2E2E5C2E23
:1027F0002E5C646576696365735C4D494D5852542F
:10280000313035325C647269766572735C66736C04
:102810005F6164632E6800006368616E6E656C477B
:10282000726F7570203C204144435F48435F434FC3
:10283000554E54006368616E6E656C47726F7570BB
:10284000203C204144435F525F434F554E540000AB
:1028500021B1426C42F40052426403E0426C22F423
:10286000005242647047000070B505460C46082CC3
:1028700000D205E04FF4987204A112A00EF042FFBE
:1028800005F1240050F8240070BD00002E2E2F2EDC
:102890002E2F2E2E2F2E2E2F2E2E2F2E2E2F6465E6
:1028A00076696365732F4D494D5852543130353236
:1028B0002F647269766572732F66736C5F616463EF
:1028C0002E6800006368616E6E656C47726F75708C
:1028D000203C204144435F525F434F554E5400001B
:1028E00070B505460C46082C00D205E04FF4A472E2
:1028F00004A112A00EF006FF286A0121A1400840A1
:10290000E04070BD2E2E2F2E2E2F2E2E2F2E2E2F4E
:102910002E2E2F2E2E2F646576696365732F4D49F9
:102920004D585254313035322F6472697665727366
:102930002F66736C5F6164632E6800006368616E6C
:102940006E656C47726F7570203C204144435F4850
:10295000435F434F554E540010B5044604B104E0A4
:1029600080220AA117A00EF0CDFE01206071002088
:1029700020706070A070E0702071A071E071032081
:102980002072002060720220A07210BD2E2E5C2EDC
:102990002E5C2E2E5C2E2E5C2E2E5C2E2E5C646504
:1029A00076696365735C4D494D5852543130353208
:1029B0005C647269766572735C66736C5F61646394
:1029C0002E6300004E554C4C20213D20636F6E66F7
:1029D0006967000070B50546002406E0094850F814
:1029E0002400A84200D102E0641C032CF6D300BFEF
:1029F000032C00D204E0482203A111A00EF082FEB5
:102A0000204670BDE02301602E2E5C2E2E5C2E2E03
:102A10005C2E2E5C2E2E5C2E2E5C646576696365C2
:102A2000735C4D494D585254313035325C64726993
:102A3000766572735C66736C5F6164632E6300001D
:102A4000696E7374616E6365203C20415252415936
:102A50005F53495A4528735F6164634261736573CC
:102A6000290000002DE9F04106460C4604B104E0BF
:102A70004F2225A132A00EF045FE3046FFF7AAFFF7
:102A8000334931F910700321384601F0E3F900BFF2
:102A9000706C00F46045A0794FF4C05101EAC02089
:102AA000E1794FF4407202EA01210843217A01F0F2
:102AB00003010843617A602202EA41110843A17AC6
:102AC0000C2202EA810108430543207808B145F44D
:102AD0008035207908B145F01005E07808B145F05F
:102AE0008005A07808B145F480657564B06C20F06D
:102AF0004105607808B145F04005607908B145F0BE
:102B00000105B564BDE8F0812E2E5C2E2E5C2E2EC4
:102B10005C2E2E5C2E2E5C2E2E5C646576696365C1
:102B2000735C4D494D585254313035325C64726992
:102B3000766572735C66736C5F6164632E6300001C
:102B40004E554C4C20213D20636F6E666967000036
:102B5000EC2301602DE9F04107460D46144604B10F
:102B600004E091220BA119A00EF0CCFD082D00D29B
:102B700004E0922207A119A00EF0C4FD207800F015
:102B80001F06207908B146F0800647F82560BDE8A9
:102B9000F08100002E2E5C2E2E5C2E2E5C2E2E5CE4
:102BA0002E2E5C2E2E5C646576696365735C4D49E0
:102BB0004D585254313035325C64726976657273A7
:102BC0005C66736C5F6164632E6300004E554C4C11
:102BD00020213D20636F6E66696700006368616E47
:102BE0006E656C47726F7570203C204144435F48AE
:102BF000435F434F554E540030B585B00024244800
:102C000024490860012048604FF4E130039000201F
:102C10008DF8100001208DF811008DF812001E486B
:102C200001900020029000F05DFB05461B482B46FA
:102C300001AA03A9009001200DF048FB00221549CC
:102C400016480DF0C3FB00201549087009F040FC40
:102C500009F092FF134A144902200CF033FD044698
:102C600024B112A002F0FCF805B030BD144A154999
:102C700003200CF027FD04461CB10CA002F0F0F874
:102C8000F2E70CF09DFD10A002F0EAF800BFEBE7C0
:102C9000700000200C00002015AD00600C01002029
:102CA0000800002041E4006000000020686F737499
:102CB00020696E6974206572726F720D0A000000DF
:102CC000BDE400600400002075736220686F7374B7
:102CD00020696E697420646F6E650D0A0000000043
:102CE0000EB5002002904B4903460246CDE9001084
:102CF0000521494803F0F0F941F2B00045490023AD
:102D00001A46CDE900100521434803F0D3F902AA81
:102D10001C21424802F060F900203E49091D03468B
:102D20000246CDE9001005213B48001D03F0D4F90F
:102D300041F2B0003749091D00231A46CDE90010C1
:102D400005213548001D03F0B5F902AA1D213348BD
:102D500002F042F900202F49083103460246CDE92E
:102D6000001005212C48083003F0B6F941F2B000FC
:102D70002849083100231A46CDE9001005212648CC
:102D8000083003F097F902AA1E21244802F024F922
:102D9000002020490C3103460246CDE900100521F0
:102DA0001D480C3003F098F941F2B00019490C317C
:102DB00000231A46CDE90010052117480C3003F016
:102DC00079F902AA1F21154802F006F91448FFF705
:102DD000C3FD13491348FFF745FE002030B11149E8
:102DE000496C41F400510F4A516405E00D49496CAA
:102DF00021F400510B4A516400BF0A48FFF79CFCC4
:102E000018B909A002F02CF802E010A002F028F88E
:102E10000EBD00001C831F402C811F4000801B4002
:102E2000DC01002000800C404144433220446F20EC
:102E3000416E746F2043616C6962726174696F6E78
:102E400020446F6E652E0D0A00000000414443329D
:102E500020446F204175746F2043616C6962726118
:102E600074696F6E204661696C65642E0D0A0000FE
:102E70002DE9F04100BF00BF00BF00BF55480088EA
:102E8000401C544908800120534908600020087103
:102E90000A4600215148FFF75DFE00BF00214F4860
:102EA000FFF71EFD0028F9D000214C48FFF7DCFC9D
:102EB00040F6E4414843040B214649A001F0D0FF0D
:102EC000022045490860002008710A460021434855
:102ED000FFF740FE00BF00214048FFF701FD00283A
:102EE000F9D000213D48FFF7BFFC40F6E4414843DC
:102EF000050B294640A001F0B3FF032036490860C6
:102F0000002008710A4600213448FFF723FE00BF65
:102F100000213248FFF7E4FC0028F9D000212F48B7
:102F2000FFF7A2FC40F6E4414843060B314638A0C7
:102F300001F096FF042028490860002008710A4625
:102F400000212648FFF706FE00BF00212348FFF7B7
:102F5000C7FC0028F9D000212048FFF785FC40F687
:102F6000E4414843070B39462FA001F079FF0020C8
:102F700018490880B4F5E17F22D940F28A208442C2
:102F80001ED240F2DA2085421AD940F2A2308542A0
:102F900016D2B6F5E17F13D940F28A2086420FD2CD
:102FA00040F2DA2087420BD940F2A230874207D2A2
:102FB0000021052004F08CFF21A004F03FFF06E073
:102FC0000021052004F084FF21A004F037FFBDE8B4
:102FD000F0810000300000202800002000800C401C
:102FE000414443322D312076616C75652069732030
:102FF0002564206D560D0A00414443322D3220765F
:10300000616C7565206973202564206D560D0A007A
:10301000414443322D332076616C756520697320FD
:103020002564206D560D0A00414443322D3420762C
:10303000616C7565206973202564206D560D0A004A
:1030400061646320202020206F6B2020000000009E
:1030500061646320202020206661696C000000000C
:103060004FF0FF3004498866C8660867486788677C
:10307000C867C8677047000000C00F4010B52548FA
:103080002549086000BF4FF400402449086000BF94
:103090000121234801F04CFC0121224801F048FCA9
:1030A0002148C06820F01F0040F012001E49C8608F
:1030B0001E4801F0B1FA1E4801F0DEFA1D4801F089
:1030C000EDFA01211C4801F06FFB00211B4801F0C3
:1030D0006BFB03211A4801F067FB0321194801F03B
:1030E00027FC00210F4801F023FCFFF7B9FF00F097
:1030F000F5FE00F009FF00F0F9FE00F0FFFE0021F0
:10310000114801F015FC0021104801F04DFB07F0BB
:1031100021FD10BD00366E01A4000020A800002093
:10312000186C0080143900140000084084220160EB
:10313000882201609422016010E0004014EA00043B
:1031400014680080187200802426008024E0078024
:1031500010B500BF00BF00BF00BF00BFBFF34F8F5F
:1031600000BF00BF00BF00BF00BF00BFBFF36F8F35
:1031700000BF00BF00BF5048006820F400304E4937
:10318000086000204D49086000BF00BF00BFBFF3CA
:103190004F8F00BF00BF00BF00BF00BF00BFBFF325
:1031A0006F8F00BF00BF00BF00BF04F0CFFF00BFA4
:1031B00000BF00BF00BF00BFBFF34F8F00BF00BF05
:1031C00000BF00BF00BF00BFBFF36F8F00BF00BFD5
:1031D00000BF39481030006820F480303649103183
:1031E000086035488030006820F0010032498031A5
:1031F000086000BF32483049883108603148091DF5
:1032000008603148091F08602E48801C091D0860AD
:103210002E48091F08602B48091D08601320091F4C
:1032200008602848801C091D08601420091F0860D8
:103230002748091D08602748091F08602448091D00
:1032400008602548091F08602148801C091D086086
:103250001D48801D091F08601D481030091D0860A9
:103260001E48091F08601E48091D0860042000BF91
:1032700000BF00BF00BFBFF34F8F00BF00BF00BF44
:1032800000BF00BF00BFBFF36F8F00BF00BF00BF14
:1032900040F00101084A8032116007491031096885
:1032A00041F48031044A1032116000BF04F09EFFE7
:1032B00005F038F810BD000014ED00E050EF00E01C
:1032C000100000C0390010031100008012000060DF
:1032D0002100030315000020160020201800E081C3
:1032E0002900080370B51648C1B2164A8958C0F3C0
:1032F0004C32C0F304239A401140C0F30422D14061
:1033000061B9114800F0FAFF0621B0FBF1F50F4852
:1033100000F0AEFE401CB5FBF0F40FE000BF0C481F
:10332000006800F0100008B10A4D01E00A48056885
:10333000064800F09DFE401CB5FBF0F4204670BD31
:103340002426008000C00F400D00100024E00780FC
:1033500070820D4000366E01A400002010B5FFF70A
:10336000C1FF0446234602224FF4E131014801F037
:1033700049FD10BD004018401CB540F202400190CC
:103380000321019800F0CEFB00BF0020FE49034658
:103390000246CDE900100221FC4802F0AAFE0020FE
:1033A000F949091D03460246CDE900100221F748FC
:1033B000001D02F09EFE41F2B000F34900231A46C0
:1033C000CDE900100221F14802F07AFE41F2B0008E
:1033D000ED49091D00231A46CDE900100221EB48F2
:1033E000001D02F06DFE0020E749C0310346024691
:1033F000CDE900100521E548C03002F07AFE00203A
:10340000E149D03103460246CDE900100146DF48CC
:10341000D03002F06EFE0020DB49D4310346024674
:10342000CDE900100146D948D43002F062FE0020F8
:10343000D549D83103460246CDE900100146D348AC
:10344000D83002F056FE0020CF49DC310346024658
:10345000CDE900100146CD48DC3002F04AFE0020E4
:10346000C949E03103460246CDE900100146C7488C
:10347000E03002F03EFE0020C349E431034602463C
:10348000CDE900100146C148E43002F032FEC048E8
:10349000BD49C03100231A46CDE900100521BB48C3
:1034A000C03002F00DFEBA48B749D03100231A46A9
:1034B000CDE900101946B548D03002F001FEB548FC
:1034C000B149D43100231A46CDE900101946AF485E
:1034D000D43002F0F5FDAE48AB49D83100231A468E
:1034E000CDE900101946A948D83002F0E9FDA848F6
:1034F000A549DC3100231A46CDE900101946A3483E
:10350000DC3002F0DDFDA2489F49E03100231A467D
:10351000CDE9001019469D48E03002F0D1FD9C48ED
:103520009949E43100231A46CDE90010194697481D
:10353000E43002F0C5FD0020974903460246CDE97C
:10354000001005219448183802F0D3FD00208E4960
:103550000C3903460246CDE9001005218B480C3892
:1035600002F0C7FD41F2B00087490C3900231A462A
:10357000CDE90010052185480C3802F0A1FD00209E
:103580008149083903460246CDE9001005217F48EC
:10359000083802F0AEFD41F2B0007B490839002343
:1035A0001A46CDE9001005217848083802F088FD58
:1035B00000207549091F03460246CDE90010052188
:1035C0007248001F02F095FD41F2B0006E49091FDC
:1035D00000231A46CDE9001005216C48001F02F0B7
:1035E0006FFD00206849343103460246CDE90010E2
:1035F00005216648343002F07CFD41F2B00062499A
:10360000343100231A46CDE9001005215F483430DB
:1036100002F056FD00205C49D83903460246CDE948
:10362000001001465948D83802F063FD0020564981
:10363000D43903460246CDE9001001465348D43838
:1036400002F057FD00205049D03903460246CDE92B
:10365000001001464D48D03802F04BFD00204A4989
:10366000CC3903460246CDE9001001464748CC3824
:1036700002F03FFD00204449C83903460246CDE927
:10368000001001464148C83802F033FD00203E4991
:10369000C43903460246CDE9001001463B48C43810
:1036A00002F027FD00203849C03903460246CDE923
:1036B000001001463548C03802F01BFD0020324999
:1036C000BC3903460246CDE9001001462F48BC38FC
:1036D00002F00FFD00202C49B83903460246CDE91F
:1036E000001001462948B83802F003FD00202649A1
:1036F000B43903460246CDE9001001462348B438E8
:1037000002F0F7FC00202049B03903460246CDE91B
:10371000001001461D48B03802F0EBFC00201A49A9
:10372000AC3903460246CDE9001001461748AC38D3
:1037300002F0DFFC00201449A83903460246CDE917
:10374000001001461148A83802F0D3FC00200E49B1
:10375000A43903460246CDE9001001460B48A438BF
:1037600002F0C7FC00200849A03903460246CDE913
:10377000001001460548A03802F0BBFC00200249B9
:103780009C390346024609E0DC821F40EC801F4062
:10379000897001008940010018800A40CDE90010BD
:1037A0000146A54802F0A5FC0020A44903460246B4
:1037B000CDE900100146A048001D02F09AFC00204F
:1037C0009E49091D03460246CDE9001001469A486C
:1037D000083002F08EFC002098490831034602466A
:1037E000CDE90010014694480C3002F082FC002024
:1037F00092490C3103460246CDE9001001468E483D
:10380000103002F076FC00208C491031034602464D
:10381000CDE9001001468848143002F06AFC00200F
:103820008649143103460246CDE90010014682481C
:10383000183002F05EFC0020804918310346024631
:10384000CDE9001001467C481C3002F052FC0020FB
:103850007A491C3103460246CDE9001001467648FC
:10386000203002F046FC0020744920310346024615
:10387000CDE9001001467048243002F03AFC0020E7
:103880006E49243103460246CDE9001001466A48DC
:10389000283002F02EFC00206849283103460246F9
:1038A000CDE90010014664482C3002F022FC0020D3
:1038B00062492C3103460246CDE9001001465E48BC
:1038C000303002F016FC00205C49303103460246DD
:1038D000CDE9001001465848343002F00AFC0020BF
:1038E0005649383103460246CDE900100146524898
:1038F0003C3002F0FEFB002050493C3103460246BA
:10390000CDE9001001464C48403002F0F2FB0020A7
:103910004A49403103460246CDE900100146464877
:10392000443002F0E6FB002044494431034602469D
:10393000CDE9001001464048483002F0DAFB002093
:103940003E49483103460246CDE9001001463A4857
:103950004C3002F0CEFB002038494C310346024681
:10396000CDE9001001463448503002F0C2FB00207F
:103970003249503103460246CDE9001001462E4837
:10398000543002F0B6FB00202C4954310346024665
:10399000CDE9001001462848583002F0AAFB00206B
:1039A0002649583103460246CDE900100146224817
:1039B0005C3002F09EFB0020204964310346024641
:1039C000CDE9001001461C48683002F092FB01204E
:1039D0001A49A83103461A4ACDE9001003211648B6
:1039E000AC3002F086FB4DF6B0001449A83101233B
:1039F000134ACDE9001003210F48AC3002F060FB00
:103A000001200E49AC3103460D4A121DCDE90010CC
:103A100003210948B03002F06CFB4DF6B0000749B5
:103A2000AC310123064A121DCDE9001003210248E2
:103A3000B03002F045FB1CBD50801F4044821F4047
:103A4000CC841F4010B590B0022000F021FB04464A
:103A500000200D900E900F90302101A8FEF704FE7B
:103A60000DA806F03DFC0DA9234806F0E9FC032053
:103A70008DF80400C0070290000C039001208DF81F
:103A8000100000208DF8110003208DF812008DF831
:103A9000130012208DF814008DF815007F208DF88A
:103AA00016000C208DF817001448B0FBF4F0C0B2DB
:103AB0008DF818002A208DF8190043208DF81A007F
:103AC0003C208DF81B008DF81C000C48B0FBF4F076
:103AD00000EB80004001089041F684600A900A984B
:103AE0000B9001208DF83000234601AA00210248E6
:103AF00006F0E2F910B010BD00002F4000CA9A3B5A
:103B000010B51221002000F099FD0021034800F0BB
:103B1000E9FD0121024800F0A9FE10BD24EB008060
:103B20001C3000802DE9F04104460E46270A04F0BF
:103B30001F08062F00D805E040F2663208A117A042
:103B40000DF0E0FD184800EB87052868032101FA15
:103B500008F1884306FA08F108432860BDE8F081BF
:103B60002E2E2F2E2E2F2E2E2F2E2E2F2E2E2F2E70
:103B70002E2F646576696365732F4D494D585254F5
:103B8000313035322F647269766572732F66736CCB
:103B90005F636C6F636B2E6800000000696E646584
:103BA00078203C3D2036000068C00F402DE9F041F0
:103BB00004460E46270A04F01F08062F00D805E029
:103BC00040F2663208A117A00DF09CFD184800EBEA
:103BD00087052868032101FA08F1884306FA08F1ED
:103BE00008432860BDE8F0812E2E2F2E2E2F2E2E7A
:103BF0002F2E2E2F2E2E2F2E2E2F64657669636585
:103C0000732F4D494D585254313035322F647269FB
:103C1000766572732F66736C5F636C6F636B2E686F
:103C200000000000696E646578203C3D203600008D
:103C300068C00F402DE9F04104460E46270A04F003
:103C40001F08062F00D805E040F2663208A117A031
:103C50000DF058FD184800EB87052868032101FA8C
:103C600008F1884306FA08F108432860BDE8F081AE
:103C70002E2E2F2E2E2F2E2E2F2E2E2F2E2E2F2E5F
:103C80002E2F646576696365732F4D494D585254E4
:103C9000313035322F647269766572732F66736CBA
:103CA0005F636C6F636B2E6800000000696E646573
:103CB00078203C3D2036000068C00F402DE9F041DF
:103CC00004460E46270A04F01F08062F00D805E018
:103CD00040F2663208A117A00DF014FD184800EB61
:103CE00087052868032101FA08F1884306FA08F1DC
:103CF00008432860BDE8F0812E2E5C2E2E5C2E2E0F
:103D00005C2E2E5C2E2E5C2E2E5C646576696365BF
:103D1000735C4D494D585254313035325C64726990
:103D2000766572735C66736C5F636C6F636B2E6831
:103D300000000000696E646578203C3D203600007C
:103D400068C00F402DE9F04104460E46270A04F0F2
:103D50001F08062F00D805E040F2663208A117A020
:103D60000DF0D0FC184800EB87052868032101FA04
:103D700008F1884306FA08F108432860BDE8F0819D
:103D80002E2E5C2E2E5C2E2E5C2E2E5C2E2E5C2E6D
:103D90002E5C646576696365735C4D494D58525479
:103DA000313035325C647269766572735C66736C4F
:103DB0005F636C6F636B2E6800000000696E646562
:103DC00078203C3D2036000068C00F402DE9F041CE
:103DD00004460E46270A04F01F08062F00D805E007
:103DE00040F2663208A117A00DF08CFC184800EBD9
:103DF00087052868032101FA08F1884306FA08F1CB
:103E000008432860BDE8F0812E2E5C2E2E5C2E2EFD
:103E10005C2E2E5C2E2E5C2E2E5C646576696365AE
:103E2000735C4D494D585254313035325C6472697F
:103E3000766572735C66736C5F636C6F636B2E6820
:103E400000000000696E646578203C3D203600006B
:103E500068C00F402DE9F04104460E46270A04F0E1
:103E60001F08062F00D805E040F2663208A117A00F
:103E70000DF048FC184800EB87052868032101FA7B
:103E800008F1884306FA08F108432860BDE8F0818C
:103E90002E2E5C2E2E5C2E2E5C2E2E5C2E2E5C2E5C
:103EA0002E5C646576696365735C4D494D58525468
:103EB000313035325C647269766572735C66736C3E
:103EC0005F636C6F636B2E6800000000696E646551
:103ED00078203C3D2036000068C00F404FF48050F1
:103EE000014908677047000000800D404FF4805082
:103EF0000149086070470000E0800D400020014942
:103F00000862704700800D404FF4805001490860FE
:103F100070470000A0800D4010B5044603212046E4
:103F2000FFF754FF10BD000008B5024613480068B3
:103F300040F00300114B803BC3F880001048D0F8DC
:103F4000400140F002000E4BC3F8400100200090F9
:103F500003E000BF0098401C00900A4B0098984274
:103F6000F7D30948006820F4F85041F20173184370
:103F7000064BC3F82001012008BD000080C00F409F
:103F800000002E40801A060020810D4000800D4068
:103F900018B503460C4600200090684600F07EFBF2
:103FA0000948006B20F00040074908630846006B91
:103FB00020F080400863002008600846006B40F451
:103FC000C6100863012018BD00900D4008B50246D8
:103FD0001348006840F00300114B803BC3F8800099
:103FE0001048D0F8400340F002000E4BC3F84003E5
:103FF0000020009003E000BF0098401C00900A4B96
:1040000000989842F7D30948006820F4F85041F22C
:1040100001731843064BC3F82001012008BD0000BE
:1040200080C00F4000002E40801A060020810D4005
:1040300000800D4018B503460C46002000906846ED
:1040400000F03EFB0948006B20F000400749086380
:104050000846006B20F08040086300200860084696
:10406000006B40F4C6100863012018BD00A00D408D
:104070000146C8B2054A8058C1F34C32C1F304234B
:104080009A401040C1F30422D040704700C00F4056
:1040900070B50546172D6FD2DFE805F00C0D173609
:1040A000474B50555A5F64696F74797E83888D924F
:1040B000989EA30000BF00F0BDF84F494969C1F3C5
:1040C0008221491CB0FBF1F492E04B48406900F0BA
:1040D000400070B14848406900F0800020B10120E4
:1040E00000F064FA044607E0022000F029FA0446D2
:1040F00002E000F09FF804463F484069C0F30240E8
:10410000401CB4FBF0F473E000F094F83A494969BC
:10411000C1F38221491CB0FBF1F437484069C0F378
:104120000120401CB4FBF0F462E000F073F8044698
:104130005EE000BF4FF4004400BF59E00D2000F0E6
:10414000DDF8044654E02D4800F0D8F804464FE06E
:10415000002000F02BFA04464AE0012000F026FA85
:10416000044645E0022000F021FA044640E0032026
:1041700000F01CFA04463BE038E0214800F0BEF8AD
:10418000044635E01F4800F0B9F8044630E000204E
:1041900000F0D6F904462BE0012000F0D1F90446E6
:1041A00026E0022000F0CCF9044621E0032000F0D4
:1041B000C7F904461CE0144800F0A0F8044617E0D4
:1041C0001148C01D00F09AF8044611E00E4808306E
:1041D00000F094F804460BE00C4800F08FF8044619
:1041E00006E00B4800F08AF8044601E0002400BF16
:1041F00000BF204670BD000000C00F400D00100041
:104200000D0020000D0030000D00E0000D007000DA
:104210000D00A0000448006800F0100008B1034839
:10422000704703480068FBE770820D4000366E015E
:10423000A400002010B52E48406900F0007040B383
:104240002B48806900F4405048B1B0F5805F0BD036
:10425000B0F5005F0CD0B0F5405F0ED10EE0254800
:1042600000F04CF804460BE0FFF7D4FF044607E0EB
:10427000214800F043F8044602E000BF002400BFDC
:1042800000BF1B484069C0F3C260401CB4FBF0F49F
:104290002BE01748806900F4402048B1B0F5802F2A
:1042A0000BD0B0F5002F0DD0B0F5402F1AD10EE095
:1042B000114800F023F8044616E0022000F040F90F
:1042C000044611E0002000F03BF904460CE00D200C
:1042D00000F014F80649096901F00701491CB0FB18
:1042E000F1F401E0002400BF00BF204610BD000033
:1042F00000C00F400D0010000D0030002DE9FF47F9
:104300008146894BD3E90020D3E9021301AC0BC4E9
:10431000009286494846C0F30B428A5800F01F07B6
:104320000123BB401A400AB1012200E000221AB961
:10433000002004B0BDE8F0877C4FC846C8F30B40AE
:104340003858C0F3813010B9FFF764FF00E0002057
:1043500004467648C9F30B414158C1F3004109B105
:104360002046E6E77249A9EB0100894548D00DDCFB
:10437000B9F10D0F18D0A9F580100D3880B3B0F544
:10438000801F6ED0B0F5001F6CD114E0B0F5401F57
:1043900070D0B0F5E00F67D0A0F5E000C01F002896
:1043A0007ED00128F0D1AEE06048006800F07F00C8
:1043B00060434408B5E05D48D0F860C0006DA4FBE0
:1043C00000700146624600233846FEF703F90546B1
:1043D0005648006B00F0010018B11620444303E07A
:1043E00004E004EB840084002C449AE04F48006908
:1043F00000F0030008B1162000E01420444390E0D0
:104400004A48006F00F07F0A48489030D0F800C05A
:104410004648D0F88000A4FB0070014662460023A5
:104420003846FEF7D7F8054604FB0A543F48006FAC
:1044300000F4C01018B1B0F5002F04D101E0A408B9
:1044400002E0640800E000BF00BF3A4800683A4953
:104450000840B0F5004F08D04942084438B9A408D4
:1044600006E052E05BE005E03DE0640800E000BFEC
:1044700000BF56E02D48A030006800F07F0A2B48AE
:10448000D0F8C0C0B0300068A4FB0070014662469E
:1044900000233846FEF79EF8054604FB0A5400E068
:1044A00029E02248D0F8A00000F4C01018B1B0F5FF
:1044B000002F04D101E0A40802E0640800E000BF7E
:1044C00000BF1C48006800F04040B0F1404F03D0EE
:1044D000B0F1804F04D101E0A40802E0640800E0DC
:1044E00000BF00BF1DE013489038006800F0030AC9
:1044F0005DF82A4015E00F4890380068C0F3810A43
:104500005DF82A400DE00D4C0BE00848006A00F011
:10451000030008B1162000E01420444301E0002409
:1045200000BF00BF204604E71C23016000800D404F
:104530000D00700070810D400080800040787D018A
:1045400070B505461748FFF7D9FE044635B1012D71
:104550000BD0022D10D0032D1CD114E0124800689E
:1045600000F03F00B4FBF0F416E00F480068C0F321
:104570000520B4FBF0F40FE00B480068C0F30540E1
:10458000B4FBF0F408E008480068C0F30560B4FB31
:10459000F0F401E0002400BF00BF04EBC4004400BD
:1045A000204670BD0D00300000810D4070B50546FD
:1045B0001748FFF7A3FE044635B1012D0BD0022D9D
:1045C00010D0032D1CD114E01248006800F03F0009
:1045D000B4FBF0F416E00F480068C0F30520B4FB0C
:1045E000F0F40FE00B480068C0F30540B4FBF0F4B2
:1045F00008E008480068C0F30560B4FBF0F401E08F
:10460000002400BF00BF04EBC4004400204670BD7E
:104610000D001000F0800D40017801F07F0141F4A1
:104620000051054A116000BF0349096801F00041CB
:104630000029F9D07047000000800D4070B50A468F
:1046400001460B4C2468CE00BF25B54024EA050383
:10465000CD008024AC401C43064DC5F8004102F05B
:104660003F04CD00AC401C43014D2C6070BD0000E8
:1046700000810D4000800D40017801F0010141F4FE
:104680000051054A116300BF0349096B01F0004165
:104690000029F9D07047000000800D40017801F03A
:1046A000030141F44151054A116100BF0349096901
:1046B00001F000410029F9D07047000000800D4052
:1046C000017801F0030141F44151054A116200BF34
:1046D0000349096A01F000410029F9D07047000040
:1046E00000800D4070B504460E463F2000EA9465F8
:1046F000E0B215494158C4F34C30C4F30422904051
:1047000021EA0000C4F3042206FA02F1C4F34C3299
:10471000C4F304239A4011400843E1B20A4A885086
:10472000202D00D805E04FF4517208A116A00CF01E
:10473000E9FF202D07D000BF0348806C0121A9406C
:1047400008400028F8D170BD00C00F402E2E2F2E3B
:104750002E2F2E2E2F2E2E2F2E2E2F2E2E2F646507
:1047600076696365732F4D494D5852543130353257
:104770002F647269766572732F66736C5F636C6FFA
:10478000636B2E6800000000627573795368696678
:1047900074203C3D2043434D5F4E4F5F425553597B
:1047A0005F5741495400000070B504460E463F2053
:1047B00000EA9465E0B215494158C4F34C30C4F3A3
:1047C0000422904021EA0000C4F3042206FA02F118
:1047D000C4F34C32C4F304239A4011400843E1B2BD
:1047E0000A4A8850202D00D805E04FF4517208A1E4
:1047F00016A00CF087FF202D07D000BF0348806C67
:104800000121A94008400028F8D170BD00C00F4028
:104810002E2E2F2E2E2F2E2E2F2E2E2F2E2E2F2EB3
:104820002E2F646576696365732F4D494D58525438
:10483000313035322F647269766572732F66736C0E
:104840005F636C6F636B2E680000000062757379A4
:104850005368696674203C3D2043434D5F4E4F5F73
:10486000425553595F5741495400000070B5044602
:104870000E463F2000EA9465E0B215494158C4F362
:104880004C30C4F30422904021EA0000C4F3042217
:1048900006FA02F1C4F34C32C4F304239A401140E7
:1048A0000843E1B20A4A8850202D00D805E040F2C2
:1048B0001F3208A116A00CF025FF202D07D000BF45
:1048C0000348806C0121A94008400028F8D170BD40
:1048D00000C00F402E2E2F2E2E2F2E2E2F2E2E2F9D
:1048E0002E2E2F2E2E2F646576696365732F4D490A
:1048F0004D585254313035322F6472697665727377
:104900002F66736C5F636C6F636B2E680000000032
:10491000627573795368696674203C3D2043434D4A
:104920005F4E4F5F425553595F5741495400000055
:1049300070B504460E463F2000EA9465E0B2154982
:104940004158C4F34C30C4F30422904021EA0000E3
:10495000C4F3042206FA02F1C4F34C32C4F3042374
:104960009A4011400843E1B20A4A8850202D00D8ED
:1049700005E040F21F3208A116A00CF0C3FE202D66
:1049800007D000BF0348806C0121A94008400028DF
:10499000F8D170BD00C00F402E2E2F2E2E2F2E2EA0
:1049A0002F2E2E2F2E2E2F2E2E2F646576696365C7
:1049B000732F4D494D585254313035322F6472693E
:1049C000766572732F66736C5F636C6F636B2E68B2
:1049D00000000000627573795368696674203C3D7D
:1049E0002043434D5F4E4F5F425553595F574149F6
:1049F0005400000010B5044604B105E040F259121D
:104A00002DA130A00CF07EFEB03430A0D4E900120D
:104A100000F026FA34A000F023FAE07AB03C012836
:104A200003D137A000F01CFA06E094F8BB0003287D
:104A300002D138A000F014FA94F8B80078B994F8CC
:104A4000BB00012803D138A000F00AFA2EE094F848
:104A5000BB0003282AD13CA000F002FA26E094F81B
:104A6000B80001280BD194F8BB00032803D13DA066
:104A700000F0F6F91AE041A000F0F2F916E094F81F
:104A8000B800022803D144A000F0EAF90EE094F83F
:104A9000B800032803D146A000F0E2F906E094F83C
:104AA000B800042802D148A000F0DAF94CA0A16BAC
:104AB00000F0D6F910BD00002E2E2F6170702E630D
:104AC0000000000063617264000000002020636148
:104AD00072642073697A65202564202A2025642069
:104AE00062797465730D0A002020776F726B696EAE
:104AF0006720636F6E646974696F6E3A0D0A000017
:104B00002020766F6C746167653A20332E33560D22
:104B10000A0000002020766F6C746167653A2031CE
:104B20002E38560D0A000000202074696D696E67EA
:104B3000206D6F64653A2044656661756C74206D04
:104B40006F64650D0A000000202074696D696E674E
:104B5000206D6F64653A205344523132206D6F648A
:104B6000650D0A00202074696D696E67206D6F64A1
:104B7000653A2053445232350D0A000020207469F2
:104B80006D696E67206D6F64653A204869676820BB
:104B900053706565640D0A00202074696D696E6745
:104BA000206D6F64653A2053445235300D0A000081
:104BB000202074696D696E67206D6F64653A2053BB
:104BC00044523130340D0A00202074696D696E67DB
:104BD000206D6F64653A2044445235300D0A000060
:104BE0002020667265713A20256420485A0D0A001B
:104BF00070B52E4C2E4820600020FFF7A1FC024625
:104C00002C48C1B22C4BC958C0F34C33C0F3042517
:104C1000AB401940C0F30423D940491CB2FBF1F06A
:104C200060602648E06226A000F01AF9204604F0F1
:104C30006DFB20B126A000F013F9002070BD03F039
:104C40000DFD002826D027A000F00AF9204604F028
:104C500093FB204603F0D6FF58B127A000F000F9DF
:104C60000021022003F034F929A003F0E7F8002026
:104C7000E4E72046FFF7BEFE204604F0B7F82849D7
:104C800008700021022003F023F926A003F0D6F8D3
:104C90000120D3E727A000F0E3F80021022003F071
:104CA00017F91BA003F0CAF80020C7E72001002075
:104CB00000002C4024EB008000C00F40541F016016
:104CC000736420636172642073746172740D0A00EE
:104CD000736420686F737420696E697420666169FB
:104CE0006C0D0A007364206361726420696E7365E1
:104CF000727465640D0A000073642063617264203D
:104D0000696E6974206661696C65640D0A00000053
:104D100073642020202020206661696C0000000060
:104D20001400002073642020202020206F6B20209E
:104D30000000000073642063617264206465746520
:104D40006374206661696C0D0A0000002DE9F04F64
:104D500007468C46914600203946834601F801BB40
:104D6000B9F1000F1ED0DCF8004034B94FF0300B21
:104D700081F800B0401CBDE8F08F10E094FBF3F820
:104D800008FB1345002D05DA2A466FEA020B0BF1EA
:104D9000310500E03035444601F8015B401C002C31
:104DA000ECD125E0DCF800602EB94FF0300B81F833
:104DB00000B0401CDFE719E0B6FBF3FA0AFB136210
:104DC0000A2A01D230320DE0A2F10A0BDDF824E00C
:104DD000BEF1000F02D04FF0410E01E04FF0610E26
:104DE0000BEB0E02564601F8012B401C002EE3D1BE
:104DF00000BFC0E708B5684601F06CFA9DF80000F6
:104E000008BD00002DE9F04106460D4614461F4638
:104E100004B104E06922064906A00CF073FC3B468D
:104E20002A462146304601F0FBF9BDE8F08100003A
:104E30009024016064657669636520213D204445C6
:104E40004255475F434F4E534F4C455F444556498B
:104E500043455F545950455F4E4F4E45000000009A
:104E60000FB430B5A1B00024002580216846FDF7BD
:104E7000FBFB25A82090094B6A462099249805F051
:104E800049FD04462146684601F0EEF9054600203A
:104E90002090284621B030BC5DF814FBA14E006084
:104EA0002DE9F04105460C4616461F464FF0000816
:104EB00000BF10E02068401C802805D328462168E8
:104EC00001F0D2F90020206020682E542068401C98
:104ED000206008F10108B845ECDBBDE8F08101462F
:104EE00011F1800F01D1012070470846002809DB2D
:104EF00000F01F0301229A4043099B0003F1E023C5
:104F0000C3F8002100BF0020EEE7000010B501202B
:104F10000A49886100BF0CF02BFE01200849087087
:104F20000021064800F08CF818B9002005490870E7
:104F300002E001200349087010BD000000000C4091
:104F4000180000201900002070B50546002406E076
:104F5000094850F82400A84200D102E0641C062C45
:104F6000F6D300BF062C00D204E04E2203A111A00C
:104F70000CF0C8FB204670BD742301602E2E2F2E2E
:104F80002E2F2E2E2F2E2E2F2E2E2F2E2E2F6465CF
:104F900076696365732F4D494D585254313035321F
:104FA0002F647269766572732F66736C5F677069C0
:104FB0006F2E6300696E7374616E6365203C2041DF
:104FC000525241595F53495A4528735F6770696F60
:104FD00042617365732900002DE9F04104460D46D6
:104FE00016462046FFF7B0FF144931F9107003212F
:104FF0003846FEF71FFE00BF60690121A9408843C3
:105000006061307828B960680121A94088436060F8
:105010000BE077783A462946204600F089F800BF31
:1050200060680121A94008436060B7783A46294684
:10503000204600F037F800BFBDE8F0818C23016006
:1050400070B505460C46202C00D204E0B42204A121
:1050500011A00CF057FB2868E04000F0010070BD83
:105060002E2E2F2E2E2F2E2E2F2E2E2F2E2E2F2E5B
:105070002E2F646576696365732F4D494D585254E0
:10508000313035322F647269766572732F66736CB6
:105090005F6770696F2E680070696E203C20333244
:1050A00000000000F0B503460C462146DD690126EC
:1050B000A640B543DD61102C02D203F10C0002E0E2
:1050C00003F110001039062A2ED2DFE802F02D037A
:1050D0000A15202705684F000326BE40B54305602A
:1050E00023E005684F000326BE40B5434F0001266C
:1050F000BE403543056018E005684F000326BE40FA
:10510000B5434F000226BE40354305600DE00568FB
:105110004F000326BE403543056006E0DD690126E9
:10512000A6403543DD6100E000BF00BFF0BD0000D8
:1051300070B504460D461646202D00D204E06E22BE
:1051400008A116A00CF0DEFA2EB920680121A940B2
:105150008843206004E021680120A84001432160C9
:1051600070BD00002E2E2F2E2E2F2E2E2F2E2E2FE6
:105170002E2E2F2E2E2F646576696365732F4D4971
:105180004D585254313035322F64726976657273DE
:105190002F66736C5F6770696F2E630070696E2095
:1051A0003C203332000000001FB500200390FE4871
:1051B000006802900020FD4903460246CDE9001038
:1051C0000521FB4800F088FF41F2B000F7490023B9
:1051D0001A46CDE900100521F54800F06BFF02AA40
:1051E0000421F448FFF7F8FE0020F049091D0346AA
:1051F0000246CDE900100521ED48001D00F06CFFCE
:1052000041F2B000E949091D00231A46CDE900101A
:105210000521E748001D00F04DFF02AA0521E548E1
:10522000FFF7DAFE0020E149083103460246CDE9E6
:1052300000100521DE48083000F04EFF41F2B000BA
:10524000DA49083100231A46CDE900100521D84873
:10525000083000F02FFF02AA0621D648FFF7BCFE57
:105260000020D2490C3103460246CDE90010052149
:10527000CF480C3000F030FF41F2B000CB490C3188
:1052800000231A46CDE900100521C9480C3000F072
:1052900011FF02AA0721C748FFF79EFE0020C3495D
:1052A000103103460246CDE900100521C0481030F8
:1052B00000F012FF41F2B000BC49103100231A4641
:1052C000CDE900100521BA48103000F0F3FE02AA23
:1052D0000821B848FFF780FE0020B4491431034686
:1052E0000246CDE900100521B148143000F0F4FE6B
:1052F00041F2B000AD49143100231A46CDE9001047
:105300000521AB48143000F0D5FE02AA0921A948B6
:10531000FFF762FE0020A5491C3103460246CDE995
:1053200000100521A2481C3000F0D6FE41F2B0006A
:105330009E491C3100231A46CDE9001005219C48E6
:105340001C3000F0B7FE02AA0B219A48FFF744FE7A
:1053500000209649203103460246CDE90010052180
:105360009348203000F0B8FE41F2B0008F49203160
:1053700000231A46CDE9001005218D48203000F0A9
:1053800099FE02AA0C218B48FFF726FE00208749D0
:10539000303903460246CDE90010052184483038F3
:1053A00000F09AFE41F2B0008049303900231A46DD
:1053B000CDE9001005217E48303800F07BFE02AABE
:1053C00018217D48FFF708FE0020784988390346F8
:1053D0000246CDE9001005217548883800F07CFEB2
:1053E00041F2B0007149883900231A46CDE9001016
:1053F00005216F48883800F05DFE02AA02216E4840
:10540000FFF7EAFD00206949383103460246CDE93D
:10541000001005216648383000F05EFE41F2B00011
:105420006249383100231A46CDE900100521604851
:10543000383000F03FFE03AA12215E48FFF7CCFD92
:1054400000205A493C3103460246CDE900100521AF
:1054500057483C3000F040FE41F2B00053493C3127
:1054600000231A46CDE90010052151483C3000F0D8
:1054700021FE03AA13214F48FFF7AEFD00204B4940
:105480000C3903460246CDE90010052148480C3886
:1054900000F022FE41F2B00044490C3900231A46C4
:1054A000CDE90010052142480C3800F003FE03AAA4
:1054B00001214048FFF790FD00203C490839034690
:1054C0000246CDE9001005213948083800F004FEF5
:1054D00041F2B0003549083900231A46CDE90010E1
:1054E00005213348083800F0E5FD03AA02213148C0
:1054F000FFF772FD00202D49343103460246CDE905
:10550000001005212A48343000F0E6FD41F2B000D9
:105510002649343100231A46CDE9001005212448DC
:10552000343000F0C7FD03AA11212248FFF754FDD3
:1055300000201E49091F03460246CDE9001005213F
:105540001B48001F00F0C8FD41F2B0001749091FB9
:1055500000231A46CDE9001005211548001F00F070
:10556000A9FD03AA03211348FFF736FD00200F49C8
:10557000103903460246CDE9001005210C481038C9
:1055800000F0AAFD41F2B0000849103900231A4684
:10559000CDE9001005210648103800F08BFD03AA64
:1055A000002104480AE00000741F01603C831F4092
:1055B0004C811F4000C01B4000801B40FFF70CFDCA
:1055C0000020FE4903460246CDE900100521FC48B3
:1055D00000F082FD41F2B000F84900231A46CDE9FF
:1055E00000100521F64800F065FD03AA1021F548DA
:1055F000FFF7F2FC0020F149083903460246CDE9E5
:1056000000100521EE48083800F066FD41F2B000B8
:10561000EA49083900231A46CDE900100521E84877
:10562000083800F047FD03AA0E21E648FFF7D4FC36
:105630000020E249091F03460246CDE9001005217A
:10564000DF48001F00F048FD41F2B000DB49091FB0
:1056500000231A46CDE900100521D948001F00F0AB
:1056600029FD03AA0F21D748FFF7B6FC0020D34934
:105670002C3103460246CDE900100521D0482C30DC
:1056800000F02AFD41F2B000CC492C3100231A462B
:10569000CDE900100521CA482C3000F00BFD02AA0C
:1056A0001B21C848FFF798FC0020C4491831034665
:1056B0000246CDE900100521C148183000F00CFD6C
:1056C00041F2B000BD49183100231A46CDE900105F
:1056D0000521BB48183000F0EDFC02AA1621B9489C
:1056E000FFF77AFC0020B549C43903460246CDE9EC
:1056F00000100521B248C43800F0EEFC41F2B000C1
:10570000AE49C43900231A46CDE900100521AC4842
:10571000C43800F0CFFC02AA1B21AB48FFF75CFCA9
:105720000020A649C83903460246CDE900100521EC
:10573000A348C83800F0D0FC41F2B0009F49C839F6
:1057400000231A46CDE9001005219D48C83800F015
:10575000B1FC02AA1A219C48FFF73EFC00209749A1
:10576000143103460246CDE9001005219448143057
:1057700000F0B2FC41F2B0009049143100231A4607
:10578000CDE9001005218E48143000F093FC02AAE8
:1057900015218C48FFF720FC002088491031034672
:1057A0000246CDE9001005218548103000F094FC38
:1057B00041F2B0008149103100231A46CDE90010B2
:1057C00005217F48103000F075FC02AA14217D48A5
:1057D000FFF702FC00207949703903460246CDE903
:1057E000001005217648703800F076FC41F2B000D8
:1057F0007249703900231A46CDE90010052170481E
:10580000703800F057FC02AA14217048FFF7E4FB3F
:1058100000206A496C3903460246CDE90010052193
:1058200067486C3800F058FC41F2B00063496C39AD
:1058300000231A46CDE90010052161486C3800F0BC
:1058400039FC02AA15216148FFF7C6FB00205B491D
:10585000683903460246CDE90010052158486838EA
:1058600000F03AFC41F2B0005449683900231A466E
:10587000CDE9001005215248683800F01BFC02AA4F
:1058800016215248FFF7A8FB00204C496439034613
:105890000246CDE9001005214948643800F01CFC9F
:1058A00041F2B0004549643900231A46CDE90010A1
:1058B00005214348643800F0FDFB02AA1721434844
:1058C000FFF78AFB00203D49203103460246CDE91F
:1058D000001005213A48203000F0FEFB41F2B000F4
:1058E0003649203100231A46CDE9001005213448FD
:1058F000203000F0DFFB03AA18213248FFF76CFBD1
:1059000000202E491C3103460246CDE90010052136
:105910002B481C3000F0E0FB41F2B00027491C315D
:1059200000231A46CDE90010052125481C3000F05F
:10593000C1FB03AA17212348FFF74EFB00201F4994
:10594000243103460246CDE9001005211C482430CD
:1059500000F0C2FB41F2B0001849243100231A467E
:10596000CDE9001005211648243000F0A3FB03AA5E
:1059700019211448FFF730FB002010492831034655
:105980000246CDE9001005210D48283000F0A4FBA7
:1059900041F2B0000949283100231A46CDE9001030
:1059A00005210748283000F085FB03AA1A21054885
:1059B000FFF712FB00200149883909E06C831F4082
:1059C0007C811F4000C01B4000001C4000801B4029
:1059D00003460246CDE900100521554800F07CFB46
:1059E00041F2B000534900231A46CDE900100521C9
:1059F0004F4800F05FFB03AA0E214F48FFF7ECFA77
:105A000000204C49091D03460246CDE9001005213E
:105A10004748001D00F060FB41F2B0004549091DF8
:105A200000231A46CDE9001005214148001D00F071
:105A300041FB03AA0F214048FFF7CEFA00203D4961
:105A4000303103460246CDE9001005213848303098
:105A500000F042FB41F2B0003649303100231A46D3
:105A6000CDE9001005213248303000F023FB03AAB5
:105A70001A213148FFF7B0FA00202E49343103468D
:105A80000246CDE9001005212948343000F024FBFE
:105A900041F2B0002749343100231A46CDE9001005
:105AA00005212348343000F005FB03AA1B212248BE
:105AB000FFF792FA00201F49103103460246CDE954
:105AC000001005211A48103000F006FB41F2B0002A
:105AD0001849103100231A46CDE900100521144859
:105AE000103000F0E7FA03AA12211348FFF774FA06
:105AF00000201049143103460246CDE9001005216B
:105B00000B48143000F0E8FA41F2B00009491431B2
:105B100000231A46CDE9001005210548143000F095
:105B2000C9FA03AA13210448FFF756FA1FBD000063
:105B3000F4801F40E4821F4000801B402DE9F04F9D
:105B400095B000201490FE480088401CFC49088055
:105B50000020088001220421FA48FFF7E9FA002218
:105B60000521F848FFF7E4FA01220621F548FFF77E
:105B7000DFFA00220721F348FFF7DAFA01220821B1
:105B8000F048FFF7D5FA00220921EE48FFF7D0FAD6
:105B900001220B21EB48FFF7CBFA00220C21E94848
:105BA000FFF7C6FA01221821E748FFF7C1FA0022E1
:105BB0000221E548FFF7BCFA01221B21E148FFF76B
:105BC000B7FA00221621DF48FFF7B2FA01221B21A3
:105BD000DE48FFF7ADFA00221A21DC48FFF7A8FAE9
:105BE00001221521D748FFF7A3FA00221421D54836
:105BF000FFF79EFA01221421D348FFF799FA0022F9
:105C00001521D148FFF794FA01221621CE48FFF75B
:105C10008FFA00221721CC48FFF78AFA1221C948CF
:105C2000FFF70EFAC0B213901321C648FFF708FA27
:105C3000C0B212900121C348FFF702FAC0B211901E
:105C40000221C048FFF7FCF9C4B21121BD48FFF79B
:105C5000F7F9C5B20321BB48FFF7F2F9C6B200213C
:105C6000B848FFF7EDF9C7B21021B648FFF7E8F9D9
:105C700000F0FF080E21B348FFF7E2F900F0FF093A
:105C80000F21B048FFF7DCF900F0FF0A1821AD48FA
:105C9000FFF7D6F9C0B210901721AA48FFF7D0F944
:105CA000C0B20F901921A748FFF7CAF9C0B20E90F1
:105CB0001A21A448FFF7C4F900F0FF0B0E21A248F7
:105CC000FFF7BEF9C0B20D900F219F48FFF7B8F95A
:105CD000C0B20C901A219C48FFF7B2F9C0B20B90E9
:105CE0001B219948FFF7ACF9C0B20A9012219648DF
:105CF000FFF7A6F9C0B2099013219348FFF7A0F966
:105D0000C0B208908DE8F00791A0DDE91132139937
:105D1000FFF7A6F808A80BC80B9ACDE90323CDE935
:105D20000510DDE90C01CDE900B1029088A0DDE9A4
:105D30000E321099FFF794F81398012831D1129878
:105D400078BB119801282CD15CBB012D29D146BB11
:105D5000012F26D1B8F1000F23D1B9F1010F20D1C5
:105D6000BAF1000F1DD1109801281AD10F98C0B9AF
:105D70000E98012815D1BBF1000F12D10D98012802
:105D80000FD10C9868B90B9801280AD10A9840B92C
:105D90000998012805D1089818B91498401CC0B278
:105DA0001490002204216748FFF7C2F9012205215F
:105DB0006448FFF7BDF9002206216248FFF7B8F9F1
:105DC000012207215F48FFF7B3F9002208215D484F
:105DD000FFF7AEF9012209215A48FFF7A9F900227D
:105DE0000B215848FFF7A4F901220C215548FFF771
:105DF0009FF9002218215448FFF79AF90122022145
:105E00005148FFF795F900221B214E48FFF790F902
:105E1000012216214B48FFF78BF900221B214B482A
:105E2000FFF786F901221A214848FFF781F900227D
:105E300015214448FFF77CF9012214214148FFF75E
:105E400077F9002214214048FFF772F90122152149
:105E50003D48FFF76DF9002216213B48FFF768F92E
:105E6000012217213848FFF763F912213548FFF75F
:105E7000E7F8C0B2139013213248FFF7E1F8C0B23F
:105E8000129001212F48FFF7DBF8C0B211900221D8
:105E90002C48FFF7D5F8C4B211212A48FFF7D0F8F3
:105EA000C5B203212748FFF7CBF8C6B20021254829
:105EB000FFF7C6F8C7B210212248FFF7C1F800F07B
:105EC000FF080E211F48FFF7BBF800F0FF090F2164
:105ED0001C48FFF7B5F800F0FF0A18211948FFF732
:105EE000AFF8C0B2109017211648FFF7A9F8C0B25A
:105EF0000F9019211348FFF7A3F8C0B20E901A2192
:105F00001048FFF79DF800F0FF0B0E210E48FFF739
:105F100097F8C0B20D900F210B48FFF791F8C0B26F
:105F20000C901A210848FFF78BF8C0B20B901B2188
:105F30000548FFF785F8C0B20A901221024821E017
:105F40003200002000C01B4000801B4000001C40AD
:105F5000312D256420302D256420312D25642030FD
:105F60002D256420312D256420302D256420312DF0
:105F7000256420302D256420312D256420302D25E9
:105F8000640D0A00FFF75CF8C0B209901321334892
:105F9000FFF756F8C0B208908DE8F00730A0DDE9B1
:105FA00011321399FEF75CFF08A80BC80B9ACDE9D4
:105FB0000323CDE90510DDE90C01CDE900B1029024
:105FC00027A0DDE90E321099FEF74AFF139880BB37
:105FD000129801282DD1119858BB012C29D145BB0D
:105FE000012E26D12FBBB8F1010F22D1B9F1000F3C
:105FF0001FD1BAF1010F1CD11098D0B90F98012808
:1060000017D10E98A8B9BBF1010F12D10D9880B924
:106010000C9801280DD10B9858B90A98012808D17D
:10602000099830B90898012803D11498401CC0B2CF
:1060300014901498022807D10021062001F048FF8F
:1060400014A001F0FBFE06E00021062001F040FF55
:1060500014A001F0F3FE15B0BDE8F08F00801B40E6
:10606000302D256420312D256420302D25642031EC
:106070002D256420302D256420312D256420302DE0
:10608000256420312D256420302D256420312D25D7
:10609000640D0A006770696F202020206F6B20203C
:1060A000000000006770696F202020206661696C25
:1060B0000000000030B5DDE9034504B1256030BDC6
:1060C00030B5DDE9034504B1256030BD30B5DDE90B
:1060D000034504B1256030BDF0B5DDE9055401F09C
:1060E0000706102707EA04173E43066002B1136053
:1060F000F0BDF0B5DDE9055401F00706102707EA09
:1061000004173E43066002B11360F0BDF0B585B0E0
:1061100004460D4616461F4604B104E0F0221CA1B9
:106120002AA00BF0EFFA20792B490871206808604B
:1061300008460079022826D1684600F00BFE00953B
:10614000254932460868694600F098FE224A012136
:10615000106821B1826942F40022826103E0826901
:1061600022F40022826100BF1B4A0121106821B184
:10617000826942F48022826103E0826922F48022F3
:10618000826100BF00E000BF00BF05B0F0BD0000AD
:106190002E2E2F2E2E2F2E2E2F2E2E2F2E2E2F2E1A
:1061A0002E2F646576696365732F4D494D5852549F
:1061B000313035322F7574696C69746965732F6974
:1061C0006F2F66736C5F696F2E6300004E554C4CE9
:1061D00020213D20696F0000C80000202DE9F0411A
:1061E00004460D46164600270C48007902280FD1B8
:1061F00036B10A492A460868214601F02DFC06E01E
:1062000006492A460868214600F0BCFF074601E01F
:10621000012700BF00BF3846BDE8F081C80000205C
:106220002DE9FC4107460C4615461E4600978DF8A1
:1062300004400023324629466846FFF767FF0020E6
:10624000BDE8FC8170B505460C4600264CB145B151
:10625000012636B1012221462846FFF7BFFF00B1D3
:106260000024204670BD000070B504460D4604B100
:1062700005E040F23F1204A113A00BF043FA2946B7
:106280002046FFF7DFFF70BD2E2E2F2E2E2F2E2E35
:106290002F2E2E2F2E2E2F2E2E2F646576696365BE
:1062A000732F4D494D585254313035322F75746922
:1062B0006C69746965732F6C6F672F66736C5F6CA4
:1062C0006F672E630000000062756620213D204E3E
:1062D000554C4C0070B5044604B105E04FF4CB7248
:1062E00007A117A00BF00EFA0025204600F02EF8AB
:1062F00008B9012501E04FF0FF35284670BD0000C8
:106300002E2E2F2E2E2F2E2E2F2E2E2F2E2E2F2EA8
:106310002E2F646576696365732F4D494D5852542D
:10632000313035322F7574696C69746965732F6CFF
:106330006F672F66736C5F6C6F672E6300000000E1
:10634000636820213D204E554C4C000010B504469A
:10635000002201212046FFF741FF08B1012010BDB6
:106360000020FCE710B50121014800F025F810BD20
:1063700000003F4010B50221014800F01DF810BD9B
:1063800000403F4010B50321014800F015F810BD52
:1063900000803F4070B50546284600F00EF90446DF
:1063A00004F0007028B104F0807010B94FF46170EF
:1063B00070BD0020FCE7000070B504460D46206962
:1063C00000F0010048B10D48006830B10C4850F8A9
:1063D00025102046094A12689047D4F8100100F0B1
:1063E000010048B10748006830B1074850F825104F
:1063F0002046044A1268904770BD0000B400002097
:1064000088420020B800002098420020F0B50446E1
:10641000B4FBF3F64FF47A77B6FBF7F60A4FB7FB07
:10642000F6F5002000E0401C461C6E438E4202D26E
:10643000461C9642F7D328B901EB8106B5EB460F0F
:1064400000D80120F0BD000040420F0070B50546A5
:10645000002407E0074850F82400A84201D1204654
:1064600070BD641C052CF5D3C32203A111A00BF051
:1064700049F90000B82301602E2E5C2E2E5C2E2ED2
:106480005C2E2E5C2E2E5C2E2E5C64657669636518
:10649000735C4D494D585254313035325C647269E9
:1064A000766572735C66736C5F6C706932632E63C1
:1064B0000000000066616C736500000070B5054661
:1064C0000C46002604F47054002C26D004F400502E
:1064D00010B140F28A3618E004F4006010B140F2C6
:1064E000893612E004F4806010B140F286360CE088
:1064F00004F4805010B140F2873605E04FF4867204
:1065000007A116A00BF0FEF800BF2146284600F0B8
:1065100029F8286940F440702861304670BD0000B9
:106520002E2E5C2E2E5C2E2E5C2E2E5C2E2E5C2EA5
:106530002E5C646576696365735C4D494D585254B1
:10654000313035325C647269766572735C66736C87
:106550005F6C706932632E630000000066616C73CB
:106560006500000041617047026961F30002026149
:1065700070470000012101700021817001214170EC
:106580000021C1700171064981600021C160016173
:106590000175417581750022C2750122027670472E
:1065A000A08601001AB1C36D03F00703136019B18F
:1065B000C36DC3F302430B607047014648697047DF
:1065C0002DE9F05F05460C4691462846FFF73EFF51
:1065D0008346474931F91B00FDF79EFC284600F031
:1065E000E9F8A078082101EAC000617809B9012121
:1065F00000E00021042202EA8101084328612F6A99
:1066000027F00707A07D00F00100217E022202EAA8
:1066100041010843E17D042202EA81010843074366
:106620002F626F6A3348074020794FF0E06101EA3A
:1066300000600743E078D10101EA402007436F6220
:10664000002001464FF4403202EA01420243AA65AB
:1066500000BF49462846A26800F0F8F8686A00F0D2
:10666000070AAE6AE06860B1534640F6FF724846DA
:10667000E168FFF7CBFE80466FF30B06C8F30B0013
:106680000643207D68B1217D01230F224846FFF794
:10669000BDFE804626F070664FF0706000EA08602C
:1066A0000643607D68B1617D01230F224846FFF7F4
:1066B000ADFE804626F470264FF4702000EA0840B4
:1066C0000643AE62206960B12069010A534640F674
:1066D000FF724846FFF79AFE8046E86A68F3132087
:1066E000E86221782846FFF73FFFBDE8F09F0000F1
:1066F000D6230160FFFDFFF82DE9F04706460F465F
:10670000144607B105E040F2812219A127A00AF042
:10671000F9FF14B90020BDE8F087304600F02CFAEC
:1067200005460DB12846F6E7601EC0B240F4807001
:106730003066B84615E000BF3046FFF73EFF8246A0
:1067400051463046FFF7BAFE05460DB12846E2E74E
:10675000D6F8709009F480400028EDD108F8019B2C
:1067600000BF201EA4F10104E5D100BFD3E7000063
:106770002E2E5C2E2E5C2E2E5C2E2E5C2E2E5C2E53
:106780002E5C646576696365735C4D494D5852545F
:10679000313035325C647269766572735C66736C35
:1067A0005F6C706932632E6300000000727842757E
:1067B000666600000221016100210161704700004E
:1067C0002DE9F04106460C461746254604B105E082
:1067D00040F2BD220CA11BA00AF094FF0DE0304650
:1067E00000F0CAF98046B8F1000F02D04046BDE87B
:1067F000F08115F8010B306600BF381EA7F10107C4
:10680000EDD100BFF3E700002E2E5C2E2E5C2E2E65
:106810005C2E2E5C2E2E5C2E2E5C64657669636584
:10682000735C4D494D585254313035325C64726955
:10683000766572735C66736C5F6C706932632E632D
:106840000000000074784275666600002DE9F74F7D
:1068500084B0054691460024002003900026029053
:106860004FF0FF3B286900F001000090002128460E
:10687000FFF77AFE012438E0012732E0012F0AD128
:106880000598B0FBF4F10220B0FBF4F0801DB1FBE1
:10689000F0F001900CE00598B0FBF4F10220B0FBA1
:1068A000F4F207EB4700801C1044B1FBF0F00190BC
:1068B0000198814503D90198A9EB000002E00198F5
:1068C000A0EB090002900298584509D203943E4675
:1068D000DDF808B0DDF808B0BBF1000F00D102E030
:1068E0007F1C202FCAD300BF6400802C02D8BBF1CC
:1068F000000FC1D14FF47C5000EA062A022E03D2C9
:106900001A484AEA000A0EE0F0064FF47C1101EA48
:10691000064141EA906071084FF07C5202EA016141
:10692000084340EA0A0AC5F848A04FF000080AE008
:10693000012000FA08F00399884202D1CDF80C80BA
:1069400004E008F10108B8F1080FF1DB00BF03987B
:10695000696A60F302016962009818B10121284652
:10696000FFF702FE07B0BDE8F08F00000300020150
:1069700070B50546284600F0FFF804460CB12046E5
:1069800070BD4FF40070286612E02846FFF715FE30
:10699000064631462846FFF791FD044606F400708E
:1069A00028B14FF400712846FFF7DCFD02E000BF7C
:1069B000002CEAD000BF2046E2E700002DE9FF47A7
:1069C00005460C460026002704B105E040F2D62219
:1069D00048A157A00AF096FEE068042800D805E018
:1069E00040F2D72243A155A00AF08CFE2846FFF7BB
:1069F000D1FC06461EB1304604B0BDE8F0874FF426
:106A0000FE412846FFF7AEFD686A20F48070686298
:106A1000E06808B1002000E0A0798146207800F00D
:106A2000010060B9A0884FF6FF7101EA400040EA1A
:106A3000090040F4806238467F1C2DF81020E06881
:106A400078B1E06808E0C300A268DA40D1B23A4603
:106A50007F1C2DF8121000BF011EA0F10100F2D121
:106A600000BF606988B1A07901280ED1B9F1000F8B
:106A70000BD1A0884FF6FF7101EA4000401C40F4A2
:106A8000806238467F1C2DF810204FF000080BE084
:106A9000284600F071F806460EB13046ACE73DF8E6
:106AA0001800286608F10108381EA7F10107EFD188
:106AB000A07938B9606928B12846D4E90412FFF7F3
:106AC0007FFE0646A079012807D1606928B12846D3
:106AD000D4E90412FFF710FE06460EB130468BE7EC
:106AE000207800F0040018B92846FFF741FF064659
:106AF000304681E72E2E5C2E2E5C2E2E5C2E2E5CD8
:106B00002E2E5C2E2E5C646576696365735C4D4940
:106B10004D585254313035325C6472697665727307
:106B20005C66736C5F6C706932632E6300000000FA
:106B30007472616E73666572000000007472616E3B
:106B4000736665722D3E73756261646472657373FA
:106B500053697A65203C3D2073697A656F662874B5
:106B600072616E736665722D3E73756261646472E4
:106B70006573732900000000F8B50546042600BFC0
:106B80006A4600212846FFF70DFD0098301A009054
:106B90002846FFF712FD074639462846FFF78EFCC8
:106BA00004460CB12046F8BD00980028E8D000202B
:106BB000F9E7000010B5034841680348034A12682A
:106BC000904710BD5842002000401840AC00002003
:106BD00010B5024809F073FB10BD00000C01002045
:106BE00010B5034881680348034A1268904710BDF6
:106BF0005842002000801840AC00002010B5034827
:106C0000C1680348034A1268904710BD58420020EB
:106C100000C01840AC00002010B5034801690348CB
:106C2000034A1268904710BD5842002000001940E6
:106C3000AC00002010B5034841690348034A1268BC
:106C4000904710BD5842002000401940AC00002081
:106C500010B5034881690348034A1268904710BD84
:106C60005842002000801940AC00002010B50348B5
:106C7000C1690348034A1268904710BD584200207A
:106C800000C01940AC00002010B50348016A034859
:106C9000034A1268904710BD5842002000001A4075
:106CA000AC00002070B505460C46AB6A23F44033B7
:106CB0004FF4403000EA04400343AB626B6923F0B9
:106CC000004304F0004003430B480340C14304EA7F
:106CD0000100034323F4404304F4404003436B6149
:106CE000284600F0C3F8204010B140F21A5600E0E8
:106CF0000026304670BD0000FFFFE0BF02694FF480
:106D0000404303EA01239A430261826A22F440323B
:106D10004FF4407303EA01239A43826221F0FF019A
:106D200082698A438261704702694FF4404303EAF3
:106D300001231A430261826A22F440324FF4407305
:106D400003EA01231A43826221F0FF0182690A43A8
:106D50008261704710B5044604B105E040F2E512C7
:106D60000BA11AA00AF0CEFC4FF4E1302060002005
:106D700020716071A071E07120726072A072E07287
:106D800060732073A073E0732074607410BD000002
:106D90002E2E2F2E2E2F2E2E2F2E2E2F2E2E2F2E0E
:106DA0002E2F646576696365732F4D494D58525493
:106DB000313035322F647269766572732F66736C69
:106DC0005F6C70756172742E63000000636F6E6695
:106DD0006967000070B50546002406E0094850F8D0
:106DE0002400A84200D102E0641C092CF6D300BFA5
:106DF000092C00D204E0902203A112A00AF082FC28
:106E0000204670BD2C2301602E2E2F2E2E2F2E2ECD
:106E10002F2E2E2F2E2E2F2E2E2F64657669636532
:106E2000732F4D494D585254313035322F647269A9
:106E3000766572732F66736C5F6C70756172742EF9
:106E400063000000696E7374616E6365203C2041CD
:106E5000525241595F53495A4528735F6C707561AE
:106E6000727442617365732900000000014648692D
:106E70008A6A02F4430240EA124070472DE9F04F5B
:106E800085B004460D46914605B104E0E72284A191
:106E900092A00AF037FC286800B104E0E82280A143
:106EA00090A00AF02FFC287A042800DC04E0EA22F3
:106EB0007BA192A00AF026FC687A042800DC04E09A
:106EC000EB2277A19DA00AF01DFC286802904FF0EC
:106ED000000A00200490042731E028687843B9FBB9
:106EE000F0F01FFA80F8B8F1000F01D14FF001085F
:106EF00007FB08F0B9FBF0F0039029680398A0EBBA
:106F0000010B08F101007843B9FBF0F02968081A79
:106F100058450BD208F101007843B9FBF0F029681D
:106F2000A1EB000B08F101001FFA80F802988345DD
:106F300004D8CDF808B0BA46CDF810807F1C202FB9
:106F4000CBD964212868B0FBF1F000EB4001029836
:106F5000814204D240F2215005B0BDE8F08F2046B6
:106F6000FFF738FF01908549019831F91000009032
:106F700003210098FCF71AFE00BF00BFA06840F094
:106F80000200A060A06820F00200A06000BF266997
:106F9000BAF1030F04D9BAF1080F01D246F4003652
:106FA00026F0F856AAF101004FF0F85101EA00600E
:106FB00006436FF30C060498C0F30C0030432061C5
:106FC000206920F000502061A06940F2177120EA8A
:106FD00001062879E97B4FF4E06202EA01210843C7
:106FE000A97B042202EA810108430643687901284B
:106FF00007D1287910B126F4006606E046F4006651
:1070000003E0287908B146F01006A661206920F453
:107010000056E8794FF4005101EA403030432061D6
:10702000287A697A40EA0140E062A06A40F088006C
:10703000A062A06A40F44040A062514E46F0004673
:1070400046F44046687B102101EA0010297B20228B
:1070500002EA41110843616A08436062A87A18B1E4
:10706000606A40F008006062E87A18B1606A40F037
:1070700001006062A87910B146F0005601E026F0E8
:107080000056606930436061A669287C08B146F407
:107090000026687C08B146F48026A66100205BE7E4
:1070A0002E2E2F2E2E2F2E2E2F2E2E2F2E2E2F2EFB
:1070B0002E2F646576696365732F4D494D58525480
:1070C000313035322F647269766572732F66736C56
:1070D0005F6C70756172742E63000000636F6E6682
:1070E00069670000636F6E6669672D3E6261756453
:1070F000526174655F4270730000000046534C5F3C
:10710000464541545552455F4C50554152545F4697
:1071100049464F5F53495A456E286261736529207D
:107120003E3D20636F6E6669672D3E7478466966E2
:107130006F57617465726D61726B000046534C5FEE
:10714000464541545552455F4C50554152545F4657
:1071500049464F5F53495A456E286261736529203D
:107160003E3D20636F6E6669672D3E7278466966A4
:107170006F57617465726D61726B0000622301600C
:1071800000001F402DE9F04706460C46904604B12A
:1071900005E040F2BB2230A13EA00AF0B3FAB76985
:1071A00007F4006040B907F4006038B907F0100038
:1071B00020B907F0020008B1012000E0002081465C
:1071C00042E030E03046FFF751FE054605F400206E
:1071D00040B14FF400213046FFF764FD40F21D50EE
:1071E000BDE8F08705F4802038B14FF480213046A7
:1071F000FFF758FD40F21E50F2E705F4003038B1B9
:107200004FF400313046FFF74DFD40F21F50E7E7E5
:1072100005F4803038B14FF480313046FFF742FD3D
:107220004FF4A460DCE7F06AC0F302600028C9D024
:10723000B9F1000F05D0F06900F07F0004F8010BF0
:1072400002E0F06904F8010BB8F10000A8F10108B0
:10725000B7D100BFC4E700002E2E2F2E2E2F2E2ECA
:107260002F2E2E2F2E2E2F2E2E2F646576696365DE
:10727000732F4D494D585254313035322F64726955
:10728000766572732F66736C5F6C70756172742EA5
:107290006300000064617461000000002DE9F047A4
:1072A00006460F46904607B104E0C82212A121A06D
:1072B0000AF028FAB56905F4006040B905F40060E9
:1072C00038B905F0100020B905F0020008B101201E
:1072D00000E00020814600240AE0B9F1000F04D04C
:1072E000F06900F07F00385501E0F0693855641C02
:1072F0004445F2D3BDE8F0872E2E2F2E2E2F2E2EB2
:107300002F2E2E2F2E2E2F2E2E2F6465766963653D
:10731000732F4D494D585254313035322F647269B4
:10732000766572732F66736C5F6C70756172742E04
:107330006300000064617461000000002DE9F04703
:1073400081460E4617461C462546A86858B164205B
:10735000B7FBF0F100FB117000F101084146304627
:10736000D5E902329847BDE8F08700002DE9F047E3
:1073700007460C469046994604B105E040F2FD22CE
:1073800023A132A00AF0BEF9BD6905F4006040B93E
:1073900005F4006038B905F0100020B905F00200CE
:1073A00008B1012000E00020824630212046FBF792
:1073B0005BF9022084F82D00002084F82C00C4F82A
:1073C0002480C4F8289084F82EA03846FFF702FDE8
:1073D0000646204941F826401F48204908602049B8
:1073E00031F9160010F1800F00D10EE0014600299E
:1073F00009DB01F01F0301229A404B099B0003F1B6
:10740000E023C3F8002100BF00BFBDE8F087000003
:107410002E2E2F2E2E2F2E2E2F2E2E2F2E2E2F2E87
:107420002E2F646576696365732F4D494D5852540C
:10743000313035322F647269766572732F66736CE2
:107440005F6C70756172742E6300000068616E6419
:107450006C65000058420020DD740060AC00002024
:107460005023016070B506460C4604B104E0972233
